:020000040800F2
:1000000030170020C1010008390B00089D080008C6
:10001000350B0008CD070008D512000800000000CD
:10002000000000000000000000000000610C00085B
:1000300099080008000000004D0B0008A10E000800
:10004000DB010008DB010008DB010008DB01000820
:10005000DB010008DB010008DB010008DB01000810
:10006000DB010008DB010008DB010008DB01000800
:10007000DB010008DB010008DB010008DB010008F0
:10008000DB010008DB010008DB010008DB010008E0
:10009000DB010008DB010008DB010008DB010008D0
:1000A000DB010008DB010008DB010008DB010008C0
:1000B000DB010008DB010008DB010008DB010008B0
:1000C000DB010008DB010008DB010008DB010008A0
:1000D000DB010008650F000825110008DB0100089E
:1000E000DB010008DB010008DB010008DB01000880
:1000F000DB010008DB010008DB010008DB01000870
:10010000DB010008DB010008DB010008DB0100085F
:10011000DB010008DB010008DB010008DB0100084F
:10012000DB010008DB010008DB010008DB0100083F
:10013000DB010008DB010008DB010008DB0100082F
:10014000DB010008D1070008DB010008DB01000823
:10015000DB010008DB010008DB010008DB0100080F
:10016000DB010008DB010008DB010008DB010008FF
:10017000DB010008DB010008DB01000800000000D3
:10018000DB010008DB010008DB010008DB010008DF
:10019000DB010008DB010008DB01000800000000B3
:1001A000DB010008DB010008DB010008DFF80CD0F0
:1001B00000F06CFA00480047951D00083017002039
:1001C0000648804706480047FEE7FEE7FEE7FEE7F1
:1001D000FEE7FEE7FEE7FEE7FEE7FEE7A90E000802
:1001E000AD01000840EA01039B0703D009E008C9FC
:1001F000121F08C0042AFAD203E011F8013B00F8EC
:10020000013B521EF9D27047D2B201E000F8012B37
:10021000491EFBD270470022F6E710B513460A4686
:1002200004461946FFF7F0FF204610BD421C10F8A7
:10023000011B0029FBD1801A7047CBB203E0017883
:10024000994203D0401C521EF9D20020704730B5AD
:1002500004460020034600E05B1C934203D2E05CAE
:10026000CD5C401BF8D030BD00F0004230F00040C3
:100270000AD0C10D01F56071C0F3160042EA0151C8
:10028000C20840071143704700200146704730B54F
:100290000B46014600202022012409E021FA02F544
:1002A0009D4205D303FA02F5491B04FA02F52844DE
:1002B000151EA2F10102F1DC30BD2DE9F05F05460B
:1002C000002092469B4688460646814640241BE015
:1002D000284641464746224600F0F9F953465A4619
:1002E000C01A914110D311461846224600F0E0F999
:1002F0002D1A67EB01084F4622460120002100F02D
:10030000D7F917EB00094E41201EA4F10104DFDCF0
:10031000484631462A464346BDE8F09F2DE9FE4F48
:10032000804681EA0300C00F0C46009021F0004196
:1003300023F00045B8EB0200A94105D24046214612
:1003400090461C460B46024623F00040104347D01F
:10035000270DC7F30A00C3F30A510290401A019017
:1003600040286BDAC3F3130040F4801B00989246D8
:1003700020B10023D2EB030A63EB0B0B0198594623
:10038000C0F14002504600F093F906460D46504633
:100390005946019A00F0ABF910EB080061410024C6
:1003A00087EA115284EAE7731A4340D0009A62B395
:1003B000019A012A4FEA075215DC001B61EB02018A
:1003C0004FF0004202EA0752CDE90042001C41F51D
:1003D000801132462B4600F0ABF903B0BDE8F08F38
:1003E00040462146F9E7001B61EB0201001C41F584
:1003F000801300185B412018A2F5001747EB03019A
:1004000040EAD570B6196D4111E06D084FEA360625
:1004100045EAC0754FEA0752001B61EB0201001C60
:1004200041F5801149084FEA300000195141324628
:100430002B4603B0BDE8F04F00F06BB900980122E5
:1004400040000023D0EB020263EBE07300982146EA
:100450004FEAE074B8EB000061EB0401E9E783F0D8
:1004600000435BE781F0004158E72DE9FE4F81EA48
:10047000030404F0004421F0004100944FF0000B0D
:1004800023F0004350EA01045ED052EA03045BD03B
:10049000C3F30A54C1F30A552C44A4F2F334019473
:1004A000A0FB0254C1F3130141F48011C3F3130301
:1004B00043F4801301FB024400FB034E840A970AB5
:1004C00044EA815447EA8357A4FB076802958D0AE2
:1004D00005FB07854FEA932C04FB0C542705029D6E
:1004E0004FEA065847EA1637B5EB08056EEB070CDE
:1004F000870E920E47EA811742EA8312A7FB020198
:10050000B6EB0B0164EB00042B0D43EA0C335E18D1
:1005100044EB1C50DA465146E7FB0201C5F31304D5
:100520004FEA0B3343EA14534FEA0432019C43EA87
:100530000603A4F10C040294009CCDE900B400F081
:10054000F7F803B0BDE8F08F00200146F9E72DE988
:10055000F04D81EA030404F0004B21F000451446FD
:100560004FF0000A23F0004150EA050220D054EA7F
:1005700001021DD0C5F30A570246C5F31303C1F3A8
:100580001300C1F30A5640F4801543F48013A7EB1F
:100590000608101BD64608F2FD3873EB050002D39F
:1005A00008F1010801E092185B41B8F1000F03DA8D
:1005B00000200146BDE8F08D00204FF48011064672
:1005C00084460EE0171B73EB050705D3121B63EB84
:1005D000050306434CEA010C49084FEA3000921823
:1005E0005B4150EA0107EDD152EA030012D082EAE2
:1005F000040083EA0501084305D0101BAB4106D275
:100600000122002306E000224FF0004302E06FF0D9
:10061000010253101AEB06004CEB085110EB0A00D4
:1006200041EB0B01BDE8F04D00F073B8C1F30A5285
:10063000C1F3130140F2FF3341F480119A4202DA10
:1006400000200146704740F233439A42A2F23342FF
:1006500002DC524200F03BB800F02AB830B5041E6C
:1006600071F1000404DB4FF00044404264EB0101EF
:10067000141E73F1000405DB1C464FF00043524288
:1006800063EB0403994208BF904230BD064C074D0E
:1006900006E0E06840F0010394E807009847103452
:1006A000AC42F6D3FFF786FD9C2E0008BC2E000856
:1006B000202A04DB203A00FA02F100207047914022
:1006C000C2F1200320FA03F3194390407047202A17
:1006D00004DB203A21FA02F00021704721FA02F3EC
:1006E000D040C2F120029140084319467047202AA9
:1006F00006DBCB17203A41FA02F043EAE07306E04A
:1007000041FA02F3D040C2F1200291400843194659
:10071000704710B5141E73F1000408DA401C41F153
:10072000000192185B411A4301D120F0010010BD75
:100730002DE9F04D92469B4611B1B1FA81F202E0EB
:10074000B0FA80F220329046FFF7B2FF04460F461F
:1007500040EA0A0041EA0B0153465A46084313D0C7
:10076000114653EA010019D0C8F140025046FFF784
:10077000AEFF05460E46504659464246FFF798FFE3
:10078000084305D0012004E020463946BDE8F08D3D
:100790000020054346EAE0762C4337430A98630578
:1007A000E40AA0EB08000022FD0A44EA47540A309C
:1007B00002D500200146E9E7010510196941DDE98C
:1007C000084500196941BDE8F04DA2E7FEE70000C9
:1007D00080B500F001F880BD70B546F600048425B0
:1007E000C4F20004C0F201052046294600F09EFE36
:1007F000012822D105F182062046314600F096FEFE
:10080000012806D12046314600F088FE14A002F0EF
:10081000CDFA20464FF4C06100F0DEFD012802D180
:1008200014A002F0C3FA2046294600F077FE41F2F8
:100830000430C2F200000121017048F28A05C0F2C2
:1008400001052046294600F071FE012818BF70BD41
:100850002046294600F062FE0BA002F0A7FA70BD08
:1008600043414E204649464F31206F766572666C93
:100870006F77210043414E207761726E696E672069
:100880006572726F7221000043414E2062757320C1
:100890006F6666210000000070470000FEE7000060
:1008A00080B540F6064001F041FB41F60000C4F27D
:1008B0000200002101224FF4804301F0A5F880BD21
:1008C00040F20400C2F200008178C2780379090383
:1008D00090F805C041EAC23141EA43218279C079EA
:1008E00041EA8C1141EAC201084380B2704700001E
:1008F00080B5022000F08CF800EE100AB8EE400A35
:10090000B7EE041A9FED032A20EE010A80EE020AD8
:1009100080BD00BF00007A4480B5042000F078F864
:1009200000B200EE100A40F20400C2F2000090EDA6
:10093000041AB8EEC00A9FED032A21EE000A80EEE9
:10094000020A80BD00007A4480B5FF2000F060F804
:1009500080BD000080B5FE2000F05AF880BD000088
:1009600080B5032000F054F800B200EE100A40F207
:100970000400C2F2000090ED041AB3EE092AB8EEAA
:10098000C00A21EE021A21EE000A80BD80B50120C6
:1009900000F03EF800B2013000EE100A9FED031A9D
:1009A000B8EEC00A20EE010A80BD00BF0AD7233B83
:1009B00010B582B09C4613460A46014640F68400B4
:1009C000C2F20000CDF800C000F04CF9FFF778FF4C
:1009D0000446FFF765FF0020214600F05BF840F277
:1009E0000404C2F20004E189052000F053F82189D3
:1009F000062000F04FF8A189072000F04BF802B064
:100A000010BD000080B5062000F002F880BD000097
:100A100070B540F68404C2F200040546204600F09A
:100A2000AFF940F20406C2F2000630784000C1B2CD
:100A3000204600F0D3F9204600F06EF92046294602
:100A400000F0CCF9204600F067F9204600F098F954
:100A5000307840000130C1B2204600F0BFF9204696
:100A600000F05AF9204600F06BF940F69005C2F20A
:100A7000000528602046002100F0A2F92E682046DB
:100A800000F05EF940EA06202860204600F08AF96E
:100A9000288870BD70B540F68404C2F20004064692
:100AA00020460D4600F06CF940F20400C2F200004E
:100AB00000784000C1B2204600F090F9204600F0D6
:100AC0002BF92046314600F089F9204600F024F940
:100AD000290A204600F082F9204600F01DF9E9B20B
:100AE000204600F07BF9204600F016F9204600F081
:100AF00059F970BD80B500F001F880BD10B54FF414
:100B0000406001F013FA40F6024001F00FFA0024B1
:100B1000C4F20204204600210222012300F074FFE7
:100B200004F50060002101224FF4005300F06CFF37
:100B300010BD0000FEE70000704700004EF6235194
:100B40000001CEF2000108707047000070470000FD
:100B500080B500F021F800F001F880BD10B540F636
:100B6000064001F0E3F941F60004C4F20204204615
:100B7000012100224FF4005300F046FF20460021DF
:100B800002224FF4005300F069FF20464FF4005159
:100B900000F02CFF10BD000070B505464FF440601A
:100BA00001F0C4F94FF4406001F0C0F941F21100C6
:100BB00001F0BCF944F20044C4F2000404F5DE364E
:100BC00030460721042200F0D7FE304607210822D4
:100BD00000F0D2FE304602210122042300F014FF6F
:100BE000304602210122082300F00EFF304600218A
:100BF0000222042300F032FF3046002102220823A3
:100C000000F02CFF204601F007FB2046294601F0AA
:100C10009BFA2046002101F0A5FB2046002101F0AF
:100C2000BDFB2046002101F0ABFB26200021012264
:100C300001F0BEF82046082101F0AAFB204604215D
:100C400001F098FB204640F2053101F06DFB204693
:100C50004FF4417101F068FB204601F03FFB70BD8D
:100C60007047000010B50446216001F13E4101F1DA
:100C7000FF7102984FEAB1210829A280E380208108
:100C800023D800EB81024FF44060DFE801F01C053F
:100C9000080B0E1114171A0040F6014013E040F63D
:100CA000024010E040F603400DE040F604400AE048
:100CB00040F6054007E040F6064004E040F60740F5
:100CC00001E040F6084001F031F92068A3880121D5
:100CD000012200F099FE2068E3880121012200F042
:100CE00093FE2068A3880121022200F0B7FE20684D
:100CF000E3880121022200F0B1FE2046012100F02C
:100D00009DF82046012100F0A7F8204600F038F8B1
:100D1000204600F047F810BDB0B50121044600F0B0
:100D20009BF82046012100F089F8204600F07AF86F
:100D300005462046002100F081F82846B0BD00009D
:100D4000F0B581B00121044600F086F80025802628
:100D5000002700BF2046012100F070F8204600F077
:100D600061F826FA05F1012808BF0F43204600214B
:100D700000F064F80135082DECD1F8B201B0F0BDF7
:100D800010B50121044600F067F82046012100F06B
:100D900055F82046002100F05FF82046002100F0C1
:100DA0004DF810BD10B50021044600F055F820465E
:100DB000012100F043F82046012100F04DF810BD5C
:100DC00010B5044600F048F82046012100F036F83E
:100DD0002046002100F032F810BD0000F0B581B0CF
:100DE0000C4605460026802727FA06F000EA040193
:100DF000284600F031F8022000F076FD2846012157
:100E000000F01CF8022000F06FFD2846002100F0E1
:100E100015F8022000F068FD0136082EE4D101B07B
:100E2000F0BD000010B50268C188104600F0E6FD74
:100E300004460A2000F058FD204610BD80B5026827
:100E400083888C4610461946624600F0D1FD0A2080
:100E500000F04AFD80BD000080B50268C3888C4662
:100E600010461946624600F0C3FD0A2000F03CFD22
:100E700080BD0000B0B501380024B4EB106F1CBF7A
:100E80000120B0BD4EF21005CEF2000568600F20C3
:100E9000FFF754FE0720AC6028602046B0BD00007C
:100EA00080B500F015FD80BD80B582B04EF688514A
:100EB000CEF200010A6843F6080042F47002C4F260
:100EC00002000A6050F8081C4FF0000C41F00101CC
:100ED00040F8081C01684CF24F3241F0800101607B
:100EE000CDF804C0019B934208D84CF2503300BFA8
:100EF00001990131019101999942F9D3016841F0B9
:100F000090010160CDF804C00199914208D84CF2DB
:100F1000503100BF019A01320192019A8A42F9D3FD
:100F200001684FF6FF7221F00301016050F8081CC0
:100F3000CFF6F662114040F8081C50F8081C21F466
:100F4000802140F8081C00210160026843F2100271
:100F5000C2F2004240F8042C416001F0A5F802B052
:100F600080BD00002DE9F04381B041F2000440F261
:100F70000055C4F20104C0F2010505F50031204618
:100F800001F0DEF980B92046294601F0D9F958B9B7
:100F900005F58031204601F0D3F928B920464FF4F9
:100FA000427101F0CDF9B0B12046032101F09CF966
:100FB000204601F029F941F2F800C2F20000FA21BE
:100FC000FFF729F941F2F210C2F20000002101807E
:100FD00001B0BDE8F08340F20435C0F2040505F12C
:100FE0000111204601F0ACF9012812D141F2F216AC
:100FF000C2F200063788204601F006F9F82F4BD8D8
:1010000031884A1C328041F2F802C2F20002505488
:1010100042E02046294601F093F901283CD12046C0
:1010200001F0F2F841F2F218C2F20008B8F80090AC
:10103000B9F1000F15D041F2F800C2F2000040F6FD
:101040000A514A46FFF7F9F858B140F2A2060027C4
:10105000C2F20006F05D40B1FC37B7F5FC6FF9D184
:1010600010E02CA001F0A2FE0CE0F01941F2F80112
:1010700080F801900230C2F200014A46FFF7B2F850
:101080000120F05541F2F800C2F20000FA21FFF70A
:10109000C2F80020A8F8000005F10311204601F075
:1010A0004FF901281AD140F22000C2F20000017865
:1010B00079B941F2F602C2F20002117843789942FE
:1010C00007D208444B1C81782046137001F0A0F829
:1010D00004E0204640F2073101F01AF905F102114F
:1010E000204601F02DF9012810D1204640F20631AA
:1010F00001F00EF940F22000C2F20000012101705F
:1011000041F2F600C2F200000021017001B0BDE81A
:10111000F08300BF64617461206973206572726F2F
:10112000720D00002DE9F04144F2004440F20055F8
:10113000C4F20004C0F2010505F50031204601F0BB
:10114000FFF880B92046294601F0FAF858B905F5AC
:101150008031204601F0F4F828B920464FF442715E
:1011600001F0EEF8A8B12046032101F0BDF82046B9
:1011700001F04AF841F2F810C2F20000FA21FFF73C
:101180004AF841F2F220C2F2000000210170BDE8ED
:10119000F08140F20435C0F2040505F1011120464A
:1011A00001F0CEF8012811D141F2F226C2F2000678
:1011B0003778204601F028F8F82F07D831784A1CF4
:1011C000327041F2F812C2F2000250542046294611
:1011D00001F0B6F8012838D1204601F015F841F2A7
:1011E000F228C2F2000898F8002022B341F2F81069
:1011F000C2F2000040F60A51FFF71FF8D8B140F6DE
:1012000016160027C2F20006F05D20B1FC37B7F5D4
:10121000FC6FF9D10FE0022000F082FD98F8002069
:10122000F01941F2F81142700230C2F20001FEF7EB
:10123000D9FF0120F05541F2F810C2F20000FA2166
:10124000FEF7E9FF002088F8000005F103112046B1
:1012500001F076F801281AD140F69400C2F200009D
:10126000017879B941F2F412C2F2000211784378A0
:10127000994207D208444B1C81782046137000F035
:10128000C7FF04E0204640F2073101F041F805F1C4
:101290000211204601F054F8012818BFBDE8F08182
:1012A000204640F2063101F033F840F69400C2F2D5
:1012B00000000121017041F2F410C2F2000000218F
:1012C0000170002000F062FE022000F007FDBDE882
:1012D000F0810000FEE7000080B500F085F800F026
:1012E00057F900F05DFD46F60000C4F20000102141
:1012F00000F010F980BD000010B546F20041C4F2C4
:10130000000140F61A04884208BF40F6190420463E
:1013100000F02CFE204600F019FE10BD8069C0F3DD
:1013200002107047B0B546F20061C4F20001448972
:101330000A684FF0010C42F001020A60CB690CFA16
:1013400004F5AB43CB61C3896FEA050C012B10D0C8
:1013500023BBCB6803EA0C03CB60B0F806E04388FC
:1013600043EA0E434FEAC40E01EBC4042364034670
:101370000DE0CB682B43CB60B0F800E0438843EA34
:101380000E434FEAC40E01EBC4042364831D84881A
:101390001B8843EA044301EB0E04636483894C68B1
:1013A000002B44EA050208BF04EA0C024A600289E5
:1013B0004B69002A43EA050408BF03EA0C044C61A8
:1013C000007C012802D1C8692843C861086820F060
:1013D00001000860B0BD00008A09105801F01F012B
:1013E000C84000F00100704710B540F6014000F021
:1013F0009DFD41F21A0000F099FD40F20044C4F254
:1014000002042046002102224FF4405300F026FB44
:101410002046022100224FF4405300F0F5FA204606
:1014200009214FF4405200F0A7FA10BD10B5026830
:1014300040F2010C22F0020202600268CFF6FF7C4B
:1014400042F0010263460260426823B112F00102D9
:1014500003F10103F8D04268D20704BF002010BD99
:101460000A784B7891F802E0CC78920763F319621E
:101470000EF00F0342EA034204F007034C8942EAEC
:101480000352631E6FF39F231A44C2610A790368F3
:10149000012A23F0800308BF803303604A79036880
:1014A000012A23F0400308BF403303608A790368B0
:1014B000012A23F0200308BF20330360CA790368A0
:1014C000002A23F0100308BF103303600A7A036870
:1014D000002A23F0080308BF08330360497A026832
:1014E000012922F0040208BF04320260016821F0E1
:1014F0000101016042686146BCF1000F04D012F0A6
:10150000010201F1010CF5D1002918BF01210846A3
:1015100010BD00004269114341617047C1F384125C
:10152000012303FA02F2090B0A507047B0B50C46CA
:1015300048F2CB01C0F201018C4205460DD0842057
:10154000C0F2010084420CD04CF2810084420DD1E3
:101550002846002100F084F810E02846FFF7DEFE60
:101560000CE02846012100F07BF807E0200B4059F1
:10157000C4F38411012202FA01F10840696904F000
:101580001F02002818BF0120D1400840B0BD000054
:101590002DE9F04188B005AC00202146002700F07D
:1015A0006BF86D46012029464FF0010800F064F801
:1015B00046F60006C4F200063046FFF79DFE4FF0E7
:1015C000012006904FF4A02007904FF08370059003
:1015D0004FF4803003900120C0F20F0002902846A3
:1015E000CDE900778DF81080FFF79CFE304621464C
:1015F000FFF71CFF30464FF48071FFF7EDFE0FA19F
:1016000004A2012808BF1146084601F0CFFB08B02C
:10161000BDE8F08143414E20636F6E74726F6C6C55
:10162000657220696E697469616C697A656420739A
:1016300075636365737366756C6C790043414E2006
:10164000696E697469616C697A6174696F6E206D25
:1016500061792068617665206661696C6564210046
:1016600029B101291CBF00207047102100E00C2186
:10167000085800F00300704703280FD8DFE800F097
:10168000020F181E0120C0F2FF3088604FF08070FA
:1016900048604FF400300860704700BFFEE700204C
:1016A0004FF480320874CA600860486088607047F0
:1016B0000020C1F80F00C1F80B0005E00020C1F8C0
:1016C0000F00C1F80B00C874C1E90000C1F80700A1
:1016D000704700002DE9F04F81B042F6F05441F21E
:1016E00008390027C0F60004C2F200094FF0000BD1
:1016F00009E000BF0BF1010BBBF1080F8AF8007085
:101700008AF8017046D040F2A202CBEB8B10C2F2F5
:10171000000212F8201002EB800A01291ED19AF86B
:1017200001600AF102054FF0000800BF54F83810BC
:1017300028463246FEF78BFD30B108F10108B8F1BA
:10174000070FF3D10AE000BF04EBC80040688047F0
:1017500041F22830C2F200000121017041F228302C
:10176000C2F2000000780128C4D14846FEF75EFDB1
:10177000C1B2484600F086F841F22830C2F20000BB
:101780000770C9E90077C9E90277C9E90477C9E9AF
:101790000677AFE701B0BDE8F08F000070B50546F1
:1017A0004FF4406000F0C2FB4FF4406000F0BEFB1D
:1017B00041F2041000F0BAFB41F20004C4F201044B
:1017C00004F57046304607214FF4007200F0D4F85B
:1017D000304607214FF4806200F0CEF830460221F7
:1017E00001224FF4007300F00FF93046022101226C
:1017F0004FF4806300F008F93046002102224FF4D4
:10180000007300F02BF93046002102224FF4806370
:1018100000F024F9204600F0FFFC2046294600F0A5
:1018200093FC2046002100F09DFD2046002100F0A1
:10183000B5FD2046002100F0A3FD00F009F8204688
:1018400000F04CFD2046082100F0A2FD70BD000014
:1018500010B525200021002200F0AAFA41F2000470
:10186000C4F201042046042100F084FD204640F229
:10187000053100F059FD20464FF4417100F054FD50
:1018800010BD000010B5034648B2B0F1FF3F40F272
:101890002000C2F200004FF00002D8BF6FF07F01BD
:1018A00000F8022B00F8011CCAB21946FEF79AFC98
:1018B00041F20004C4F20104204640F2073100F076
:1018C00033FD204640F2063100F02EFD10BD000031
:1018D00041F2F420C2F200000168002908BF7047FD
:1018E000016801390160704781B040F21801C2F20D
:1018F000000109684DF68362C4F21B32A1FB02129B
:10190000910C00220092009A4843824207D200BF05
:1019100000BF00990131009100998142F8D301B0D4
:101920007047000080B582B013460A46014641F276
:10193000F8204FF0500CC2F20000CDF800C0FFF7C5
:1019400091F902B080BD0000B0B541F20005044637
:10195000C4F201052846072100F0D2FC0028F9D086
:10196000E1B2284600F054FC2846062100F0C8FCED
:101970000028F9D02046B0BDF0B5D0F820E0D0F86E
:1019800024C000230F27002505E000BF0135082DE6
:1019900003F104030CD022FA05F6F607F6D007FA95
:1019A00003F62EEA060601FA03F446EA040EEDE712
:1019B000082300240F2504E00133102B04F1040454
:1019C0000CD022FA03F6F607F6D005FA04F62CEA54
:1019D000060701FA04F647EA060CEDE7C0F820E036
:1019E000C0F824C0F0BD000081627047816170477B
:1019F0001823002A08BF282319507047006908409F
:101A000018BF0120704700002DE9F041D0F800E038
:101A1000D0F80CC000244FF00308002605E000BFFA
:101A20000136102E04F1020412D023FA06F7FF0744
:101A3000F6D008FA04F72EEA070E01FA04F54EEA8A
:101A4000050E2CEA070702FA04F547EA050CE7E75A
:101A5000C0F800E0C0F80CC0BDE8F081B0B50129C5
:101A6000416814BF994319434160D0F808C0002170
:101A70004FF0030E002404E00134102C01F10201A8
:101A80000CD023FA04F5ED07F6D00EFA01F52CEA96
:101A9000050C02FA01F54CEA050CEDE7C0F808C0A8
:101AA000B0BD000080B542F6D050C0F60000C0685E
:101AB000804710EE100AFEF7D7FB024641F20830CD
:101AC0000B46C2F2000002A100F0EEFC80BD00BF98
:101AD000566275735F56616C3D25302E34660D0A73
:101AE0000000000080B542F6D050C0F6000040680B
:101AF000804710EE100AFEF7B7FB024641F20830AD
:101B00000B46C2F2000002A100F0CEFC80BD00BF77
:101B1000437572725F56616C3D25302E34660D0A36
:101B20000000000080B542F6D050C0F60000806989
:101B30008047024641F20830C2F2000001A100F0E5
:101B4000B3FC80BD4469655F49443D30782530343D
:101B5000580D0A0080B542F6D050C0F6000040692A
:101B60008047024641F20830C2F2000001A100F0B5
:101B70009BFC80BD4D616E756661637475726572A4
:101B80005F49443D3078253034580D0A000000008C
:101B900080B542F6D050C0F6000080688047BDEEA8
:101BA000C00A41F2083010EE102AC2F2000002A171
:101BB00000F07AFC80BD00BF506F7765725F5661A0
:101BC0006C75653D3078253034580D0A00000000F2
:101BD00080B542F6D050C0F600000069804710EE94
:101BE000100AFEF741FB024641F208300B46C2F2F2
:101BF000000002A100F058FC80BD00BF7368756E44
:101C0000745F766F6C746167653D25302E34660DA8
:101C10000A00000080B542F6D050C0F6000080698E
:101C20008047024641F20830C2F2000001A100F0F4
:101C30003BFC80BD416C65727420697320556C6FEC
:101C4000636B3D3078253034580D0A00B0B540F64E
:101C5000024000F06BF940F6024000F067F94FF4E3
:101C6000406000F063F940F60004C4F2020420462C
:101C7000012100222023FFF7C7FE20460121002278
:101C80001023FFF7C1FEA4F50065284601210022BC
:101C90008023FFF7B9FE2046002102222023FFF710
:101CA000DDFE2046002102221023FFF7D7FE284642
:101CB000002102228023FFF7D1FE204620210122AD
:101CC000FFF796FE204610210122FFF791FE2846DD
:101CD00080210122FFF78CFEB0BD000080B50328F3
:101CE0000CD0022814D0012818BF80BD40F6000097
:101CF000C4F202002021FFF779FE80BD40F600000B
:101D0000C4F20200A0F500608021FFF76FFE80BDE5
:101D100040F60000C4F202001021FFF767FE80BD0C
:101D200010B5032814D0022824D0012818BF10BDF4
:101D300040F60004C4F2020420462021FFF75EFEB4
:101D4000C0F10100C2B220462021FFF751FE10BDB4
:101D500040F60000C4F20200A0F500642046802195
:101D6000FFF74CFEC0F10100C2B220468021FFF710
:101D70003FFE10BD40F60004C4F2020420461021CC
:101D8000FFF73CFEC0F10100C2B220461021FFF770
:101D90002FFE10BD00F0A2F9FFF79CFCFCE700004D
:101DA00080B541200021002200F002F880BD000033
:101DB00070B515464EF60C52CEF2000213680E4670
:101DC00003F4E061B1F5E06F044601D1042024E0A2
:101DD000106800F4E060B0F5C06F01D103201CE092
:101DE000106800F4E060B0F5A06F01D1022014E0AB
:101DF000106800F4E060B0F5806F01D101200CE0C4
:101E0000106800F4E060B0F5407F01D1002004E0EC
:101E10004FF4A06000F01EF8022006FA00F1C0F1B5
:101E200004000F2222FA00F0284008434EF200116D
:101E3000CEF20001000144EA010282F8000304F03E
:101E40001F00012202FA00F01C2202EAD4025050C4
:101E500070BD000040F080604EF60C5140F0FD7007
:101E6000CEF200010860704710B543F60402C4F2D8
:101E7000020253680146C3F3810342F20040022B81
:101E8000C0F2F40006D0012B1FD141F20020C0F2B5
:101E90007A001AE0D2F800C013680CF03F0CC3F3CC
:101EA000881E13681468C3F30143640241F20024DE
:101EB000C0F27A0458BF0446B4FBFCF4022000EBE5
:101EC000430004FB0EF3B3FBF0F05368D2F804C0F8
:101ED000526803290DD8C3F303130EA4E35C20FA60
:101EE00003F30FF2400EDFE801F01302060D18466F
:101EF00010BD002010BDCCF382201EF8000023FA94
:101F000000F010BDC2F342301EF8000023FA00F0CA
:101F100010BD00BF0000000000000000010203042B
:101F200006070809000000000102030443F600034D
:101F300000F01F018009C4F202034FF0010CC258E7
:101F40000CFA01F11143C1507047000043F6000341
:101F500000F01F018009C4F202034FF0010CC258C7
:101F60000CFA01F122EA0101C150704743F6000367
:101F700000F01F018009C4F202034FF0010CC258A7
:101F80000CFA01F11143C1507047000080B50028E0
:101F900041F60000C4F202004FF4005102D0FFF7F6
:101FA00023FD80BDFFF722FD80BD0000016841F0E8
:101FB000400101607047000070B50268D1E902E499
:101FC00002F4415CD1E90032D1E9045643EA0C0342
:101FD0001A4342EA0E02224389692A4332431143DB
:101FE0000160C16921F40061C16170BD43F6080060
:101FF000C4F2020050F8081C41F4803140F8081C7B
:102000004FF6FE7150F8083C4A1E8A4203D213F480
:1020100000311146F6D050F8081C890301D400BFE6
:10202000FEE7826B47F2000142F08052C4F20001E9
:1020300082630A6842F440420A60026802600268F1
:1020400042F400420260026842F4A052026047F685
:102050000802C0F6402240F8042C50F8082C42F048
:10206000807240F8082C00BF50F8082C9201FBD574
:102070000A6842F480320A604A68D203FCD50A68D2
:1020800042F400320A6000BF4A689203FCD501683E
:1020900021F003010160016841F00201016000BF0D
:1020A00001680907FCD5704780B5FFF79FFF80BD29
:1020B00080B540F21800C2F20000006844F6D35127
:1020C000C1F26201A0FB01018809FEF7D3FE00B155
:1020D000FEE70020FEF732FD80BD000070B5FFF77F
:1020E000E7FF42F6D051C0F6000140F20046C4F2CC
:1020F00002060C6806F54060CD69042108224023E1
:10210000A047FFF7A3FD4FF4E130FFF747FBFFF7D0
:10211000E3F8304640218022FFF704FC4FF4E13021
:10212000FEF716FDA847FEF7E5FC00F0B7F902A0A0
:1021300000F03CFE70BD00BF73797374656D20695B
:1021400073206F6B0D000000B0B5044647F2FF70BE
:10215000C4F200000D4684424FF000000EDC44F64D
:10216000FF31C4F200018C4217DC44F20041C4F29A
:1021700000018C421DD044F6000116E040F6FF71CC
:10218000C4F201018C422FDC47F60001C4F20001C9
:102190008C420ED047F6004107E044F60041C4F2FD
:1021A00000018C4205D045F20001C4F200018C42CE
:1021B00003D102210846FFF757FEE168090406D45F
:1021C00000EB5500B0FBF5F080B2A060B0BD400060
:1021D00000EB5500B0FBF5F04FF6F0710140C0F395
:1021E00042000844A060B0BD41F20001C4F2010108
:1021F0008C424FF00301DDD041F20042C4F20102F3
:102200009442D7D0D9E7000040686FF35F20704751
:102210006FF35F214160704710B547F2FF71C4F260
:102220000001884214DC44F6FF31C4F20001884208
:1022300023DC44F20041C4F2000188423CD044F661
:102240000001C4F20001884247D140F612043EE08A
:1022500040F6FF71C4F2010188421DDC47F600011F
:10226000C4F2000188422AD047F60041C4F20001BE
:10227000884232D140F61F0429E044F60041C4F2FE
:10228000000188421ED045F20001C4F200018842DC
:1022900023D140F614041AE041F20001C4F2010116
:1022A000884212D041F20041C4F20101884218BFB5
:1022B00010BD40F605140AE040F6110407E040F6B0
:1022C0001E0404E040F6130401E040F60414204626
:1022D000FFF74CFE2046FFF739FE10BDC16841F400
:1022E0000051C1607047000001F01F0289094FF0E2
:1022F000010C0B580CFA02F223EA02020A50704752
:102300008A09105801F01F01C84000F00100704711
:1023100001F01F0289094FF0010C0B580CFA02F270
:1023200023EA02020A50704701F01F0289094FF0A8
:10233000010C0B580CFA02F21A430A5070470000C5
:10234000C1F3891252F800C08A0D105801F01F0322
:10235000C1F30441C8402CFA03F1084000F0010029
:1023600070470000C26822F4C062C260C2681143B4
:10237000C1607047C26822F004021143C160704717
:10238000026922F4405202610269114301617047FF
:10239000C26822F008021143C1607047C26822F48B
:1023A0008052C260C2681143C160704710B540F6E8
:1023B0000540FFF7BBFD40F60540FFF7B7FD41F2D2
:1023C0000044C4F20204204605218022FFF7D4FA1B
:1023D000204605214FF48072FFF7CEFA20460521F2
:1023E0004FF40072FFF7C8FA204602210022802332
:1023F000FFF70AFB2046022100224FF48073FFF70B
:1024000003FB2046022100224FF40073FFF7FCFA81
:102410002046002102228023FFF720FB20460021D6
:1024200002224FF40073FFF719FB2046012100221E
:102430004023FFF7E9FA2046002102224023FFF75C
:102440000DFB00F021F810BD10B588B041F214105A
:10245000FFF76CFD4FF482710191032145F20004F6
:10246000002006914FF40071C4F201040290039021
:102470000790CDE9041001A92046FFF79DFD2046F5
:10248000FFF794FD08B010BD80B541F20040C4F2E2
:1024900002004021FFF7AAFA80BD000080B5FFF7D7
:1024A00085FFFFF7D1FF80BD0FB4084B10B504A91D
:1024B00002AA039800F0DEF8044602A9002000F00A
:1024C00070FC204610BC5DF814FB0000A32D000832
:1024D00002E008C8121F08C1002AFAD170477047ED
:1024E000002001E001C1121F002AFBD1704700004B
:1024F0002DE9FF5F82B00021DDE90430020DDDF837
:1025000040B0034318D044F61050A2F2FF324243C9
:102510001514119801281FD0A5EB0B00401C5FEA91
:10252000000A4FF000064E4FDFF83891B046504693
:1025300015D5CAF1000413E0119801244AA301281B
:1025400001D16FEA0B010298119AC0E90031C0E98C
:10255000024206B0BDE8F09FCBF10000DFE7044681
:102560000021404A491842EB0450CDE9001012E026
:10257000E00707D032463B4640464946FDF775FF27
:102580008046894632463B4610461946FDF76DFFA8
:1025900006460F466410002CEAD1DDE90401DDE9AE
:1025A0000023BAF1000F06DAFDF75FFF42464B4603
:1025B000FDF75BFF05E0FDF7CAFF42464B46FDF71E
:1025C000C6FF04460E460022284BFEF747F803D804
:1025D0004FF0FF30014607E00022254B20463146F0
:1025E000FDF79CFEFEF722F8102409E0002C0ADB20
:1025F0000A220023FDF761FE039B30321A55641E48
:1026000050EA0102F2D1641C039AC4F1110314448C
:10261000119A012A03D0012208430DD10AE0084390
:1026200004D000204FF0110B119072E7A3EB0B05C3
:102630006D1E0DE05B4504DD4FF0000205F1010564
:1026400004E003DA4FF00002A5F10105002AECD006
:1026500002981199C0E90231C0E9004579E700000C
:10266000000014400000F03F300000000000F04384
:102670000000E03F2DE9FF4F95B09B468946064696
:1026800000250FE2252877D100242746F84A0121AA
:10269000059400E0044316F8013F203B01FA03F0E3
:1026A0001042F7D130782A2811D06FF02F033078FC
:1026B000A0F13002092A16D8059A44F0020402EB70
:1026C000820203EB42021044761C0590EFE759F8B2
:1026D000042B0592002A03DA504244F4005405907A
:1026E00044F00204761C30782E2816D116F8010F1B
:1026F00044F004042A280DD06FF02F023078A0F1A6
:102700003003092B09D807EB870302EB4303C718F3
:10271000761CF3E759F8047B761C30786C280FD0D0
:1027200006DC4C2817D068280DD06A2814D104E0A4
:10273000742810D07A280FD10DE044F400140AE078
:1027400044F4801401E044F440147278824202D1CF
:1027500004F58014761C761C307866280BD013DCC8
:10276000582877D009DC002875D04528F6D04628AF
:10277000F4D047281AD19DE118E0632835D06428A9
:1027800079D0652812D195E1702873D008DC6728CC
:10279000F1D069286FD06E280DD06F2806D1B5E032
:1027A00073282CD0752875D0782874D05A4617997C
:1027B00090476D1C75E1C4F30250022809D003282C
:1027C0000DD0D9F8001004280DD00D6009F10409CE
:1027D00067E1D9F80010EA17C1E90052F6E7D9F825
:1027E00000100D80F2E70D70F0E719F8041B8DF86A
:1027F000001000208DF80100EA46012003E059F89E
:1028000004AB4FF0FF3061074FF0000102D40DE040
:1028100008F101018846B9420FDA8045F8DB1AF861
:1028200008100029F4D108E008F10101884681422E
:10283000FADB1AF808100029F6D105985B46A0EBE0
:10284000080721463846179A00F094FA284400EB0E
:10285000080507E04DE029E10DE01AF8010B5A46A2
:1028600017999047B8F10108F7D25B4621463846E0
:10287000179A13E142E00A220092C4F302524FF089
:10288000000A022A08D059F804CB032A4FEAEC7157
:102890000AD00DE029E02AE009F1070121F0070242
:1028A000F2E802C1914609E00FFA8CFC4FEAEC71A4
:1028B000042A03D14FFA8CFC4FEAEC71002907DAA5
:1028C0000A460021DCF1000C61EB02012D2202E03E
:1028D000220504D52B228DF80420012203E0E20713
:1028E00001D02022F7E7904659E00A2102E01022A9
:1028F0000DE010214FF0000A00910BE010224FF084
:10290000000A44F004040827009203E008224FF074
:10291000000A0092C4F30252022A05D059F804CBEF
:102920000021032A08D009E009F1070121F007027C
:10293000F2E802C1914605E01FFA8CFC042A01D19D
:102940000CF0FF0C4FF00008220728D5702806D0A5
:10295000009B83F0100353EA0A0305D00EE04022E7
:102960008DF80420012208E05CEA010206D0302242
:102970008DF804208DF8050002229046009B83F01C
:10298000080353EA0A030AD15CEA010201D1620793
:1029900005D530228DF804204FF001087F1E5828FD
:1029A00004D034A003900EA802900DE036A0F9E701
:1029B00053466046009AFDF780FC84460398825C8B
:1029C0000298401E029002705CEA0100F0D1029869
:1029D00006A9081A00F1200A600702D524F4803401
:1029E00000E00127574502DDA7EB0A0000E00020C8
:1029F00000EB0A01009005984144401A0590E0035D
:102A000006D45B462146179A059800F0B3F90544B1
:102A1000002706E001A85A46C05D179990476D1C33
:102A20007F1C4745F6DBE0030CD55B462146179A31
:102A3000059800F09FF9054404E030205A461799A4
:102A400090476D1C0099481E00900029F5DC08E0B5
:102A5000029802995A460078491C029117999047AA
:102A60006D1CBAF10001AAF1010AF1DC65E1000078
:102A70000928010030313233343536373839616254
:102A80006364656600000000303132333435363718
:102A900038394142434445460000000000F058F9EF
:102AA0000544761C307800287FF4ECAD19B0284638
:102AB000BDE8F08F620700D4062709F1070222F073
:102AC000070CFCE80223E14603F000485FEA080C2B
:102AD00002D00FF2702C0DE05FEA045C02D50FF219
:102AE000682C07E05FEAC47C02D00FF2602C01E0A2
:102AF000AFF2700C4FF0FF3823F00043CDF850C018
:102B000065280CD006DC452809D046281DD047286A
:102B10003DD13DE0662818D067287ED138E00021FD
:102B2000112F01DB112000E0781CCDE9000106A97E
:102B30000EA8FFF7DDFCDDE90F010E9A03910021DD
:102B4000009207F1010A04914DE04FF00040009718
:102B5000CDE9011006A90EA8FFF7CAFCDDE90F02B6
:102B600003920E9B11990022DDF80CA000930492B1
:102B700011B9791C00EB010AB7EB0A0004D4C0F1CB
:102B8000FF3007F1010A0490AAEB0700019044E02E
:102B9000012F00DA01270021112F01DD112000E0B3
:102BA0003846CDE9000106A90EA8FFF7A1FCDDE932
:102BB0000F010E9A0391002104910092BA46210759
:102BC0000CD40399514500DA8A46BAF1010F05DDAC
:102BD000009AAAF10101515C302908D0B84202DA0A
:102BE00010F1040F06DA0121CDE9011015E0AAF178
:102BF0000101E9E7002805DC049901440491AAEBEE
:102C0000000102E0411C514500DD8A460499401A4A
:102C1000401C01904FF000400290200704D401981E
:102C2000504501DBCDF8048000208DF84F0002985C
:102C30000DF14F07B0F1004F25D02B200E900298D8
:102C40004FF0020800280CDA404202902D200E902E
:102C500007E00A210298FDF71AFB3031029007F8CD
:102C6000011DB8F10001A8F10108F2DC029800286A
:102C7000EFD1791E0E980870307800F0200040F0F7
:102C8000450007F8020D12A8C01B00F107081498B0
:102C9000007800B1012000EB0A01019801EBE0711E
:102CA00005984144401A401E0590E00306D45B4657
:102CB0002146179A059800F05DF8054414980078AD
:102CC00018B15A46179990476D1CE00324D55B460E
:102CD0002146179A059800F04DF805441CE0049829
:102CE000002807DBDDE90301884203DD0098405C32
:102CF000179901E0179930205A469047049805F13A
:102D00000105401C04900198401E019004D12E2022
:102D10005A46179990476D1CBAF10001AAF1010AB1
:102D2000DDDC05E017F8010B5A46179990476D1C3A
:102D3000B8F10001A8F10108F4DC5B462146179ABE
:102D40000598ABE62D0000002B00000020000000DD
:102D50002DE9F041044600251E461746880404D498
:102D600005E039462020B0476D1C641EF9D5284681
:102D7000BDE8F0812DE9F041044600251E4690464D
:102D8000C80301D5302700E02027880404D505E0DA
:102D900041463846B0476D1C641EF9D52846BDE84B
:102DA000F0810A68531C0B601070704710B5044620
:102DB00001E0FEF7C9FD14F8010B04490028F8D121
:102DC000BDE810400A20FEF7BFBD00000000002053
:102DD000B10900081909000861090008F108000894
:102DE0008D0900085509000849090008050A00086E
:102DF0004B2E0008A51A00087D2E0008E51A0008D1
:102E00005D2E0008D11B0008712E0008911B0008E0
:102E10008B2E0008151C0008352E0008551B0008D5
:102E2000282E0008251B00086765745F6469655FCC
:102E300069640D0A006765745F6D616E7566616334
:102E400074757265725F69640D0A006765745F620C
:102E500075735F766F6C746167650D0A00676574E2
:102E60005F7368756E745F766F6C746167650D0A69
:102E7000006765745F706F7765720D0A006765742F
:102E80005F63757272656E740D0A00756C6F636BAB
:102E90005F616C6572740D0A00000000C02E0008AE
:102EA0000000002020000000D0240008E02E0008D0
:102EB0002000002010170000E0240008000000009F
:102EC00000000000400004000403030701800380A9
:102ED000D007EC030000803F001C4E0E00000000F5
:04000005080001AD41
:00000001FF
