:020000040800F2
:10000000F0120020C1010008B50200086D020008CE
:10001000B102000865020008150700080000000092
:10002000000000000000000000000000CD020008F9
:100030006902000800000000C9020008FD02000873
:10004000DB010008DB010008DB010008DB01000820
:10005000DB010008DB010008DB010008DB01000810
:10006000DB010008DB010008DB010008DB01000800
:10007000DB010008DB010008DB010008DB010008F0
:10008000DB010008DB010008DB010008DB010008E0
:10009000DB010008DB010008DB010008DB010008D0
:1000A000DB010008DB010008DB010008DB010008C0
:1000B000DB010008DB010008DB010008DB010008B0
:1000C000DB010008DB010008DB010008DB010008A0
:1000D000DB010008C103000865050008DB0100081A
:1000E000DB010008DB010008DB010008DB01000880
:1000F000DB010008DB010008DB010008DB01000870
:10010000DB010008DB010008DB010008DB0100085F
:10011000DB010008DB010008DB010008DB0100084F
:10012000DB010008DB010008DB010008DB0100083F
:10013000DB010008DB010008DB010008DB0100082F
:10014000DB010008DB010008DB010008DB0100081F
:10015000DB010008DB010008DB010008DB0100080F
:10016000DB010008DB010008DB010008DB010008FF
:10017000DB010008DB010008DB01000800000000D3
:10018000DB010008DB010008DB010008DB010008DF
:10019000DB010008DB010008DB01000800000000B3
:1001A000DB010008DB010008DB010008DFF80CD0F0
:1001B00000F046F800480047E50D0008F012002066
:1001C0000648804706480047FEE7FEE7FEE7FEE7F1
:1001D000FEE7FEE7FEE7FEE7FEE7FEE705030008B1
:1001E000AD01000840EA01039B0703D009E008C9FC
:1001F000121F08C0042AFAD203E011F8013B00F8EC
:10020000013B521EF9D27047D2B201E000F8012B37
:10021000491EFBD270470022F6E710B513460A4686
:1002200004461946FFF7F0FF204610BDCBB203E0AD
:100230000178994203D0401C521EF9D20020704729
:10024000064C074D06E0E06840F0010394E8070023
:1002500098471034AC42F6D3FFF7ACFFE810000823
:1002600008110008FEE7000070470000FEE70000EC
:1002700080B500F001F880BD10B54FF4406000F08B
:100280003BFE40F6024000F037FE0024C4F20204B8
:10029000204600210222012300F0A0FC04F50060AA
:1002A000002101224FF4005300F098FC10BD000023
:1002B000FEE70000704700004EF623510001CEF229
:1002C0000001087070470000704700007047000090
:1002D000B0B501380024B4EB106F1CBF0120B0BDD5
:1002E0004EF21005CEF2000568600F20FFF7E4FF24
:1002F0000720AC6028602046B0BD000080B500F04B
:100300000FFC80BD80B582B04EF68851CEF2000160
:100310000A6843F6080042F47002C4F202000A6060
:1003200050F8081C4FF0000C41F0010140F8081C87
:1003300001684CF24F3241F080010160CDF804C0F9
:10034000019B934208D84CF2503300BF0199013110
:10035000019101999942F9D3016841F0900101603E
:10036000CDF804C00199914208D84CF2503100BF39
:10037000019A01320192019A8A42F9D301684FF63B
:10038000FF7221F00301016050F8081CCFF6F662FD
:10039000114040F8081C50F8081C21F4802140F856
:1003A000081C00210160026843F21002C2F2004200
:1003B00040F8042C416000F03DFE02B080BD00001A
:1003C0002DE9F04381B041F2000440F20055C4F23F
:1003D0000104C0F2010505F50031204600F064FE7D
:1003E00080B92046294600F05FFE58B905F58031F6
:1003F000204600F059FE28B920464FF4427100F023
:1004000053FEB0B12046032100F036FE204600F036
:100410002BFE40F6E040C2F20000FA21FFF7FBFE9F
:1004200040F6DA50C2F200000021017001B0BDE8D0
:10043000F08340F20439C0F2040909F101112046A9
:1004400000F032FE012811D140F6DA55C2F2000563
:100450002E78204600F008FEF82E07D829784A1C8E
:100460002A7040F6E042C2F200025054204649464B
:1004700000F01AFE012835D1204600F0F5FD40F6C7
:10048000DA58C2F2000898F800600EB340F6E04077
:10049000C2F2000040F60A513246FFF7C7FEB8B17B
:1004A00040F28A050027C2F20005E85D20B1FC3762
:1004B000B7F57C7FF9D10BE0E81940F6E0414670D2
:1004C0000230C2F200013246FFF78CFE0120E855EF
:1004D00040F6E040C2F20000FA21FFF79CFE002047
:1004E00088F8000009F10311204600F0DDFD012825
:1004F0001AD140F20800C2F20000017879B940F642
:10050000DC42C2F2000211784378994207D20844D3
:100510004B1C81782046137000F0AAFD04E02046B1
:1005200040F2073100F0B4FD09F10211204600F05D
:10053000BBFD012813D1204640F2063100F0A8FD92
:1005400040F20800C2F200000121017040F6DC40D8
:10055000C2F2000000210170012000F0C5FB01B0D3
:10056000BDE8F0832DE9F04144F2004440F200552B
:10057000C4F20004C0F2010505F50031204600F088
:1005800093FD80B92046294600F08EFD58B905F547
:100590008031204600F088FD28B920464FF4427192
:1005A00000F082FDA8B12046032100F065FD204641
:1005B00000F05AFD40F6DC50C2F20000FA21FFF7CD
:1005C0002AFE40F6D660C2F2000000210170BDE8AC
:1005D000F08140F20435C0F2040505F10111204616
:1005E00000F062FD012811D140F6D666C2F2000685
:1005F0003778204600F038FDF82F07D831784A1CAC
:10060000327040F6DC52C2F20002505420462946B5
:1006100000F04AFD012838D1204600F025FD40F6C3
:10062000D668C2F2000898F8002022B340F6DC50E9
:10063000C2F2000040F60A51FFF7F8FDD8B140F2CF
:10064000FC460027C2F20006F05D20B1FC37B7F58A
:10065000FC6FF9D10FE0022000F08AFB98F800202F
:10066000F01940F6DC5142700230C2F20001FFF78F
:10067000B9FD0120F05540F6DC50C2F20000FA212D
:10068000FFF7C9FD002088F8000005F1031120469E
:1006900000F00AFD01281AD140F27A40C2F20000AF
:1006A000017879B940F6DB52C2F200021178437842
:1006B000994207D208444B1C81782046137000F001
:1006C000D7FC04E0204640F2073100F0E1FC05F1E0
:1006D0000211204600F0E8FC012818BFBDE8F081B7
:1006E000204640F2063100F0D3FC40F27A40C2F2DC
:1006F00000000121017040F6DB50C2F20000002131
:100700000170002000F028FC022000F0EDFABDE8A6
:10071000F0810000FEE7000080B500F079F800F0FD
:1007200079F900F085FB46F20040C4F20000102188
:1007300000F018F980BD000010B546F20041C4F287
:10074000000140F61A04884208BF40F6190420460A
:1007500000F0F2FB204600F0DFFB10BDB0B546F222
:100760000061C4F2000144890A684FF0010C42F0B4
:1007700001020A60CB690CFA04F5AB43CB61C38973
:100780006FEA050C012B10D023BBCB6803EA0C03E6
:10079000CB60B0F806E0438843EA0E434FEAC40E4C
:1007A00001EBC404236403460DE0CB682B43CB600C
:1007B000B0F800E0438843EA0E434FEAC40E01EB71
:1007C000C4042364831D84881B8843EA044301EB2B
:1007D0000E04636483894C68002B44EA050208BF59
:1007E00004EA0C024A6002894B69002A43EA0504C4
:1007F00008BF03EA0C044C61007C012802D1C869DF
:100800002843C861086820F001000860B0BD0000FE
:1008100010B540F6014000F06FFB41F2190000F006
:100820006BFB40F20044C4F2020420460021022285
:100830004FF4807300F0FCF92046022100224FF4AF
:10084000807300F0CBF9204609214FF4807200F04C
:100850007DF92046002102224FF4007300F0E8F9F0
:100860002046022100224FF4007300F0B7F9204621
:1008700009214FF4007200F069F910BD10B502684B
:1008800040F2010C22F0020202600268CFF6FF7C07
:1008900042F0010263460260426823B112F0010295
:1008A00003F10103F8D04268D20704BF002010BD55
:1008B0000A784B7891F802E0CC78920763F31962DA
:1008C0000EF00F0342EA034204F007034C8942EAA8
:1008D0000352631E6FF39F231A44C2610A790368AF
:1008E000012A23F0800308BF803303604A7903683C
:1008F000012A23F0400308BF403303608A7903686C
:10090000012A23F0200308BF20330360CA7903685B
:10091000002A23F0100308BF103303600A7A03682B
:10092000002A23F0080308BF08330360497A0268ED
:10093000012922F0040208BF04320260016821F09C
:100940000101016042686146BCF1000F04D012F061
:10095000010201F1010CF5D1002918BF012108465F
:1009600010BD0000426911434161704770B50546F2
:10097000806840010ED4A86800014FF001000CD43B
:10098000AA6812F0805280EA12734FF0020008BF8A
:10099000032003E00023002000E00023002B1CBF05
:1009A000032070BD05EB0013D3F880214FEA001C33
:1009B00002F00102C3F880210A7A1AB14C6842EAB7
:1009C000C40E02E00A684FEA425E4A7A8C7AD3F893
:1009D000806142EA0E023243C3F880210CEB05022B
:1009E000D2F8846126F00F06C2F88461D2F88461DF
:1009F0002643C2F88461D1F80B60C2F88861D1F84F
:100A00000F10C2F88C11D3F8801141F00101C3F826
:100A1000801170BD2DE9F04188B005AC0020214661
:100A20004FF0000800F028F86D4601202946012704
:100A300000F022F846F20046C4F200063046FFF706
:100A40007BFE4FF0012006904FF4A02007904FF05E
:100A50008370059030462146FFF710FF4FF4803039
:100A6000CDE902702846CDE900888DF81070FFF7B7
:100A700075FE08B0BDE8F08103280FD8DFE800F06C
:100A8000020F181E0120C0F2FF3088604FF0807006
:100A900048604FF400300860704700BFFEE7002058
:100AA0004FF480320874CA600860486088607047FC
:100AB0000020C1F80F00C1F80B0005E00020C1F8CC
:100AC0000F00C1F80B00C874C1E90000C1F80700AD
:100AD0007047000010B3082988BF704780B540F602
:100AE000DC62C2F2000200231381C2E9003391727A
:100AF00041B10A32013800BF10F8013F013902F854
:100B0000013FF9D140F6DC6146F20040C2F200013B
:100B1000C4F20000FFF72AFFBDE8804070470000E4
:100B200040F6D860C2F200000168002908BF704793
:100B3000016801390160704740F6D861C2F20001D6
:100B4000086000BF08680028FCD17047F0B5D0F8F5
:100B500020E0D0F824C000230F27002505E000BFC7
:100B60000135082D03F104030CD022FA05F6F6072F
:100B7000F6D007FA03F62EEA060601FA03F446EA6F
:100B8000040EEDE7082300240F2504E00133102BA9
:100B900004F104040CD022FA03F6F607F6D005FAA5
:100BA00004F62CEA060701FA04F647EA060CEDE71C
:100BB000C0F820E0C0F824C0F0BD0000816270479A
:100BC000816170471823002A08BF282319507047F5
:100BD0000069084018BF0120704700002DE9F0416E
:100BE000D0F800E0D0F80CC000244FF00308002635
:100BF00005E000BF0136102E04F1020412D023FAE2
:100C000006F7FF07F6D008FA04F72EEA070E01FAF6
:100C100004F54EEA050E2CEA070702FA04F547EA46
:100C2000050CE7E7C0F800E0C0F80CC0BDE8F081B3
:100C3000B0B50129416814BF994319434160D0F808
:100C400008C000214FF0030E002404E00134102CF2
:100C500001F102010CD023FA04F5ED07F6D00EFAEB
:100C600001F52CEA050C02FA01F54CEA050CEDE75A
:100C7000C0F808C0B0BD0000B0B540F6024000F0BA
:100C80003BF940F6024000F037F94FF4406000F0C5
:100C900033F940F60004C4F2020420460121002288
:100CA0002023FFF79BFF2046012100221023FFF79E
:100CB00095FFA4F500652846012100228023FFF757
:100CC0008DFF2046002102222023FFF7B1FF20469E
:100CD000002102221023FFF7ABFF28460021022249
:100CE0008023FFF7A5FFB0BD80B503280CD00228F4
:100CF00014D0012818BF80BD40F60000C4F20200E5
:100D00002021FFF75DFF80BD40F60000C4F2020025
:100D1000A0F500608021FFF753FF80BD40F6000082
:100D2000C4F202001021FFF74BFF80BD80B50328FD
:100D30000CD0022814D0012818BF80BD40F6000056
:100D4000C4F202002021FFF739FF80BD40F6000009
:100D5000C4F20200A0F500608021FFF72FFF80BDE4
:100D600040F60000C4F202001021FFF727FF80BD0B
:100D700010B5032814D0022824D0012818BF10BDB4
:100D800040F60004C4F2020420462021FFF720FFB1
:100D9000C0F10100C2B220462021FFF713FF10BDB1
:100DA00040F60000C4F20200A0F500642046802155
:100DB000FFF70EFFC0F10100C2B220468021FFF70D
:100DC00001FF10BD40F60004C4F2020420461021C9
:100DD000FFF7FEFEC0F10100C2B220461021FFF76E
:100DE000F1FE10BD82B000F029F9FFF745FFFFF7D3
:100DF00093FCFFF73DFA40F20450C0F206700190F8
:100E000040F20010C0F202306C4600900120FFF763
:100E10006BFF20460121FFF75DFE6420FFF78CFE8B
:100E20000120FFF783FF6420FFF786FEEEE7000056
:100E300080B515200021002200F002F880BD0000DE
:100E400070B515464EF60C52CEF2000213680E46EF
:100E500003F4E061B1F5E06F044601D1042024E021
:100E6000106800F4E060B0F5C06F01D103201CE011
:100E7000106800F4E060B0F5A06F01D1022014E02A
:100E8000106800F4E060B0F5806F01D101200CE043
:100E9000106800F4E060B0F5407F01D1002004E06C
:100EA0004FF4A06000F01EF8022006FA00F1C0F135
:100EB00004000F2222FA00F0284008434EF20011ED
:100EC000CEF20001000144EA010282F8000304F0BE
:100ED0001F00012202FA00F01C2202EAD402505044
:100EE00070BD000040F080604EF60C5140F0FD7087
:100EF000CEF200010860704743F6000300F01F01C6
:100F00008009C4F202034FF0010CC2580CFA01F13F
:100F10001143C1507047000043F6000300F01F0169
:100F20008009C4F202034FF0010CC2580CFA01F11F
:100F300022EA0101C150704743F6000300F01F018F
:100F40008009C4F202034FF0010CC2580CFA01F1FF
:100F50001143C1507047000080B5002841F60000E1
:100F6000C4F202004FF4005102D0FFF727FE80BD0B
:100F7000FFF726FE80BD000043F60800C4F2020021
:100F800050F8081C41F4803140F8081C4FF6FE71FF
:100F900050F8083C4A1E8A4203D213F4003111462D
:100FA000F6D050F8081C890301D400BFFEE7826B1D
:100FB00047F2000142F08052C4F2000182630A68E5
:100FC00042F440420A6002680260026842F4004251
:100FD0000260026842F4A052026047F60802C0F6BE
:100FE000402240F8042C50F8082C42F0807240F85F
:100FF000082C00BF50F8082C9201FBD50A6842F477
:1010000080320A604A68D203FCD50A6842F4003292
:101010000A6000BF4A689203FCD5016821F0030111
:101020000160016841F00201016000BF0168090729
:10103000FCD5704780B5FFF79FFF80BD80B540F2BB
:101040000000C2F20000006844F6D351C1F2620110
:10105000A0FB01018809FFF73BF900B1FEE7002082
:10106000FFF72AF980BD000040686FF35F207047EA
:101070006FF35F214160704701F01F0289094FF053
:10108000010C0B580CFA02F223EA02020A507047D4
:1010900001F01F0289094FF0010C0B580CFA02F203
:1010A00023EA02020A507047C1F3891252F800C0C5
:1010B0008A0D105801F01F03C1F30441C8402CFAF7
:1010C00003F1084000F00100704702E008C8121F59
:1010D00008C1002AFAD170477047002001E001C121
:1010E000121F002AFBD170470811000800000020E1
:1010F00008000000CA1000081011000808000020B5
:10110000E8120000DA100008001C4E0E000000007B
:04000005080001AD41
:00000001FF
