S3150800000018130020C1010008A105000831030008E3
S315080000109D05000865020008BD0F000800000000E5
S31508000020000000000000000000000000A50600080F
S315080000302D03000800000000A50500089D0900081A
S31508000040DB010008DB010008DB010008DB01000812
S31508000050DB010008DB010008DB010008DB01000802
S31508000060DB010008DB010008DB010008DB010008F2
S31508000070DB010008DB010008DB010008DB010008E2
S31508000080DB010008DB010008DB010008DB010008D2
S31508000090DB010008DB010008DB010008DB010008C2
S315080000A0DB010008DB010008DB010008DB010008B2
S315080000B0DB010008DB010008DB010008DB010008A2
S315080000C0DB010008DB010008DB010008DB01000892
S315080000D0DB010008C90B0008910D0008DB010008C8
S315080000E0DB010008DB010008DB010008DB01000872
S315080000F0DB010008DB010008DB010008DB01000862
S31508000100DB010008DB010008DB010008DB01000851
S31508000110DB010008DB010008DB010008DB01000841
S31508000120DB010008DB010008DB010008DB01000831
S31508000130DB010008DB010008DB010008DB01000821
S31508000140DB01000869020008DB010008DB01000882
S31508000150DB010008DB010008DB010008DB01000801
S31508000160DB010008DB010008DB010008DB010008F1
S31508000170DB010008DB010008DB01000800000000C5
S31508000180DB010008DB010008DB010008DB010008D1
S31508000190DB010008DB010008DB01000800000000A5
S315080001A0DB010008DB010008DB010008DFF80CD0E2
S315080001B000F046F800480047151A000818130020F2
S315080001C00648804706480047FEE7FEE7FEE7FEE7E3
S315080001D0FEE7FEE7FEE7FEE7FEE7FEE7A109000801
S315080001E0AD01000840EA01039B0703D009E008C9EE
S315080001F0121F08C0042AFAD203E011F8013B00F8DE
S31508000200013B521EF9D27047D2B201E000F8012B29
S31508000210491EFBD270470022F6E710B513460A4678
S3150800022004461946FFF7F0FF204610BDCBB203E09F
S315080002300178994203D0401C521EF9D2002070471B
S31508000240064C074D06E0E06840F0010394E8070015
S3150800025098471034AC42F6D3FFF7ACFF24210008C8
S3150800026044210008FEE7000070B546F60004842520
S31508000270C4F20004C0F201052046294601F03EF802
S31508000280012822D105F182062046314601F036F8CA
S31508000290012806D12046314601F028F815A001F0BC
S315080002A01BFF20464FF4C06100F088FF012802D1E9
S315080002B015A001F011FF2046294601F017F840F66F
S315080002C01070C2F200000121017048F28A05C0F2DE
S315080002D001052046294601F011F8012818BF70BD0E
S315080002E02046294601F002F80CA0BDE8704001F04E
S315080002F0F3BE00BF43414E204649464F31206F7634
S315080003006572666C6F77210043414E207761726E85
S31508000310696E67206572726F7221000043414E2034
S31508000320627573206F666621000000007047000042
S31508000330FEE7000080B5022000F0A0F800EE100AE3
S31508000340B8EE400AB7EE041A9FED032A20EE010A1A
S3150800035080EE020A80BD00BF00007A4480B5042002
S3150800036000F08CF800B200EE100A40F20400C2F267
S31508000370000090ED041AB8EEC00A9FED032A21EE9C
S31508000380000A80EE020A80BD00007A44FF2000F0D1
S3150800039075B80000FE2000F071B8000080B5032093
S315080003A000F06CF800B200EE100A40F20400C2F247
S315080003B0000090ED041AB3EE092AB8EEC00A21EE41
S315080003C0021A21EE000A80BD80B5012000F056F819
S315080003D000B2013000EE100A9FED031AB8EEC00A0B
S315080003E020EE010A80BD00BF0AD7233BB0B582B014
S315080003F09C4613460A46014640F29440C2F2000063
S31508000400CDF800C000F050F940F20404C2F200042E
S31508000410A078E17822790003637940EAC13040EA9E
S315080004204220A179E27940EA831040EAC10040EA15
S31508000430020540F6064001F0D1FB41F60000C4F281
S315080004400200002101224FF4804301F0F9F8A9B215
S31508000450002000F055F8E189052000F051F82189BF
S31508000460062000F04DF8A189072002B0BDE8B0408B
S3150800047000F046B8062000F001B8000070B540F25A
S315080004809444C2F200040546204600F0FBF940F207
S315080004900406C2F2000630784000C1B2204600F0D9
S315080004A04FFA204600F096F92046294600F048FA09
S315080004B0204600F08FF9204600F0E4F93078400035
S315080004C00130C1B2204600F03BFA204600F082F91E
S315080004D0204600F0A3F940F2A045C2F200052860C4
S315080004E02046002100F00EFA2E68204600F096F904
S315080004F040EA06202860204600F0E8F9288870BD02
S3150800050070B540F29444C2F20004064620460D46F1
S3150800051000F0B8F940F20400C2F20000007840008A
S31508000520C1B2204600F00CFA204600F053F92046E6
S31508000530314600F005FA204600F04CF9290A204613
S3150800054000F0FEF9204600F045F9E9B2204600F031
S31508000550F7F9204600F03EF92046BDE8704000F065
S31508000560B5B9000010B54FF4406001F037FB40F60E
S31508000570024001F033FB0024C4F2020420460021A5
S315080005800222012301F05CF804F500600021012233
S315080005904FF40053BDE8104001F052B8FEE70000E2
S315080005A0704700007047000070B505464FF440607C
S315080005B001F014FB4FF4406001F010FB41F211000A
S315080005C001F00CFB44F20044C4F2000404F5DE36E4
S315080005D030460721042200F0BDFF304607210822D5
S315080005E000F0B8FF304602210122042301F028F862
S315080005F0304602210122082301F022F83046002164
S315080006000222042301F0D8F83046002102220823EA
S3150800061001F0D2F8204601F017FC2046294601F0E1
S31508000620ABFB2046002101F0B7FC2046002101F073
S31508000630CFFC2046002101F0BDFC26200021012226
S3150800064001F018FA2046082101F0BCFC20460421D6
S3150800065001F0AAFC204640F2053101F07FFC204655
S315080006604FF4417101F07AFC204601F051FC40F646
S31508000670064001F0B3FA04F5EA34204601210022C7
S315080006804FF4005300F0DCFF2046002102224FF40D
S31508000690005301F091F820464FF40051BDE8704030
S315080006A000F0C0BF7047000010B5044602982160EC
S315080006B001F13E4101F1FF714FEAB1210829A280FB
S315080006C0E380208123D800EB81024FF44060DFE805
S315080006D001F01C05080B0E1114171A0040F601400C
S315080006E013E040F6024010E040F603400DE040F605
S315080006F004400AE040F6054007E040F6064004E0FC
S3150800070040F6074001E040F6084001F067FA206825
S31508000710A3880121012200F093FF2068E3880121C4
S31508000720012200F08DFF2068A3880121022201F032
S3150800073043F82068E3880121022201F03DF8206889
S31508000740A188012200F070FF0A2000F0BBFE206895
S31508000750E188012200F068FF0A2000F0B3FE206855
S31508000760E188012200F060FF0A2000F0ABFE206855
S31508000770A188012200F058FF0A2000F0A3FE206895
S31508000780E188002200F050FF0A2000F09BFE206856
S31508000790A188002200F048FF0A2000F093FE206896
S315080007A0E188002200F040FF0A2000F08BFE206856
S315080007B0A188012200F038FF0A2000F083FE206895
S315080007C0E188012200F030FF0A20BDE8104000F061
S315080007D079BE0000B0B504460068E188012200F041
S315080007E023FF0A2000F06EFE2068A188012200F08F
S315080007F01BFF0A2000F066FE2068E18800F01AFF59
S3150800080005460A2000F05EFE2068A188002200F056
S315080008100BFF0A2000F056FE2846B0BD2DE9F04130
S3150800082004460068E188012200F0FEFE0A2000F076
S3150800083049FE00264FF08008002700BF2068A188DF
S31508000840012200F0F1FE0A2000F03CFE2068E18853
S3150800085000F0F0FE05460A2000F034FE28FA06F2FB
S315080008602068A188012D08BF1743002200F0DCFE8E
S315080008700A2000F027FE0136082EDFD1F8B2BDE8BF
S31508000880F081000010B504460068E188012200F0F6
S31508000890CBFE0A2000F016FE2068A188012200F08F
S315080008A0C3FE0A2000F00EFE2068E188002200F050
S315080008B0BBFE0A2000F006FE2068A188002200F090
S315080008C0B3FE0A20BDE8104000F0FCBD10B5044692
S315080008D00068E188002200F0A7FE0A2000F0F2FD79
S315080008E02068A188012200F09FFE0A2000F0EAFD98
S315080008F02068E188012200F097FE0A20BDE8104032
S3150800090000F0E0BD10B50446E28800680B461146C3
S315080009101A4600F089FE0A2000F0D4FD2068A18856
S31508000920012200F081FE0A2000F0CCFD2068A18893
S31508000930002200F079FE0A20BDE8104000F0C2BD92
S31508000940F0B581B00C4605460026802727FA06F240
S315080009502868E988224000F067FE0A2000F0B2FD08
S31508000960022000F0AFFD2868A988012200F05CFE8D
S315080009700A2000F0A7FD022000F0A4FD2868A98837
S31508000980002200F051FE0A2000F09CFD022000F033
S3150800099099FD0136082ED9D101B0F0BD00F074BD1D
S315080009A081B04EF68851CEF200010A6843F6080077
S315080009B042F47002C4F202000A6050F8081C4FF0B4
S315080009C0000C41F0010140F8081C01684CF24F3256
S315080009D041F080010160CDF800C0009B934219D810
S315080009E04CF250330099013100910099994211D285
S315080009F0009901310091009991420BD80099013173
S31508000A0000910099914205D8009901310091009909
S31508000A109942E7D3016841F090010160CDF800C022
S31508000A20009991421CD84CF250314CF24F3200BF1B
S31508000A30009B01330093009B8B4211D2009B01332C
S31508000A400093009B93420BD8009B01330093009BB5
S31508000A50934205D8009B01330093009B8B42E7D352
S31508000A6001684FF6FF7221F00301016050F8081C77
S31508000A70CFF6F662114040F8081C50F8081C21F41D
S31508000A80802140F8081C00210160026843F2100228
S31508000A90C2F2004240F8042C416050F8081C41F4A8
S31508000AA0803140F8081C4FF6FC7100BF50F8082C3E
S31508000AB092035CBF50F8082C5FEA82320AD450F8D9
S31508000AC0082C39B112F4003204D150F8082C043934
S31508000AD09203EBD550F8081C890300D4FEE7826B15
S31508000AE047F2040142F08052C4F20001826351F8D1
S31508000AF0042C42F4404241F8042C02680260026861
S31508000B0042F400420260026842F4A052026047F6CC
S31508000B100802C0F6402240F8042C50F8082C42F08F
S31508000B20807240F8082C00BF50F8082C92015FBF6D
S31508000B3050F8082C5FEA821250F8082C5FEA8212F5
S31508000B4003D450F8082C9201EED551F8042C42F43F
S31508000B50803241F8042C00BF0A68D2035FBF0A68D6
S31508000B605FEAC2320A685FEAC23202D40A68D2036E
S31508000B70F2D551F8042C42F4003241F8042C00BF97
S31508000B800A6892035FBF0A685FEA82320A685FEA08
S31508000B90823202D40A689203F2D5016821F0030171
S31508000BA00160016841F0020101600168090709D482
S31508000BB0016809075CBF01685FEA017102D4016830
S31508000BC00907F2D501B070472DE9F04141F200045A
S31508000BD040F20055C4F20104C0F2010505F50031E2
S31508000BE0204601F0C7F980B92046294601F0C2F926
S31508000BF058B905F58031204601F0BCF928B92046D8
S31508000C004FF4427101F0B6F9A8B12046032101F06C
S31508000C1085F9204601F010F940F60850C2F20000A6
S31508000C20FA21FFF7F8FA40F60260C2F20000002146
S31508000C300170BDE8F08140F20435C0F2040505F103
S31508000C400111204601F096F9012811D140F60266F5
S31508000C50C2F200063778204601F0EEF8F82F07D8DA
S31508000C6031784A1C327040F60852C2F200025054DB
S31508000C702046294601F07EF9012848D1204601F090
S31508000C80DBF840F60268C2F2000898F80060A6B3DE
S31508000C9040F60850C2F2000040F60A513246FFF705
S31508000CA0C5FA50B340F2A200C2F20000017869B159
S31508000CB0074617F8FC1F61B190F8F81159B190F87A
S31508000CC0F412D1B900F53D77032107E00021074664
S31508000CD004E0012102E000F5FC770221C1EB811155
S31508000CE000EB810040F6085146700230C2F200015E
S31508000CF03246FFF777FA0120387040F60850C2F2FC
S31508000D000000FA21FFF787FA002088F8000005F1AD
S31508000D100311204601F02EF901281AD140F22000CD
S31508000D20C2F20000017879B940F60652C2F2000212
S31508000D3011784378994207D208444B1C817820469B
S31508000D40137001F07DF804E0204640F2073101F007
S31508000D50F9F805F10211204601F00CF9012818BF2F
S31508000D60BDE8F081204640F2063101F0EBF840F28A
S31508000D702000C2F200000121017040F60651C2F2BD
S31508000D800001002201200A70BDE8F04100F0E6BD2E
S31508000D902DE9F04381B044F2004440F20055C4F214
S31508000DA00004C0F2010505F50031204601F0E2F81D
S31508000DB080B92046294601F0DDF858B905F5803195
S31508000DC0204601F0D7F828B920464FF4427101F0C1
S31508000DD0D1F8B0B12046032101F0A0F8204601F071
S31508000DE02BF840F60460C2F20000FA21FFF713FA66
S31508000DF040F6FE60C2F200000021017001B0BDE8B5
S31508000E00F08340F20435C0F2040505F101112046CD
S31508000E1001F0B0F8012811D140F6FE66C2F20006CC
S31508000E203778204601F008F8F82F07D831784A1C99
S31508000E30327040F60462C2F2000250542046294637
S31508000E4001F098F801286FD1204600F0F5FF40F62A
S31508000E50FE66C2F200063278002A5CD040F60460CC
S31508000E60C2F2000040F60A51FFF7E0F9002852D016
S31508000E7040F22658C2F2000898F80000D0B147465A
S31508000E8017F8FC0FD0B198F8F801D0B198F8F40229
S31508000E90E0B198F8F003F0B198F8EC0400B398F8CC
S31508000EA0E80510B398F8E406A8BB08F2E4674FF023
S31508000EB007091EE04FF0000947461AE04FF00109FE
S31508000EC017E008F5FC774FF0020912E008F53D77C0
S31508000ED04FF003090DE008F57C774FF0040908E0A8
S31508000EE008F2EC474FF0050903E008F5BD674FF037
S31508000EF00609022000F050FD3278C9EB891008EB8C
S31508000F00800040F6046142700230C2F20001FFF729
S31508000F1069F90120387040F60460C2F20000FA212F
S31508000F20FFF779F90020307005F10311204601F02A
S31508000F3021F801281AD140F2A440C2F20000017833
S31508000F4079B940F60362C2F20002117843789942F1
S31508000F5007D208444B1C81782046137000F070FFB6
S31508000F6004E0204640F2073100F0ECFF05F10211DB
S31508000F70204600F0FFFF01281CBF01B0BDE8F08342
S31508000F80204640F2063100F0DDFF40F2A440C2F2EE
S31508000F9000000121017040F60360C2F20000002142
S31508000FA0017004F5EA304FF4005100F03BFB0220D3
S31508000FB001B0BDE8F04300F0D1BC0000FEE7000038
S31508000FC02DE9F04188B040F6014000F007FE41F2F5
S31508000FD01A0000F003FE46F60004C4F2000404F505
S31508000FE0CE352846002102224FF440534FF0000820
S31508000FF000F0E2FB2846022100224FF4405300F09D
S315080010001FFB284609214FF4405200F0A3FA05AD0C
S315080010100020294600F0A0F96E4601203146012736
S3150800102000F09AF9204600F05BF84FF00120069090
S315080010304FF4A02007904FF0837005904FF480304E
S3150800104003900120C0F20F0002903046CDE90088D7
S315080010508DF8107000F058F82046294600F0B6F8CA
S3150800106020464FF4807100F0A9F814A109A20128BE
S3150800107008BF1146084601F02FF84120002100223A
S3150800108000F0F8FC2046102100F02CF908B0BDE865
S31508001090F08100BF43414E20636F6E74726F6C6CB3
S315080010A0657220696E697469616C697A6564207312
S315080010B075636365737366756C6C790043414E207E
S315080010C0696E697469616C697A6174696F6E206D9D
S315080010D061792068617665206661696C65642100BE
S315080010E010B546F20041C4F2000140F61A048842DF
S315080010F008BF40F61904204600F090FD2046BDE8DA
S31508001100104000F07BBD0000B0B546F20061C4F2A5
S31508001110000144890A684FF0010C42F001020A6096
S31508001120CB690CFA04F5AB43CB61C3896FEA050CAE
S31508001130012B10D023BBCB6803EA0C03CB60B0F8B5
S3150800114006E0438843EA0E434FEAC40E01EBC404A3
S31508001150236403460DE0CB682B43CB60B0F800E070
S31508001160438843EA0E434FEAC40E01EBC4042364E2
S31508001170831D84881B8843EA044301EB0E046364D9
S3150800118083894C68002B44EA050208BF04EA0C026E
S315080011904A6002894B69002A43EA050408BF03EA44
S315080011A00C044C61007C012802D1C8692843C86137
S315080011B0086820F001000860B0BD00008A091058D0
S315080011C001F01F01C84000F00100704710B5026821
S315080011D040F2040C22F0020202600268CFF6FF7C9D
S315080011E042F00102634602604268D20701BF4268C4
S315080011F05FEAC27242685FEAC27206D1426823B1E8
S3150800120012F0010203F10403EED04268D20704BFCC
S31508001210002010BD0A784B7891F802E0CC78920746
S3150800122063F319620EF00F0342EA034204F0070360
S315080012304C8942EA0352631E6FF39F231A44C26124
S315080012400A790368012A23F0800308BF8033036004
S315080012504A790368012A23F0400308BF4033036034
S315080012608A790368012A23F0200308BF2033036024
S31508001270CA790368002A23F0100308BF10330360F5
S315080012800A7A0368002A23F0080308BF08330360B4
S31508001290497A0268012922F0040208BF0432026072
S315080012A0016821F0010101604168C90717D041684A
S315080012B0C9071CBF41685FEAC1710ED04368BCF11B
S315080012C0000F614618BF0121BCF1000F08D013F0CA
S315080012D001020CF1040CE7D102E0012010BD012146
S315080012E0084610BD4269114341617047C1F3841233
S315080012F0012303FA02F2090B0A50704748F2CB029F
S31508001300C0F2010291420CD08422C0F2010291423D
S315080013100BD04CF2810291420BD1C26802F0030253
S3150800132010E08269C2F302120CE0026902F00302BD
S3150800133008E00A0B52F800C0C1F3841301229A4050
S3150800134002EA0C02406901F01F01C840002A18BFD2
S31508001350012210407047000003280FD8DFE800F08C
S31508001360020F18200120C0F2FF3088604FF080700D
S3150800137048604FF400300860704700BFFEE7002061
S315080013804FF480320874CA60086048608860704705
S315080013900020C1F80F00C1E90000C1E9020070474A
S315080013A00020C1E90000C1E9020008617047000099
S315080013B070B505464FF4406000F010FC4FF44060ED
S315080013C000F00CFC41F2041000F008FC41F20004A5
S315080013D0C4F2010404F57046304607214FF4007242
S315080013E000F0B8F8304607214FF4806200F0B2F8F2
S315080013F03046022101224FF4007300F021F93046ED
S31508001400022101224FF4806300F01AF930460021C8
S3150800141002224FF4007300F0CFF930460021022271
S315080014204FF4806300F0C8F9204600F00DFD204611
S31508001430294600F0A1FC2046002100F0ADFD20461B
S31508001440002100F0C5FD2046002100F0B3FD25204F
S315080014500021002200F00EFB2046042100F0A4FD26
S31508001460204640F2053100F079FD20464FF44171DF
S3150800147000F074FD204600F04BFD20460821BDE82B
S31508001480704000F09FBD000040F60070C2F20000F8
S315080014900168002908BF7047016801390160704773
S315080014A040F60071C2F20001086005E008680028ED
S315080014B008BF7047086820B1086810B10868002896
S315080014C0F4D1704781B040F21801C2F200010968F0
S315080014D04DF68362C4F21B32A1FB0212910C002264
S315080014E00092009A4843824207D200BF00BF009983
S315080014F00131009100998142F8D301B0704700008C
S3150800150080B582B013460A46014640F604704FF08D
S31508001510500CC2F20000CDF800C0FFF7C5F802B0C3
S3150800152080BD0000B0B541F200050446C4F20105CD
S315080015302846072100F0FEFC0028F9D0E1B228462B
S3150800154000F07EFC2846062100F0F4FC0028F9D0BD
S315080015502046B0BD10B5036AD40723F00F0ED0F8A5
S3150800156024C018BF4EEA010323F0F00E940748BFC3
S315080015704EEA011323F4706E540748BF4EEA01235E
S3150800158023F4704E140748BF4EEA013323F4702E35
S31508001590D40648BF4EEA014323F4700E940648BFAA
S315080015A04EEA015323F0706E540648BF4EEA0163B3
S315080015B023F0704E140648BF4EEA01732CF00F0E46
S315080015C0D40548BF4EEA010C2CF0F00E940548BF2E
S315080015D04EEA011C2CF4706E540548BF4EEA012CE5
S315080015E02CF4704E140548BF4EEA013C2CF4702EBC
S315080015F0D40448BF4EEA014C2CF4700E940448BF3C
S315080016004EEA015C2CF0706E540448BF4EEA016C39
S315080016102CF07044120448BF44EA017C0362C0F807
S3150800162024C010BD816170471823002A08BF2823EB
S31508001630195070470069084018BF0120704700001C
S315080016402DE9F0430568D0F80C804FF0000C4FF0F8
S31508001650030E002606E000BF0136102E0CF1100C12
S3150800166000F0A58023FA06F7FF070BD00EFA0CF751
S31508001670BD4301FA0CF4254328EA070402FA0CF7DD
S3150800168044EA0708013623FA06F4E4070FD00CF1FA
S3150800169002040EFA04F725EA070901FA04F528EA0E
S315080016A0070702FA04F445EA090547EA0408013679
S315080016B023FA06F4E4070FD00CF104040EFA04F733
S315080016C025EA070901FA04F528EA070702FA04F4E5
S315080016D045EA090547EA0408013623FA06F4E40749
S315080016E00FD00CF106040EFA04F725EA070901FAE9
S315080016F004F528EA070702FA04F445EA090547EA61
S315080017000408013623FA06F4E4070FD00CF108049E
S315080017100EFA04F725EA070901FA04F528EA070785
S3150800172002FA04F445EA090547EA0408013623FAE9
S3150800173006F4E4070FD00CF10A040EFA04F725EABA
S31508001740070901FA04F528EA070702FA04F445EA44
S31508001750090547EA0408013623FA06F4E4070FD018
S315080017600CF10C040EFA04F725EA070901FA04F548
S3150800177028EA070702FA04F445EA090547EA0408CD
S31508001780013623FA06F4E4073FF466AF0CF10E04BB
S315080017900EFA04F725EA070901FA04F528EA070705
S315080017A002FA04F445EA090547EA040854E705601D
S315080017B0C0F80C80BDE8F08370B50129416814BFF4
S315080017C0994319434160D0F808E000214FF0030C13
S315080017D0002404E00134102C01F1100172D023FA20
S315080017E004F5ED0707D00CFA01F52EEA050E02FA04
S315080017F001F54EEA050E013423FA04F5ED0708D083
S315080018008D1C0CFA05F62EEA060602FA05F546EAD6
S31508001810050E013423FA04F5ED0708D00D1D0CFA60
S3150800182005F62EEA060602FA05F546EA050E01341D
S3150800183023FA04F5ED0708D08D1D0CFA05F62EEAF5
S31508001840060602FA05F546EA050E013423FA04F5FA
S31508001850ED0709D001F108050CFA05F62EEA060689
S3150800186002FA05F546EA050E013423FA04F5ED07F2
S3150800187009D001F10A050CFA05F62EEA060602FA5F
S3150800188005F546EA050E013423FA04F5ED0709D0F5
S3150800189001F10C050CFA05F62EEA060602FA05F51C
S315080018A046EA050E013423FA04F5ED0792D001F154
S315080018B00E050CFA05F62EEA060602FA05F546EABC
S315080018C0050E87E7C0F808E070BD0000B0B540F621
S315080018D0024000F083F940F6024000F07FF94FF429
S315080018E0406000F07BF940F60004C4F2020420468A
S315080018F0012100222023FFF7A3FE20460121002212
S315080019001023FFF79DFEA4F5006528460121002255
S315080019108023FFF795FE2046002102222023FFF7A9
S315080019204BFF2046002102221023FFF745FF2846D9
S31508001930002102228023FFF73FFF204620210122B3
S31508001940FFF772FE204610210122FFF76DFE28469A
S3150800195080210122BDE8B040FFF766BE03280BD000
S31508001960022812D0012818BF704740F60000C4F2BA
S3150800197002002021FFF756BE40F60000C4F202001E
S31508001980A0F500608021FFF74DBE40F60000C4F2C6
S3150800199002001021FFF746BE10B5032815D002280D
S315080019A026D0012818BF10BD40F60004C4F2020470
S315080019B020462021FFF73EFEC0F10100C2B22046B4
S315080019C02021BDE81040FFF72FBE40F60000C4F204
S315080019D00200A0F5006420468021FFF72BFEC0F127
S315080019E00100C2B220468021BDE81040FFF71CBEA8
S315080019F040F60004C4F2020420461021FFF71AFE3E
S31508001A00C0F10100C2B220461021BDE81040FFF720
S31508001A100BBE000000F032F942F2FC01C0F60001EC
S31508001A2040F20046C4F202060C6806F54060CD692D
S31508001A30042108224023A047FFF748FF4FF4E1306E
S31508001A40FFF7B6FCFFF7BCFA304640218022FFF7C5
S31508001A5057FD4FF4E130FEF7A7FDA847FEF782FDD4
S31508001A6000F0BEFA00F02EF94FF47A70FFF718FD71
S31508001A70F8E700004EF60C5CCEF2000CDCF80030FD
S31508001A8003F4E063B3F5E06F01D104232AE0DCF840
S31508001A90003003F4E063B3F5C06F01D1032321E0FE
S31508001AA0DCF8003003F4E063B3F5A06F01D102233C
S31508001AB018E0DCF8003003F4E063B3F5806F01D179
S31508001AC001230FE0DCF8003003F4E063B3F5407F50
S31508001AD001D1002306E040F20053C0F2FA53CCF8D5
S31508001AE00030022301FA03FCC3F104030F21D94095
S31508001AF011404EF2001241EA0C01CEF20002090131
S31508001B0040EA020383F8001300F01F01012303FAD9
S31508001B1001F11C2303EAD0008150704710B543F643
S31508001B200402C4F2020253680146C3F3810342F277
S31508001B300040022BC0F2F40006D0012B1FD141F25F
S31508001B400020C0F27A001AE0D2F800C013680CF040
S31508001B503F0CC3F3881E13681468C3F30143640279
S31508001B6041F20024C0F27A0458BF0446B4FBFCF4E0
S31508001B70022000EB430004FB0EF3B3FBF0F05368BE
S31508001B80D2F804C0526803290FD8C3F303130FA46D
S31508001B90E35C42F21C1E20FA03F3C0F6000EDFE8EF
S31508001BA001F01302060D184610BD002010BDCCF337
S31508001BB082201EF8000023FA00F010BDC2F342305E
S31508001BC01EF8000023FA00F010BD00BF0000000058
S31508001BD000000000010203040607080943F6000393
S31508001BE000F01F018009C4F202034FF0010CC2582D
S31508001BF00CFA01F11143C1507047000043F6000387
S31508001C0000F01F018009C4F202034FF0010CC2580C
S31508001C100CFA01F122EA0101C150704743F60003AC
S31508001C2000F01F018009C4F202034FF0010CC258EC
S31508001C300CFA01F11143C15070470000016841F0E8
S31508001C40400101607047000070B50268D1E902E4FE
S31508001C5002F4415CD1E90032D1E9045643EA0C03A7
S31508001C601A4342EA0E02224389692A433243114340
S31508001C700160C16921F40061C16170BD40F21800BC
S31508001C80C2F20000006844F6D351C1F26201A0FB1B
S31508001C9001014FF0FF3000EB9110B0F1807F00D3C7
S31508001CA0FEE74EF21001CEF2000148604EF62350D0
S31508001CB0CEF20000F0220270002207238A600B6031
S31508001CC00270704710B540F21424C4F24124012072
S31508001CD0C4F8800020680EA1C00713A008BF0846F4
S31508001CE000F0FAF94FF47A70FFF7DAFB0020C4F82F
S31508001CF08000206812A1C00718A008BF084600F097
S31508001D00EBF94FF47A70BDE81040FFF7C9BB00BF86
S31508001D104750494F412050696E2035205365743A23
S31508001D2020506173736564004750494F41205069DC
S31508001D306E2035205365743A204661696C656400E7
S31508001D404750494F412050696E203520436C6561E4
S31508001D50723A204661696C65640000004750494F35
S31508001D60412050696E203520436C6561723A2050D7
S31508001D706173736564000000B0B5044647F2FF70EE
S31508001D80C4F200000D4684424FF000000EDC44F613
S31508001D90FF31C4F200018C4217DC44F20041C4F260
S31508001DA000018C421DD044F6000116E040F6FF7192
S31508001DB0C4F201018C422FDC47F60001C4F200018F
S31508001DC08C420ED047F6004107E044F60041C4F2C3
S31508001DD000018C4205D045F20001C4F200018C4294
S31508001DE003D102210846FFF799FEE168090406D4E3
S31508001DF000EB5500B0FBF5F080B2A060B0BD400026
S31508001E0000EB5500B0FBF5F04FF6F0710140C0F35A
S31508001E1042000844A060B0BD41F20001C4F20101CD
S31508001E208C424FF00301DDD041F20042C4F20102B8
S31508001E309442D7D0D9E7000040686FF35F20704717
S31508001E406FF35F214160704710B547F2FF71C4F226
S31508001E500001884214DC44F6FF31C4F200018842CE
S31508001E6024DC44F20041C4F2000188423CD044F626
S31508001E700001C4F20001884249D140F612043EE04E
S31508001E8040F6FF71C4F2010188421EDC47F60001E4
S31508001E90C4F2000188422AD047F60041C4F2000184
S31508001EA0884218BF10BD40F61F0428E044F60041DA
S31508001EB0C4F2000188421DD045F20001C4F20001B7
S31508001EC0884224D140F6140419E041F20001C4F214
S31508001ED00101884211D041F20041C4F20101884251
S31508001EE015D140F605140AE040F6110407E040F65D
S31508001EF01E0404E040F6130401E040F604142046EC
S31508001F00FFF78CFE2046BDE81040FFF777BE10BDF0
S31508001F10C16841F40051C1607047000001F01F021A
S31508001F2089094FF0010C0B580CFA02F223EA020257
S31508001F300A5070478A09105801F01F01C84000F07E
S31508001F400100704701F01F0289094FF0010C0B5878
S31508001F500CFA02F223EA02020A50704701F01F0245
S31508001F6089094FF0010C0B580CFA02F21A430A5071
S31508001F7070470000C1F3891252F800C08A0D105844
S31508001F8001F01F03C1F30441C8402CFA03F10840CD
S31508001F9000F0010070470000C26822F4C062C26007
S31508001FA0C2681143C1607047C26822F00402114337
S31508001FB0C1607047026922F4405202610269114306
S31508001FC001617047C26822F008021143C160704778
S31508001FD0C26822F48052C260C2681143C160704769
S31508001FE070B588B040F60540FFF7F8FD40F60540A5
S31508001FF0FFF7F4FD41F20044C4F20204204605212D
S315080020008022FFF7A7FA204605214FF48072FFF7D2
S31508002010A1FA204605214FF400724FF40075FFF728
S3150800202099FA20460221002280230026FFF708FBA2
S315080020302046022100224FF48073FFF701FB204659
S31508002040022100224FF40073FFF7FAFA2046002116
S3150800205002228023FFF7B0FB2046002102224FF41C
S315080020600073FFF7A9FB2046012100224023FFF752
S31508002070E7FA2046002102224023FFF79DFB20466F
S315080020804021FFF7CFFA41F21410FFF7A7FD4FF4EE
S31508002090827001900320A4F54444CDE9060601A9FF
S315080020A0204602960396CDE90456FFF7CDFD204655
S315080020B0FFF7C4FD08B070BD02E008C8121F08C1CA
S315080020C0002AFAD170477047002001E001C1121FAB
S315080020D0002AFBD17047000010B5044601E0FFF75F
S315080020E021FA14F8010B04490028F8D1BDE810407C
S315080020F00A20FFF717BA000000000020ED030008C9
S315080021005D0300089D03000835030008C90300089D
S31508002110950300088D0300087504000800000000F8
S3150800212001020304482100080000002020000000E6
S31508002130B82000086821000820000020F8120000D6
S31508002140C82000080000000000000000400004004D
S315080021500403030701800380D007EC030000803FD7
S30D08002160001C4E0E00000000F1
S705080001AD44
