:020000040800F2
:1000000070170020C1010008450A000875080008A3
:10001000410A0008D10700081D1600080000000072
:100020000000000000000000000000004D0A000871
:100030007108000800000000490A0008F90E0008D5
:10004000DB010008DB010008DB010008DB01000820
:10005000DB010008DB010008DB010008DB01000810
:10006000DB010008DB010008DB010008DB01000800
:10007000DB010008DB010008DB010008DB010008F0
:10008000DB010008DB010008DB010008DB010008E0
:10009000DB010008DB010008DB010008DB010008D0
:1000A000DB010008DB010008DB010008DB010008C0
:1000B000DB010008DB010008DB010008DB010008B0
:1000C000DB010008DB010008DB010008DB010008A0
:1000D000DB0100083911000819140008DB010008D1
:1000E000DB010008DB010008DB010008DB01000880
:1000F000DB010008DB010008DB010008DB01000870
:10010000DB010008DB010008DB010008DB0100085F
:10011000DB010008DB010008DB010008DB0100084F
:10012000DB010008DB010008DB010008DB0100083F
:10013000DB010008DB010008DB010008DB0100082F
:10014000DB010008D5070008DB010008DB0100081F
:10015000DB010008DB010008DB010008DB0100080F
:10016000DB010008DB010008DB010008DB010008FF
:10017000DB010008DB010008DB01000800000000D3
:10018000DB010008DB010008DB010008DB010008DF
:10019000DB010008DB010008DB01000800000000B3
:1001A000DB010008DB010008DB010008DFF80CD0F0
:1001B00000F036FA00480047C51A00087017002002
:1001C0000648804706480047FEE7FEE7FEE7FEE7F1
:1001D000FEE7FEE7FEE7FEE7FEE7FEE7110F000899
:1001E000AD010008421C10F8011B0029FBD1801A48
:1001F0007047CBB203E00178994203D0401C521EF5
:10020000F9D20020704730B504460020034600E0D4
:100210005B1C934203D2E05CCD5C401BF8D030BD48
:1002200030B50B46014600202022012409E021FAC6
:1002300002F59D4205D303FA02F5491B04FA02F5C3
:100240002844151EA2F10102F1DC30BD2DE9F05F5A
:100250000546002092469B46884606468146402435
:100260001BE0284641464746224600F0FAF953462D
:100270005A46C01A914110D311461846224600F042
:10028000E1F92D1A67EB01084F46224601200021B3
:1002900000F0D8F917EB00094E41201EA4F101042B
:1002A000DFDC484631462A464346BDE8F09F2DE94B
:1002B000FE4F804681EA0300C00F0C46009021F0FB
:1002C000004123F00045B8EB0200A94105D24046A9
:1002D000214690461C460B46024623F00040104340
:1002E00047D0270DC7F30A00C3F30A510290401A02
:1002F000019040286BDAC3F3130040F4801B009890
:10030000924620B10023D2EB030A63EB0B0B01985A
:100310005946C0F14002504600F094F906460D4699
:1003200050465946019A00F0ACF910EB08006141C3
:10033000002487EA115284EAE7731A4340D0009AF6
:1003400062B3019A012A4FEA075215DC001B61EBE8
:1003500002014FF0004202EA0752CDE90042001CC0
:1003600041F5801132462B4600F0ACF903B0BDE8F0
:10037000F08F40462146F9E7001B61EB0201001CAB
:1003800041F5801300185B412018A2F5001747EBD8
:10039000030140EAD570B6196D4111E06D084FEACE
:1003A000360645EAC0754FEA0752001B61EB0201B1
:1003B000001C41F5801149084FEA300000195141F5
:1003C00032462B4603B0BDE8F04F00F06CB9009800
:1003D000012240000023D0EB020263EBE07300989F
:1003E00021464FEAE074B8EB000061EB0401E9E755
:1003F00083F000435BE781F0004158E72DE9FE4FB1
:1004000081EA030404F0004421F0004100944FF01D
:10041000000B23F0004350EA01045ED052EA0304CB
:100420005BD0C3F30A54C1F30A552C44A4F2F3344D
:100430000194A0FB0254C1F3130141F48011C3F3F2
:10044000130343F4801301FB024400FB034E840AB0
:10045000970A44EA815447EA8357A4FB0768029548
:100460008D0A05FB07854FEA932C04FB0C542705E6
:10047000029D4FEA065847EA1637B5EB08056EEBC2
:10048000070C870E920E47EA811742EA8312A7FBF8
:100490000201B6EB0B0164EB00042B0D43EA0C33B5
:1004A0005E1844EB1C50DA465146E7FB0201C5F3E7
:1004B00013044FEA0B3343EA14534FEA0432019C0E
:1004C00043EA0603A4F10C040294009CCDE900B4B5
:1004D00000F0F8F803B0BDE8F08F00200146F9E71E
:1004E0002DE9F04D81EA030404F0004B21F00045B2
:1004F00014464FF0000A23F0004150EA050220D0D4
:1005000054EA01021DD0C5F30A570246C5F313038E
:10051000C1F31300C1F30A5640F4801543F480136D
:10052000A7EB0608101BD64608F2FD3873EB050052
:1005300002D308F1010801E092185B41B8F1000F05
:1005400003DA00200146BDE8F08D00204FF4801151
:10055000064684460EE0171B73EB050705D3121BF6
:1005600063EB050306434CEA010C49084FEA3000EF
:1005700092185B4150EA0107EDD152EA030012D014
:1005800082EA040083EA0501084305D0101BAB4151
:1005900006D20122002306E000224FF0004302E0D1
:1005A0006FF0010253101AEB06004CEB085110EBF0
:1005B0000A0041EB0B01BDE8F04D00F074B8C1F347
:1005C0000A52C1F3130140F2FF3341F480119A4201
:1005D00002DA00200146704740F233439A42A2F209
:1005E000334202DC524200F03CB800F02BB800006D
:1005F00030B5041E71F1000404DB4FF000444042AA
:1006000064EB0101141E73F1000405DB1C464FF07E
:100610000043524263EB0403994208BF904230BD4D
:10062000064C074D06E0E06840F0010394E807003F
:1006300098471034AC42F6D3FFF7BCFD6C3300088A
:100640008C330008202A04DB203A00FA02F1002053
:1006500070479140C2F1200320FA03F31943904000
:100660007047202A04DB203A21FA02F0002170476B
:1006700021FA02F3D040C2F120029140084319460A
:100680007047202A06DBCB17203A41FA02F043EAF2
:10069000E07306E041FA02F3D040C2F1200291403B
:1006A00008431946704710B5141E73F1000408DAA8
:1006B000401C41F1000192185B411A4301D120F026
:1006C000010010BD2DE9F04D92469B4611B1B1FAE3
:1006D00081F202E0B0FA80F220329046FFF7B2FFDA
:1006E00004460F4640EA0A0041EA0B0153465A46C7
:1006F000084313D0114653EA010019D0C8F1400253
:100700005046FFF7AEFF05460E4650465946424654
:10071000FFF798FF084305D0012004E02046394642
:10072000BDE8F08D0020054346EAE0762C433743D0
:100730000A986305E40AA0EB08000022FD0A44EAD7
:1007400047540A3002D500200146E9E70105101997
:100750006941DDE9084500196941BDE8F04DA2E7AE
:1007600040EA01039B0703D009E008C9121F08C033
:10077000042AFAD203E011F8013B00F8013B521EB3
:10078000F9D27047D2B201E000F8012B491EFBD22A
:1007900070470022F6E710B513460A46044619468C
:1007A000FFF7F0FF204610BD00F0004230F000409F
:1007B0000AD0C10D01F56071C0F3160042EA015183
:1007C000C2084007114370470020014670470000EF
:1007D000FEE7000010B546F61004C4F200042168DC
:1007E0006068890718BF10F0100013D02168606896
:1007F000C90607D510F0400004D0102020600DA0DD
:1008000002F052FAA068C00702D010A002F04CFA21
:1008100004202060A1686068490758BF10BD10F42B
:10082000806006D004210EA0A160BDE8104002F057
:100830003BBA10BD43414E204649464F31206F76AA
:100840006572666C6F77210D0000000043414E20F9
:100850007761726E696E67206572726F72210D002A
:1008600043414E20627573206F6666210D000000C3
:1008700070470000FEE70000F0B581B0044600F0CC
:1008800077FA802000F0BEFA00F0CAF9204600F0A6
:10089000B9FA00F0C5F900F06BFA812000F0B2FA65
:1008A00000F0BEF900F004FA40F6F81540F6042412
:1008B000C2F20005C2F200042968EA882060002024
:1008C0008A620090009949094A2907D800BF009917
:1008D000013100910099B1F5166FF7D32A68A98804
:1008E00091610090009840094A2808D800BF0098FC
:1008F000013000900098B0F5166FF7D3A9882868EA
:10090000002681620096009840094A2808D800BF56
:1009100000BF0098013000900098B0F5166FF7D333
:10092000276800F0C5F92968EA8840EA07202060B6
:100930008A620096009840094A2807D800BF0098AC
:10094000013000900098B0F5166FF7D32868A98899
:10095000816100200090009949094A2908D800BF08
:1009600000BF0099013100910099B1F5166FF7D3DE
:100970002968EA888A610090009840094A2807D8C7
:1009800000BF0098013000900098B0F5166FF7D3C3
:10099000208801B0F0BD0000B0B584B00C4605461B
:1009A00000F0E6F9802000F02DFA00F039F9284631
:1009B00000F028FA00F034F9200A00F023FA00F0E1
:1009C0002FF9E0B200F01EFA00F02AF940F6F81014
:1009D000C2F200000168C2888A6200210291029A74
:1009E00052094A2A08D800BF00BF029A0132029277
:1009F000029AB2F5166FF7D3026883889361039168
:100A0000039949094A2907D800BF03990131039185
:100A10000399B1F5166FF7D30168C088886100208B
:100A20000190019840094A2808D800BF00BF0198EA
:100A3000013001900198B0F5166FF7D304B0B0BD46
:100A4000FEE700007047000070470000704700009C
:100A5000B0B582B0044606989446208101F13E402C
:100A600000F1FF70A2804FEAB022082A4FF0000583
:100A70002160E38023D800EB82010020DFE802F050
:100A8000140507090B0D0F11130001200CE00220C3
:100A90000AE0032008E0042006E0052004E0062028
:100AA00002E0072000E0082043F63002C4F2020210
:100AB0000121136801FA00F018431060216808460C
:100AC00001210122634600F0D1FD2068E388012165
:100AD000012200F0CBFD2068A288012100F082FEF7
:100AE0002068E288012100F07DFE2068A1888161F4
:100AF0000195019840094A2808D800BF00BF019815
:100B0000013001900198B0F5166FF7D32068E188A5
:100B1000816100200190019A52094A2A09D800BF38
:100B200000BF0199013101910199B1F5166FF7D319
:100B3000E188226891610190019840094A2807D80C
:100B400000BF0198013001900198B0F5166FF7D3FE
:100B50002068A188816100200190019949094A29F2
:100B600008D800BF00BF0199013101910199B1F589
:100B7000166FF7D32168E2888A62019001984009D4
:100B80004A2807D800BF0198013001900198B0F5BC
:100B9000166FF7D32068A188816200200190019927
:100BA00049094A2908D800BF00BF019901310191C4
:100BB0000199B1F5166FF7D32168E2888A62019036
:100BC000019840094A2807D800BF019801300190D8
:100BD0000198B0F5166FF7D32068A18881610020D5
:100BE0000190019949094A2908D800BF00BF01991D
:100BF000013101910199B1F5166FF7D32168E288AF
:100C00008A610190019840094A2807D800BF0198DD
:100C1000013001900198B0F5166FF7D302B0B0BD66
:100C200081B040F6F810C2F200000168C2888A6103
:100C300000210091009A52094A2A07D800BF009A61
:100C400001320092009AB2F5166FF7D302688388DA
:100C500093610091009949094A2907D800BF00997A
:100C6000013100910099B1F5166FF7D3026811694F
:100C700000210091009B5B094A2B08D800BF009A15
:100C800001320092009AB2F5166FF7D3026880889D
:100C900090620091009840094A2807D800BF009848
:100CA000013000900098B0F5166FF7D301B070478F
:100CB00070B581B040F6F810C2F200000168C28839
:100CC0004FF0000E8A61CDF800E0009949094A29E9
:100CD00008D800BF00BF0099013100910099B1F51B
:100CE000166FF7D34FF0800C0022002303E000BF03
:100CF0000132082A39D0016884888C61CDF800E07F
:100D0000009949094A2907D800BF0099013100918B
:100D10000099B1F5166FF7D30568C1882C69CDF835
:100D200000E0009E76094A2E09D800BF00BF009D52
:100D300001350095009DB5F5166FF7D30568214084
:100D400081882CFA02F4A962CDF800E0009918BF5E
:100D5000234349094A29CBD800BF009901310091AA
:100D60000099B1F5166FF7D3C2E7D8B201B070BDE4
:100D700081B040F6F810C2F200000168C2888A61B2
:100D800000210091009A52094A2A07D800BF009A10
:100D900001320092009AB2F5166FF7D30268838889
:100DA00093610091009949094A2907D800BF009929
:100DB000013100910099B1F5166FF7D30168C2882F
:100DC0008A6200210091009A52094A2A08D800BF7D
:100DD00000BF009A01320092009AB2F5166FF7D365
:100DE0000268808890620091009840094A2807D8DC
:100DF00000BF0098013000900098B0F5166FF7D34F
:100E000001B07047B0B581B040F6F8134FF0000E56
:100E10004FF0800CC2F20003002202E00132082AE7
:100E200067D02CFA02F11C68DD8801424FF01801EE
:100E300008BF28210D51CDF800E0009949094A2941
:100E400008D800BF00BF0099013100910099B1F5A9
:100E5000166FF7D3CDF800E0009949090E2907D89D
:100E600000BF0099013100910099B1F5F07FF7D3EF
:100E700019689C888C61CDF800E0009949094A29DD
:100E800008D800BF00BF0099013100910099B1F569
:100E9000166FF7D3CDF800E0009949090E2907D85D
:100EA00000BF0099013100910099B1F5F07FF7D3AF
:100EB00019689C888C62CDF800E0009949094A299C
:100EC00008D800BF00BF0099013100910099B1F529
:100ED000166FF7D3CDF800E0009949090E299DD887
:100EE00000BF0099013100910099B1F5F07FF7D36F
:100EF00094E701B0B0BD000041F26830C2F20000DA
:100F00000168002908BF7047016801390160704716
:100F100081B04EF68851CEF200010A6843F608000F
:100F200042F47002C4F202000A6050F8081C4FF04C
:100F3000000C41F0010140F8081C01684CF24F32EE
:100F400041F080010160CDF800C0009B934219D8A8
:100F50004CF250330099013100910099994211D21D
:100F6000009901310091009991420BD8009901310B
:100F700000910099914205D80099013100910099A2
:100F80009942E7D3016841F090010160CDF800C0BB
:100F9000009991421CD84CF250314CF24F3200BFB4
:100FA000009B01330093009B8B4211D2009B0133C5
:100FB0000093009B93420BD8009B01330093009B4E
:100FC000934205D8009B01330093009B8B42E7D3EB
:100FD00001684FF6FF7221F00301016050F8081C10
:100FE000CFF6F662114040F8081C50F8081C21F4B6
:100FF000802140F8081C00210160026843F21002C1
:10100000C2F2004240F8042C416050F8081C41F440
:10101000803140F8081C4FF6FC7100BF50F8082CD6
:1010200092035CBF50F8082C5FEA82320AD450F871
:10103000082C39B112F4003204D150F8082C0439CC
:101040009203EBD550F8081C890300D4FEE7826BAD
:1010500047F2040142F08052C4F20001826351F869
:10106000042C42F4404241F8042C026802600268F9
:1010700042F400420260026842F4A052026047F665
:101080000802C0F6402240F8042C50F8082C42F028
:10109000807240F8082C00BF50F8082C92015FBF06
:1010A00050F8082C5FEA821250F8082C5FEA82128E
:1010B00003D450F8082C9201EED551F8042C42F4D8
:1010C000803241F8042C00BF0A68D2035FBF0A686F
:1010D0005FEAC2320A685FEAC23202D40A68D20307
:1010E000F2D551F8042C42F4003241F8042C00BF30
:1010F0000A6892035FBF0A685FEA82320A685FEAA1
:10110000823202D40A689203F2D5016821F0030109
:101110000160016841F0020101600168090709D41A
:10112000016809075CBF01685FEA017102D40168C8
:101130000907F2D501B070472DE9F04141F20C05E5
:10114000C4F20105A96855F80C0CC90718BF10F0C6
:10115000080017D1A96855F80C0CC90718BF10F082
:1011600002000FD1A96855F80C0CC90718BF10F080
:10117000040007D1296855F80C0CC90519D510F0E1
:10118000010016D055F80C0CFA2120F0080045F8A3
:101190000C0C55F8080C40F6EC00C2F20000FFF70A
:1011A000F8FA40F6E610C2F2000000210180BDE826
:1011B000F081286855F80C1C0840800600F18B80EF
:1011C000286855F80C1C0840C00640F1EC8040F639
:1011D000E618C2F2000855F8080CB8F80040002CD8
:1011E00000F08A8040F6EC00C2F2000040F60A519E
:1011F0002246FEF7FEFF00287ED040F61006C4F21D
:101200000206304650F8183B06F108029B0658BF0C
:1012100010462023036040F28800C2F200000778E5
:10122000002F00F08F80314651F8187BBF0658BF61
:1012300011460B60074617F8FC1F002900F0858057
:10124000314651F8183B9B064FF0200358BF11461A
:101250000B6090F8F811002979D0314651F8187BCD
:10126000BF0658BF11460B6090F8F412002972D0E7
:10127000314651F8183B9B064FF0200358BF1146EA
:101280000B6090F8F013002969D0314651F8187BB3
:10129000BF0658BF11460B6090F8EC14002962D0CD
:1012A000314651F8183B9B064FF0200358BF1146BA
:1012B0000B6090F8E815002959D056F8181B8906DC
:1012C00058BF1646336090F8E416002961D100F249
:1012D000E46707214EE040F6E612C2F200021088F1
:1012E00055F8081CF8285ED8431C138040F6EC0221
:1012F000C2F20002115456E040F66800C2F200004B
:10130000002101700E21417046F26411C6F2741181
:10131000C0F8021046F62011C2F27301C0F80610A0
:1013200047F26521C6F67271C0F80A1040F6725194
:10133000C181286840F080002860286840F04000A3
:10134000286026E00021074614E0012112E000F5A4
:10135000FC7702210EE000F53D7703210AE000F55D
:101360007C77042106E000F2EC47052102E000F55D
:10137000BD670621C1EB811100EB810040F6EC0155
:1013800044700230C2F200012246FFF7E9F9012061
:10139000387040F6EC00C2F20000FA21FFF7F9F9CC
:1013A0000020A8F80000286855F80C1C084000062A
:1013B00018D540F66800C2F20000017871B940F615
:1013C000E811C2F200010A7843789A4206D210442A
:1013D0008078531C0B7045F8080C03E0286820F057
:1013E00080002860286855F80C1C0840400658BF4B
:1013F000BDE8F0812868012120F04000286040F617
:101400006800C2F20000017040F6E810C2F200006D
:1014100000210170BDE8F081F0B581B044F20045D3
:10142000C4F2000569692868C90718BF10F00800F0
:1014300014D169692868C90718BF10F002000DD1DE
:1014400069692868C90718BF10F0040006D1E96867
:101450002868C90516D510F0010013D02868FA21B4
:1014600020F008002860686841F26C20C2F2000099
:10147000FFF78FF941F26630C2F2000000210170DF
:1014800001B0F0BDE8682968084080060ED541F239
:101490006632C2F2000210786968F82806D8431C48
:1014A000137041F26C22C2F200021154E8682968FC
:1014B0000840C00671D541F26636C2F2000668687F
:1014C0003478002C60D041F26C20C2F2000040F66B
:1014D0000A512246FEF78DFE002855D040F608201E
:1014E000C2F200000178C9B1074617F8FC1FC1B16C
:1014F00090F8F811B9B190F8F412C1B190F8F01366
:10150000C9B190F8EC14D1B190F8E815D9B190F8C0
:10151000E416C9BB00F2E467072117E00021074683
:1015200014E0012112E000F5FC7702210EE000F545
:101530003D7703210AE000F57C77042106E000F204
:10154000EC47052102E000F5BD67062140F61802D0
:10155000C4F2020252F8083C1032DB06C1EB8111E2
:101560005CBF40F61802C4F20202102300EB8100B7
:1015700041F26C21136044700230C2F20001224635
:10158000FFF7EEF80120387041F26C20C2F2000043
:10159000FA21FFF7FEF800203070E868296808405B
:1015A000000617D541F2E810C2F20000017869B9CF
:1015B00041F26731C2F200010A7843789A4205D2BB
:1015C00010448078531C0B70686003E0E86820F0DA
:1015D0008000E860E8682968084040061CD5E86893
:1015E000012120F04000E86041F2E810C2F2000062
:1015F000017041F26730C2F200000021017041F633
:101600001800C4F202004FF40051016040F61800C7
:10161000C4F202001021016001B0F0BDFEE700003D
:1016200041F20001C4F201010A6812065FBF0A68B4
:101630005FEA02620A685FEA026202D40A6812067E
:10164000F2D502466FF35F224A6003E00A68520651
:1016500048BF70470A68520606D40A6852065CBF43
:101660000A685FEA4262F1D5704700002DE9F04355
:101670000568D0F80C8000264FF00E0C4FF0030EDA
:1016800006E000BF0136102E0CF1100C00F0A58012
:1016900023FA06F7FF070FD0ACF10E070EFA07F496
:1016A00025EA040901FA07F528EA040402FA07F713
:1016B00045EA090544EA0708013623FA06F4E40777
:1016C0000FD0ACF10C040EFA04F725EA070901FA71
:1016D00004F528EA070702FA04F445EA090547EA8F
:1016E0000408013623FA06F4E4070FD0ACF10A042B
:1016F0000EFA04F725EA070901FA04F528EA0707B4
:1017000002FA04F445EA090547EA0408013623FA17
:1017100006F4E4070FD0ACF108040EFA04F725EA4A
:10172000070901FA04F528EA070702FA04F445EA72
:10173000090547EA0408013623FA06F4E4070FD046
:10174000ACF106040EFA04F725EA070901FA04F5DC
:1017500028EA070702FA04F445EA090547EA0408FB
:10176000013623FA06F4E4070FD0ACF104040EFAB4
:1017700004F725EA070901FA04F528EA070702FA3F
:1017800004F445EA090547EA0408013623FA06F499
:10179000E4070FD0ACF102040EFA04F725EA0709BA
:1017A00001FA04F528EA070702FA04F445EA0905F4
:1017B00047EA0408013623FA06F4E4073FF462AF6F
:1017C0000EFA0CF4A54301FA0CF73D4328EA040491
:1017D00002FA0CF744EA070854E70560C0F80C80E9
:1017E000BDE8F08370B50129416814BF91431143EE
:1017F0004160836800240E214FF0030C4FF0020E6D
:1018000005E000BF0134102C01F1100162D022FA72
:1018100004F5ED0707D0A1F10E050CFA05F6B34368
:101820000EFA05F52B43013422FA04F5ED0707D033
:10183000A1F10C050CFA05F6B3430EFA05F52B439E
:10184000013422FA04F5ED0707D0A1F10A050CFADC
:1018500005F6B3430EFA05F52B43013422FA04F5DD
:10186000ED0707D0A1F108050CFA05F6B3430EFA0F
:1018700005F52B43013422FA04F5ED0706D08D1F40
:101880000CFA05F6B3430EFA05F52B43013422FAA0
:1018900004F5ED0706D00D1F0CFA05F6B3430EFA5A
:1018A00005F52B43013422FA04F5ED0706D08D1E11
:1018B0000CFA05F6B3430EFA05F52B43013422FA70
:1018C00004F5ED079ED00CFA01F5AB430EFA01F5D5
:1018D0002B4397E7836070BD80B50220FEF7CCFFF5
:1018E00000EE100AB8EE400AB7EE041A9FED0A2A7D
:1018F00020EE010A80EE020A10EE100AFEF754FFF5
:10190000024640F208000B46C2F2000003A1BDE807
:10191000804000F047BD00BF00007A4456627573F6
:101920005F56616C3D25302E34660D0A00000000C4
:1019300080B50420FEF7A0FF00B200EE100A9FED74
:101940000A1AB8EEC00A80EE010A10EE100AFEF77D
:101950002BFF024640F208000B46C2F2000003A132
:10196000BDE8804000F01EBD00007A4443757272ED
:101970005F56616C3D25302E34660D0A0000000074
:1019800080B5FF20FEF778FF024640F20800C2F261
:10199000000002A1BDE8804000F004BD4469655F1D
:1019A00049443D3078253034580D0A0080B5FE207A
:1019B000FEF762FF024640F20800C2F2000002A1F8
:1019C000BDE8804000F0EEBC4D616E7566616374E9
:1019D000757265725F49443D3078253034580D0A80
:1019E0000000000080B50320FEF746FF00B200EEC5
:1019F000100AB8EEC00AB3EE091A20EE010ABDEED5
:101A0000C00A40F2080010EE102AC2F2000002A143
:101A1000BDE8804000F0C6BC506F7765725F5661CC
:101A20006C75653D3078253034580D0A0000000093
:101A300080B50120FEF720FF00B2013000EE100A51
:101A40009FED0A1AB8EEC00A20EE010A10EE100A45
:101A5000FEF7AAFE024640F208000B46C2F2000062
:101A600003A1BDE8804000F09DBC00BF0AD7233B26
:101A70007368756E745F766F6C746167653D253051
:101A80002E34660D0A00000080B5FF20FEF7F4FE3C
:101A900040F2080046F64141C2F20000C7F265215B
:101AA00042F2740245F22053C7F26932C6F66C73F3
:101AB00080E80E0046F26F31C0F26B01C0F80B10E7
:101AC00080BD000084B04EF204124AF67F104EF63C
:101AD0000C53CEF20002C0F20300CEF2000342F833
:101AE000F00CF02041F20041D87500200727C4F225
:101AF000020142F8EC0C42F8F47CD87540F6F8107C
:101B000043F6300B41F2244440F2200A40F2000830
:101B100044F20C45A1F580614027C2F20000042286
:101B20000823C4F2020BC4F20204C4F2020AC4F293
:101B30000208C4F200050097FEF78AFFDBF80000F8
:101B4000002140F04000CBF8000004F5777001223E
:101B50004FF4804344460390FFF788FD002044F68D
:101B6000DF01FEF719FF05204FF47B71FEF714FF2C
:101B7000062048F20101FEF70FFF07204FF4FA613B
:101B8000FEF70AFFDBF800000AF5FC6740F00400EE
:101B9000CBF80000DBF80000012140F00400CBF896
:101BA0000000DBF80000002240F00100CBF800004C
:101BB000384620232026FFF759FD38460121002210
:101BC00010234FF01008FFF751FD2046012100229D
:101BD00080234FF08009FFF749FD3846002120227D
:101BE000FFF700FE3846002110220297FFF7FAFDAA
:101BF000204600218022FFF7F5FDCAF8F867CAF8F1
:101C0000F8874AF8089CDBF80000072240F0010042
:101C1000CBF80000DBF800004EF60C5840F0010055
:101C2000CBF80000DBF8140041F20C0640F0100085
:101C3000CBF81400DAF80000DAF80410CAF8000053
:101C400062F30711CAF80410DAF80000DAF8041099
:101C5000CAF8000062F30B21CAF8041020460221E2
:101C600001224FF40073CEF20008C4F20106FFF720
:101C7000FDFC2046022101224FF48063FFF7F6FCB1
:101C8000204600214FF40072FFF7ACFD20460021F2
:101C90004FF48062FFF7A6FD5BF80C0C40F01000DB
:101CA0004BF80C0C5BF80C0C20F010004BF80C0CF3
:101CB0004CF6F430284400F0C1FA306820F4C060DB
:101CC000306030683060306820F4805030603068B8
:101CD0003060706820F44050706070687060D8F8B0
:101CE000000000F4E060B0F5E06F21D0D8F800000B
:101CF00000F4E060B0F5C06F1AD0D8F8000000F42E
:101D0000E060B0F5A06F13D0D8F8000000F4E060F8
:101D1000B0F5806F0CD0D8F8000000F4E060B0F5AA
:101D2000407F1EBF40F20050C0F2FA50C8F80000D9
:101D30004EF225464EF20419CEF200060024CEF2F1
:101D40000009202041F20C013470C9F80000C4F2EF
:101D500001010868402240F0040008600868802300
:101D600040F020000860086840F010000860086833
:101D700040F400500860086840F0080008605020F7
:101D8000009040F6EC100AF57871C2F20000FEF700
:101D90005FFEDBF80000072240F00100CBF80000F6
:101DA000DBF80000002740F00100CBF80000DBF872
:101DB0001000C4F2020740F40030CBF81000DAF84B
:101DC0000000DAF8041062F30B20CAF80000CAF829
:101DD0000410DAF80000DAF8041062F30F30CAF8E1
:101DE0000000CAF804103846022101220423FFF73C
:101DF0003DFC3846022101220823FFF737FC384614
:101E000000210422FFF7EEFC384600210822FFF7EC
:101E1000E9FC5BF8100C40F400304BF8100C5BF858
:101E2000100C20F400304BF8100CA5F10C0000F061
:101E300005FA286820F4C0602860286828602868AF
:101E400020F48050286028682860686820F440509A
:101E5000686068686860D8F8000000F4E060B0F579
:101E6000E06F28D0D8F8000000F4E060B0F5C06F53
:101E700001D101241FE0D8F8000000F4E060B0F5C3
:101E8000A06F17D0D8F8000000F4E060B0F5806FC4
:101E900001D103240FE0D8F8000000F4E060B0F5B1
:101EA000407F01D1042406E040F20050C0F2FA5015
:101EB000C8F8000002240F20E040102101EA0010C1
:101EC0004FF040087070C9F800802868012140F088
:101ED000080028602868002240F004002860286874
:101EE0004FF4005340F02000286028684FF00009AC
:101EF00040F010002860286840F400502860DBF8AB
:101F000000004FF4005540F04000CBF80000039F64
:101F10003846FFF7ABFB384600214FF40052FFF77D
:101F200061FC41F22447C4F202070620C7F8F453CB
:101F3000FEF7A2FCDBF80000002440F00100CBF823
:101F40000000DBF80000C4F2020440F00400CBF80B
:101F500000002046002102220123FFF787FB0298A0
:101F6000002101224FF40053FFF780FBDBF8000053
:101F700041F2004540F02000CBF80000DBF8000003
:101F8000C4F2020540F02000CBF80000286A39684E
:101F9000052262F31F7028623960286A3968286256
:101FA00062F303013960286A3968286262F3071115
:101FB00039602846022100228023FFF757FB28467C
:101FC000022100224FF48073FFF750FB28460221C4
:101FD00000224FF40073FFF749FB284600218022BE
:101FE000FFF700FC284600214FF40072FFF7FAFBD0
:101FF0002846012100224023FFF738FB2846002114
:102000004022FFF7EFFBC5F81880DBF8140040F220
:10201000880540F48010CBF8140045F20000CFF69C
:10202000FF702158C2F2000501F4415101F207315D
:10203000215045F21C01CFF6FF71625822F4006274
:102040006250215841F04001215000243AE0002024
:102050006CA101EBC00040688047354640F208069D
:10206000C2F200063046FEF7BDF841B28022B1F15F
:10207000FF3FC8BFC2B240F66800C2F2000000F8DD
:10208000029B314600F8012CFEF76AFB41F20C017D
:10209000C4F20101086840F080000860086840F060
:1020A000400008605846FA21FEF773FB3046802155
:1020B000FEF76FFB88F8009087F800900134082C39
:1020C00008BF0024C4EB841015F820100129F5D1B5
:1020D00005EB8008474617F801AF42F6076107F1A4
:1020E000010B5846C0F6000152462E46FEF78BF80B
:1020F0000028ACD043F24D315846C0F6000152469C
:10210000FEF781F800285AD042F619615846C0F609
:1021100000015246FEF777F8002852D043F24131D1
:102120005846C0F600015246FEF76DF800284AD026
:1021300043F25B315846C0F600015246FEF763F8A1
:10214000002842D042F6F1515846C0F600015246EE
:10215000FEF759F8D8B342F6E4515846C0F60001EC
:102160005246FEF750F8A0B34FF0000942F6CC40BB
:10217000C0F6000050F8391058465246FEF743F8B2
:1021800048B309F10109B9F1220FEFD140F208007B
:1021900047F24521C2F20000C6F67271016045F6B1
:1021A0007271C6F64371416046F66D51C6F66161C3
:1021B000816040F66451C0F20A01C1601EE0012056
:1021C00046E7022044E7032042E7042040E70520D9
:1021D0003EE706203CE742F6CC40C0F6000000EBAC
:1021E000C900D0F804A05046FDF7FCFF024640F2BB
:1021F0000800C2F20000514600F0D4F84FF0000988
:102200002BE700BF072E0008D91800084D3300083F
:1022100031190008192E0008311A0008413300084E
:10222000E51900085B330008891A0008F12D000841
:10223000AD190008E42D000881190008B0B547F277
:10224000FF71C4F2000188424FF000020EDC44F638
:10225000FF31C4F20001884217DC44F20041C4F2AD
:10226000000188421DD044F6000116E040F6FF71DF
:10227000C4F2010188427DDC47F60001C4F200018E
:1022800088420ED047F6004107E044F60041C4F210
:102290000001884205D045F20001C4F200018842E5
:1022A00047D14FF0000C43F60402C4F20202516819
:1022B00042F20043C1F381010229C0F2F40306D0C7
:1022C00001291ED141F20023C0F27A0319E0D2F8AD
:1022D00000E01168146815680EF03F0E6D0241F2BF
:1022E0000025C0F27A0558BF1D46B5FBFEF5C1F3C7
:1022F0008811C4F30144022303EB44036943B1FB97
:10230000F3F3516823A5C1F30311695CBCF1000F1D
:1023100023FA01F3516842F6DC5C5268C0F6000C07
:1023200014BFC2F34231C1F382211CF8011023FA19
:1023300001F2C16809040AD402F561414BF2C532C9
:10234000C9F2A212A1FB0212110C8160B0BD4FF4C0
:10235000614101EB42014BF2C532C9F2A212A1FB6D
:1023600002126FF00F0101EA1241C2F3424211441E
:102370008160B0BD41F20001C4F2010188424FF01A
:10238000010C90D041F20041C4F2010188428AD090
:10239000CFE700BF000000000000000001020304BE
:1023A000060708090FB4084B10B504A902AA039840
:1023B00000F0DEF8044602A9002000F070FC204680
:1023C00010BC5DF814FB00009F2C000802E008C858
:1023D000121F08C1002AFAD170477047002001E09F
:1023E00001C1121F002AFBD1704700002DE9FF5FD9
:1023F00082B00021DDE90430020DDDF840B0034376
:1024000018D044F61050A2F2FF324243151411982E
:1024100001281FD0A5EB0B00401C5FEA000A4FF01B
:1024200000064E4FDFF83891B046504615D5CAF138
:10243000000413E0119801244AA3012801D16FEA96
:102440000B010298119AC0E90031C0E9024206B0BE
:10245000BDE8F09FCBF10000DFE704460021404AD1
:10246000491842EB0450CDE9001012E0E00707D014
:1024700032463B4640464946FDF7C0FF8046894606
:1024800032463B4610461946FDF7B8FF06460F4652
:102490006410002CEAD1DDE90401DDE90023BAF182
:1024A000000F06DAFDF7AAFF42464B46FDF7A6FFEE
:1024B00005E0FEF715F842464B46FEF711F80446D4
:1024C0000E460022284BFEF793F803D84FF0FF305A
:1024D000014607E00022254B20463146FDF7E7FE86
:1024E000FEF76DF8102409E0002C0ADB0A22002315
:1024F000FDF7ACFE039B30321A55641E50EA010210
:10250000F2D1641C039AC4F111031444119A012AF4
:1025100003D0012208430DD10AE0084304D0002073
:102520004FF0110B119072E7A3EB0B056D1E0DE040
:102530005B4504DD4FF0000205F1010504E003DA1C
:102540004FF00002A5F10105002AECD00298119984
:10255000C0E90231C0E9004579E7000000001440FD
:102560000000F03F300000000000F0430000E03FBA
:102570002DE9FF4F95B09B468946064600250FE2A0
:10258000252877D100242746F84A0121059400E048
:10259000044316F8013F203B01FA03F01042F7D143
:1025A00030782A2811D06FF02F033078A0F1300254
:1025B000092A16D8059A44F0020402EB820203EBC2
:1025C00042021044761C0590EFE759F8042B05925F
:1025D000002A03DA504244F40054059044F0020407
:1025E000761C30782E2816D116F8010F44F004041A
:1025F0002A280DD06FF02F023078A0F13003092B7C
:1026000009D807EB870302EB4303C718761CF3E7EF
:1026100059F8047B761C30786C280FD006DC4C28E7
:1026200017D068280DD06A2814D104E0742810D07F
:102630007A280FD10DE044F400140AE044F4801429
:1026400001E044F440147278824202D104F580140F
:10265000761C761C307866280BD013DC582877D08F
:1026600009DC002875D04528F6D04628F4D0472844
:102670001AD19DE118E0632835D0642879D0652807
:1026800012D195E1702873D008DC6728F1D0692851
:102690006FD06E280DD06F2806D1B5E073282CD0EE
:1026A000752875D0782874D05A46179990476D1CB4
:1026B00075E1C4F30250022809D003280DD0D9F8DF
:1026C000001004280DD00D6009F1040967E1D9F864
:1026D0000010EA17C1E90052F6E7D9F800100D80A2
:1026E000F2E70D70F0E719F8041B8DF800100020D8
:1026F0008DF80100EA46012003E059F804AB4FF0E1
:10270000FF3061074FF0000102D40DE008F1010134
:102710008846B9420FDA8045F8DB1AF8081000291C
:10272000F4D108E008F1010188468142FADB1AF889
:1027300008100029F6D105985B46A0EB0807214652
:102740003846179A00F094FA284400EB080507E091
:102750004DE029E10DE01AF8010B5A461799904710
:10276000B8F10108F7D25B4621463846179A13E1C3
:1027700042E00A220092C4F302524FF0000A022AF9
:1027800008D059F804CB032A4FEAEC710AD00DE0C7
:1027900029E02AE009F1070121F00702F2E802C16D
:1027A000914609E00FFA8CFC4FEAEC71042A03D140
:1027B0004FFA8CFC4FEAEC71002907DA0A46002137
:1027C000DCF1000C61EB02012D2202E0220504D5B0
:1027D0002B228DF80420012203E0E20701D0202201
:1027E000F7E7904659E00A2102E010220DE010219F
:1027F0004FF0000A00910BE010224FF0000A44F065
:1028000004040827009203E008224FF0000A009217
:10281000C4F30252022A05D059F804CB0021032A3E
:1028200008D009E009F1070121F00702F2E802C12E
:10283000914605E01FFA8CFC042A01D10CF0FF0C34
:102840004FF00008220728D5702806D0009B83F09F
:10285000100353EA0A0305D00EE040228DF804204D
:10286000012208E05CEA010206D030228DF8042043
:102870008DF8050002229046009B83F0080353EA7E
:102880000A030AD15CEA010201D1620705D53022B0
:102890008DF804204FF001087F1E582804D034A082
:1028A00003900EA802900DE036A0F9E7534660466B
:1028B000009AFDF7CBFC84460398825C0298401E88
:1028C000029002705CEA0100F0D1029806A9081A91
:1028D00000F1200A600702D524F4803400E00127CB
:1028E000574502DDA7EB0A0000E0002000EB0A01DB
:1028F000009005984144401A0590E00306D45B46D9
:102900002146179A059800F0B3F90544002706E020
:1029100001A85A46C05D179990476D1C7F1C47451A
:10292000F6DBE0030CD55B462146179A059800F0CC
:102930009FF9054404E030205A46179990476D1CD2
:102940000099481E00900029F5DC08E002980299E1
:102950005A460078491C0291179990476D1CBAF1AC
:102960000001AAF1010AF1DC65E10000092801007B
:1029700030313233343536373839616263646566F5
:1029800000000000303132333435363738394142B7
:10299000434445460000000000F058F90544761C09
:1029A000307800287FF4ECAD19B02846BDE8F08FF0
:1029B000620700D4062709F1070222F0070CFCE8A1
:1029C0000223E14603F000485FEA080C02D00FF250
:1029D000702C0DE05FEA045C02D50FF2682C07E072
:1029E0005FEAC47C02D00FF2602C01E0AFF2700C01
:1029F0004FF0FF3823F00043CDF850C065280CD0CD
:102A000006DC452809D046281DD047283DD13DE0A9
:102A1000662818D067287ED138E00021112F01DB0D
:102A2000112000E0781CCDE9000106A90EA8FFF7EF
:102A3000DDFCDDE90F010E9A03910021009207F100
:102A4000010A04914DE04FF000400097CDE90110DC
:102A500006A90EA8FFF7CAFCDDE90F0203920E9B40
:102A600011990022DDF80CA00093049211B9791C91
:102A700000EB010AB7EB0A0004D4C0F1FF3007F104
:102A8000010A0490AAEB0700019044E0012F00DA4C
:102A900001270021112F01DD112000E03846CDE98A
:102AA000000106A90EA8FFF7A1FCDDE90F010E9AAF
:102AB0000391002104910092BA4621070CD4039996
:102AC000514500DA8A46BAF1010F05DD009AAAF1F4
:102AD0000101515C302908D0B84202DA10F1040F2C
:102AE00006DA0121CDE9011015E0AAF10101E9E7BB
:102AF000002805DC049901440491AAEB000102E0DE
:102B0000411C514500DD8A460499401A401C019041
:102B10004FF000400290200704D40198504501DB9B
:102B2000CDF8048000208DF84F0002980DF14F077A
:102B3000B0F1004F25D02B200E9002984FF00208E4
:102B400000280CDA404202902D200E9007E00A2166
:102B50000298FDF765FB3031029007F8011DB8F1CE
:102B60000001A8F10108F2DC02980028EFD1791EDB
:102B70000E980870307800F0200040F0450007F80B
:102B8000020D12A8C01B00F107081498007800B1CC
:102B9000012000EB0A01019801EBE0710598414426
:102BA000401A401E0590E00306D45B462146179A62
:102BB000059800F05DF805441498007818B15A465D
:102BC000179990476D1CE00324D55B462146179A60
:102BD000059800F04DF805441CE00498002807DB38
:102BE000DDE90301884203DD0098405C179901E0AC
:102BF000179930205A469047049805F10105401C6A
:102C000004900198401E019004D12E205A46179935
:102C100090476D1CBAF10001AAF1010ADDDC05E064
:102C200017F8010B5A46179990476D1CB8F100012F
:102C3000A8F10108F4DC5B462146179A0598ABE63B
:102C40002D0000002B000000200000002DE9F041C5
:102C5000044600251E461746880404D405E039467C
:102C60002020B0476D1C641EF9D52846BDE8F081D0
:102C70002DE9F041044600251E469046C80301D5C3
:102C8000302700E02027880404D505E04146384677
:102C9000B0476D1C641EF9D52846BDE8F0810A686E
:102CA000531C0B601070704710B5044601E0FEF72E
:102CB000B7FC14F8010B04490028F8D1BDE8104016
:102CC0000A20FEF7ADBC000000000020D83100084B
:102CD000EB3100084D2F0008612F0008D9300008A3
:102CE00015320008FB3000083D3200081D31000895
:102CF000653200083F3100088D320008613100085C
:102D0000B532000883310008DD320008A531000823
:102D100005330008B631000819330008C731000830
:102D20002D330008C830000801320008EA300008DE
:102D3000293200080C310008513200082E310008F9
:102D40007932000850310008A132000872310008C1
:102D5000C932000894310008F13200083F2E000803
:102D60008D2F0008632E0008B72F0008872E00085B
:102D7000E12F0008AB2E00080B300008CF2E000812
:102D800035300008F32E00085F300008172F0008C8
:102D900089300008292F00089E3000083B2F0008CA
:102DA000B33000082D2E0008782F0008512E00089F
:102DB000A22F0008752E0008CC2F0008992E0008BD
:102DC000F62F0008BD2E000820300008E12E000874
:102DD0004A300008052F0008743000080000000089
:102DE000010203046765745F6469655F69640D0AC5
:102DF000006765745F6D616E756661637475726599
:102E0000725F69640D0A006765745F6275735F764F
:102E10006F6C746167650D0A006765745F73687530
:102E20006E745F766F6C746167650D0A004368614C
:102E30006E6E656C31305F636C6F73650D0A0043B5
:102E400068616E6E656C30315F636C6F73650D0A1F
:102E5000004368616E6E656C31315F636C6F7365E2
:102E60000D0A004368616E6E656C30325F636C6F93
:102E700073650D0A004368616E6E656C31325F6385
:102E80006C6F73650D0A004368616E6E656C30335C
:102E90005F636C6F73650D0A004368616E6E656CED
:102EA00031335F636C6F73650D0A004368616E6E4A
:102EB000656C30345F636C6F73650D0A0043686145
:102EC0006E6E656C31345F636C6F73650D0A004321
:102ED00068616E6E656C30355F636C6F73650D0A8B
:102EE000004368616E6E656C31355F636C6F73654E
:102EF0000D0A004368616E6E656C30365F636C6FFF
:102F000073650D0A004368616E6E656C31365F63F0
:102F10006C6F73650D0A004368616E6E656C3037C7
:102F20005F636C6F73650D0A004368616E6E656C5C
:102F300030385F636C6F73650D0A004368616E6EB5
:102F4000656C30395F636C6F73650D0A00436861AF
:102F50006E6E656C5F616C6C5F636C6F73650D0AA0
:102F6000004368616E6E656C5F69735F616C6C5F76
:102F7000636C6F73650D0A004368616E6E656C313A
:102F8000305F69735F636C6F73650D0A004368613E
:102F90006E6E656C30315F69735F636C6F73650D66
:102FA0000A004368616E6E656C31315F69735F63FF
:102FB0006C6F73650D0A004368616E6E656C30322C
:102FC0005F69735F636C6F73650D0A004368616EC0
:102FD0006E656C31325F69735F636C6F73650D0A88
:102FE000004368616E6E656C30335F69735F636C5C
:102FF0006F73650D0A004368616E6E656C31335FF7
:1030000069735F636C6F73650D0A004368616E6E70
:10301000656C30345F69735F636C6F73650D0A00B4
:103020004368616E6E656C31345F69735F636C6FAA
:1030300073650D0A004368616E6E656C30355F69BB
:10304000735F636C6F73650D0A004368616E6E6534
:103050006C31355F69735F636C6F73650D0A004394
:1030600068616E6E656C30365F69735F636C6F7339
:10307000650D0A004368616E6E656C31365F697379
:103080005F636C6F73650D0A004368616E6E656CFB
:1030900030375F69735F636C6F73650D0A00436857
:1030A000616E6E656C30385F69735F636C6F7365FA
:1030B0000D0A004368616E6E656C30395F69735F3D
:1030C000636C6F73650D0A004368616E6E656C31E9
:1030D000305F6F70656E0D0A004368616E6E656CDF
:1030E00030315F6F70656E0D0A004368616E6E650A
:1030F0006C31315F6F70656E0D0A004368616E6EF2
:10310000656C30325F6F70656E0D0A004368616EEA
:103110006E656C31325F6F70656E0D0A00436861D9
:103120006E6E656C30335F6F70656E0D0A004368BC
:10313000616E6E656C31335F6F70656E0D0A0043B2
:1031400068616E6E656C30345F6F70656E0D0A007D
:103150004368616E6E656C31345F6F70656E0D0A29
:10316000004368616E6E656C30355F6F70656E0D23
:103170000A004368616E6E656C31355F6F70656E15
:103180000D0A004368616E6E656C30365F6F706566
:103190006E0D0A004368616E6E656C31365F6F704C
:1031A000656E0D0A004368616E6E656C30375F6F47
:1031B00070656E0D0A004368616E6E656C30385F35
:1031C0006F70656E0D0A004368616E6E656C303914
:1031D0005F6F70656E0D0A004368616E6E656C5FAF
:1031E000616C6C5F6F70656E0D0A004368616E6E96
:1031F000656C5F69735F616C6C5F6F70656E0D0A03
:10320000004368616E6E656C31305F69735F6F702B
:10321000656E0D0A004368616E6E656C30315F69E2
:10322000735F6F70656E0D0A004368616E6E656C4A
:1032300031315F69735F6F70656E0D0A00436861BD
:103240006E6E656C30325F69735F6F70656E0D0A0C
:10325000004368616E6E656C31325F69735F6F70D9
:10326000656E0D0A004368616E6E656C30335F6990
:10327000735F6F70656E0D0A004368616E6E656CFA
:1032800031335F69735F6F70656E0D0A004368616B
:103290006E6E656C30345F69735F6F70656E0D0ABA
:1032A000004368616E6E656C31345F69735F6F7087
:1032B000656E0D0A004368616E6E656C30355F693E
:1032C000735F6F70656E0D0A004368616E6E656CAA
:1032D00031355F69735F6F70656E0D0A0043686119
:1032E0006E6E656C30365F69735F6F70656E0D0A68
:1032F000004368616E6E656C31365F69735F6F7035
:10330000656E0D0A004368616E6E656C30375F69EB
:10331000735F6F70656E0D0A004368616E6E656C59
:1033200030385F69735F6F70656E0D0A00436861C6
:103330006E6E656C30395F69735F6F70656E0D0A14
:10334000006765745F706F7765720D0A006765745A
:103350005F63757272656E740D0A00756C6F636BD6
:103360005F616C6572740D0A000000009033000804
:103370000000002008000000CC230008983300085B
:103380000800002068170000DC230008000000008F
:08339000000000000000000035
:04000005080001AD41
:00000001FF
