S31508000000E0120020C1010008DD030008D50300083E
S31508000010D903000809030008090A000800000000BF
S31508000020000000000000000000000000E5030008D2
S31508000030D103000800000000E1030008E9030008F6
S31508000040DB010008DB010008DB010008DB01000812
S31508000050DB010008DB010008DB010008DB01000802
S31508000060DB010008DB010008DB010008DB010008F2
S31508000070DB010008DB010008DB010008DB010008E2
S31508000080DB010008DB010008DB010008DB010008D2
S31508000090DB010008DB010008DB010008DB010008C2
S315080000A0DB010008DB010008DB010008DB010008B2
S315080000B0DB010008DB010008DB010008DB010008A2
S315080000C0DB010008DB010008DB010008DB01000892
S315080000D0DB01000815060008DD070008DB0100083B
S315080000E0DB010008DB010008DB010008DB01000872
S315080000F0DB010008DB010008DB010008DB01000862
S31508000100DB010008DB010008DB010008DB01000851
S31508000110DB010008DB010008DB010008DB01000841
S31508000120DB010008DB010008DB010008DB01000831
S31508000130DB010008DB010008DB010008DB01000821
S31508000140DB0100080D030008DB010008DB010008DD
S31508000150DB010008DB010008DB010008DB01000801
S31508000160DB010008DB010008DB010008DB010008F1
S31508000170DB010008DB010008DB01000800000000C5
S31508000180DB010008DB010008DB010008DB010008D1
S31508000190DB010008DB010008DB01000800000000A5
S315080001A0DB010008DB010008DB010008DFF80CD0E2
S315080001B000F078F80048004715130008E012002000
S315080001C00648804706480047FEE7FEE7FEE7FEE7E3
S315080001D0FEE7FEE7FEE7FEE7FEE7FEE7ED030008BB
S315080001E0AD01000840EA01039B0703D009E008C9EE
S315080001F0121F08C0042AFAD203E011F8013B00F8DE
S31508000200013B521EF9D27047D2B201E000F8012B29
S31508000210491EFBD270470022F6E710B513460A4678
S3150800022004461946FFF7F0FF204610BDCBB203E09F
S315080002300178994203D0401C521EF9D2002070471B
S315080002402DE9F05F0546002092469B4688460646FD
S31508000250814640241BE0284641464746224600F090
S3150800026042F853465A46C01A914110D311461846C9
S31508000270224600F029F82D1A67EB01084F46224658
S315080002800120002100F020F817EB00094E41201E3E
S31508000290A4F10104DFDC484631462A464346BDE858
S315080002A0F09F0000064C074D06E0E06840F00103A9
S315080002B094E8070098471034AC42F6D3FFF77AFF64
S315080002C0D81A0008F81A0008202A04DB203A00FA8F
S315080002D002F1002070479140C2F1200320FA03F38F
S315080002E0194390407047202A04DB203A21FA02F08D
S315080002F00021704721FA02F3D040C2F12002914052
S315080003000843194670470000FEE7000070B546F638
S3150800031000048425C4F20004C0F2010520462946DB
S3150800032000F082FC012822D105F1820620463146DA
S3150800033000F07AFC012806D12046314600F06CFC14
S3150800034015A001F0B7FB20464FF4C06100F0CCFBC6
S31508000350012802D115A001F0ADFB2046294600F080
S315080003605BFC40F6DC60C2F200000121017048F235
S315080003708A05C0F201052046294600F055FC0128E9
S3150800038018BF70BD2046294600F046FC0CA0BDE803
S31508000390704001F08FBB00BF43414E204649464F8F
S315080003A031206F766572666C6F77210043414E2067
S315080003B07761726E696E67206572726F72210000CE
S315080003C043414E20627573206F6666210000000067
S315080003D070470000FEE70000FEE7000070470000D7
S315080003E0704700007047000000F0F4BC81B04EF67C
S315080003F08851CEF200010A6843F6080042F47002FA
S31508000400C4F202000A6050F8081C4FF0000C41F0D4
S31508000410010140F8081C01684CF24F3241F0800196
S315080004200160CDF800C0009B934219D84CF25033B6
S315080004300099013100910099994211D20099013130
S315080004400091009991420BD80099013100910099C9
S31508000450914205D800990131009100999942E7D354
S31508000460016841F090010160CDF800C00099914201
S315080004701CD84CF250314CF24F3200BF009B01336E
S315080004800093009B8B4211D2009B01330093009B83
S3150800049093420BD8009B01330093009B934205D8E7
S315080004A0009B01330093009B8B42E7D301684FF60C
S315080004B0FF7221F00301016050F8081CCFF6F662BE
S315080004C0114040F8081C50F8081C21F4802140F817
S315080004D0081C00210160026843F21002C2F20042C1
S315080004E040F8042C416050F8081C41F4803140F86B
S315080004F0081C4FF6FC7100BF50F8082C92035CBF2D
S3150800050050F8082C5FEA82320AD450F8082C39B120
S3150800051012F4003204D150F8082C04399203EBD5B2
S3150800052050F8081C890300D4FEE7826B47F20401E1
S3150800053042F08052C4F20001826351F8042C42F45E
S31508000540404241F8042C02680260026842F4004204
S315080005500260026842F4A052026047F60802C0F63A
S31508000560402240F8042C50F8082C42F0807240F8DB
S31508000570082C00BF50F8082C92015FBF50F8082CD1
S315080005805FEA821250F8082C5FEA821203D450F808
S31508000590082C9201EED551F8042C42F4803241F829
S315080005A0042C00BF0A68D2035FBF0A685FEAC2323A
S315080005B00A685FEAC23202D40A68D203F2D551F851
S315080005C0042C42F4003241F8042C00BF0A68920356
S315080005D05FBF0A685FEA82320A685FEA823202D43B
S315080005E00A689203F2D5016821F0030101600168E7
S315080005F041F0020101600168090709D40168090789
S315080006005CBF01685FEA017102D401680907F2D587
S3150800061001B070472DE9F04141F2000440F200555F
S31508000620C4F20104C0F2010505F50031204600F0C8
S31508000630DDFF80B92046294600F0D8FF58B905F5F0
S315080006408031204600F0D2FF28B920464FF4427187
S3150800065000F0CCFFA8B12046032100F0A7FF2046F2
S3150800066000F09CFF40F6E040C2F20000FA21FFF7D6
S31508000670D2FD40F6DA50C2F2000000210170BDE852
S31508000680F08140F20435C0F2040505F10111204657
S3150800069000F0ACFF012811D140F6DA56C2F2000686
S315080006A03778204600F07AFFF82F07D831784A1CA9
S315080006B0327040F6E042C2F2000250542046294603
S315080006C000F094FF012848D1204600F067FF40F665
S315080006D0DA58C2F2000898F80060A6B340F6E0407F
S315080006E0C2F2000040F60A513246FFF79FFD50B3AA
S315080006F040F28A00C2F20000017869B1074617F88D
S31508000700FC1F61B190F8F81159B190F8F412D1B9FB
S3150800071000F53D77032107E00021074604E00121A3
S3150800072002E000F5FC770221C1EB811100EB8100A4
S3150800073040F6E04146700230C2F200013246FFF749
S3150800074051FD0120387040F6E040C2F20000FA215F
S31508000750FFF761FD002088F8000005F10311204627
S3150800076000F044FF01281AD140F20800C2F2000046
S31508000770017879B940F6DC42C2F200021178437872
S31508000780994207D208444B1C81782046137000F022
S3150800079009FF04E0204640F2073100F01BFF05F18F
S315080007A00211204600F022FF012818BFBDE8F0819B
S315080007B0204640F2063100F00DFF40F20800C2F272
S315080007C000000121017040F6DC41C2F2000100225E
S315080007D001200A70BDE8F04100F040BD2DE9F04364
S315080007E081B044F2004440F20055C4F20004C0F25D
S315080007F0010505F50031204600F0F8FE80B92046CF
S31508000800294600F0F3FE58B905F58031204600F078
S31508000810EDFE28B920464FF4427100F0E7FEB0B16C
S315080008202046032100F0C2FE204600F0B7FE40F63F
S31508000830DC50C2F20000FA21FFF7EDFC40F6D66064
S31508000840C2F200000021017001B0BDE8F08340F259
S315080008500435C0F2040505F10111204600F0C6FE74
S31508000860012811D140F6D666C2F20006377820462E
S3150800087000F094FEF82F07D831784A1C327040F6FB
S31508000880DC52C2F2000250542046294600F0AEFE61
S3150800089001286FD1204600F081FE40F6D666C2F2E6
S315080008A000063278002A5CD040F6DC50C2F200001E
S315080008B040F60A51FFF7BAFC002852D040F2FC482D
S315080008C0C2F2000898F80000D0B1474617F8FC0FA6
S315080008D0D0B198F8F801D0B198F8F402E0B198F8D8
S315080008E0F003F0B198F8EC0400B398F8E80510B3F3
S315080008F098F8E406A8BB08F2E4674FF007091EE07B
S315080009004FF0000947461AE04FF0010917E008F5CD
S31508000910FC774FF0020912E008F53D774FF003091E
S315080009200DE008F57C774FF0040908E008F2EC477B
S315080009304FF0050903E008F5BD674FF006090220E8
S3150800094000F0AAFC3278C9EB891008EB800040F663
S31508000950DC5142700230C2F20001FFF743FC01206D
S31508000960387040F6DC50C2F20000FA21FFF753FC5B
S315080009700020307005F10311204600F037FE0128EB
S315080009801AD140F27A40C2F20000017879B940F6ED
S31508000990DB52C2F2000211784378994207D2084422
S315080009A04B1C81782046137000F0FCFD04E02046BD
S315080009B040F2073100F00EFE05F10211204600F064
S315080009C015FE01281CBF01B0BDE8F083204640F2A1
S315080009D0063100F0FFFD40F27A40C2F20000012124
S315080009E0017040F6DB50C2F200000021017004F5E8
S315080009F0EA304FF4005100F079FA022001B0BDE860
S31508000A00F04300F02BBC0000FEE7000010B546F2EC
S31508000A100041C4F2000140F61A04884208BF40F6B5
S31508000A201904204600F0AAFD2046BDE8104000F053
S31508000A3095BD0000B0B546F20061C4F200014489D4
S31508000A400A684FF0010C42F001020A60CB690CFA01
S31508000A5004F5AB43CB61C3896FEA050C012B10D0B3
S31508000A6023BBCB6803EA0C03CB60B0F806E04388E7
S31508000A7043EA0E434FEAC40E01EBC404236403465B
S31508000A800DE0CB682B43CB60B0F800E0438843EA1F
S31508000A900E434FEAC40E01EBC4042364831D848805
S31508000AA01B8843EA044301EB0E04636483894C689C
S31508000AB0002B44EA050208BF04EA0C024A600289D0
S31508000AC04B69002A43EA050408BF03EA0C044C6193
S31508000AD0007C012802D1C8692843C861086820F04B
S31508000AE001000860B0BD00008A09105801F01F0116
S31508000AF0C84000F00100704710B5026840F2040CC7
S31508000B0022F0020202600268CFF6FF7C42F0010280
S31508000B10634602604268D20701BF42685FEAC27252
S31508000B2042685FEAC27206D1426823B112F0010236
S31508000B3003F10403EED04268D20704BF002010BDBB
S31508000B400A784B7891F802E0CC78920763F3196239
S31508000B500EF00F0342EA034204F007034C8942EA07
S31508000B600352631E6FF39F231A44C2610A7903680E
S31508000B70012A23F0800308BF803303604A7903689B
S31508000B80012A23F0400308BF403303608A790368CB
S31508000B90012A23F0200308BF20330360CA790368BB
S31508000BA0002A23F0100308BF103303600A7A03688B
S31508000BB0002A23F0080308BF08330360497A02684D
S31508000BC0012922F0040208BF04320260016821F0FC
S31508000BD0010101604168C90717D04168C9071CBFF0
S31508000BE041685FEAC1710ED04368BCF1000F6146E7
S31508000BF018BF0121BCF1000F08D013F001020CF157
S31508000C00040CE7D102E0012010BD0121084610BD01
S31508000C104269114341617047C1F38412012303FA03
S31508000C2002F2090B0A50704748F2CB02C0F20102E1
S31508000C3091420CD08422C0F2010291420BD04CF2B0
S31508000C40810291420BD1C26802F0030210E0826968
S31508000C50C2F302120CE0026902F0030208E00A0B72
S31508000C6052F800C0C1F3841301229A4002EA0C022A
S31508000C70406901F01F01C840002A18BF0122104030
S31508000C807047000010B502468068400109D4906894
S31508000C90000108D49068C0005CBF032010BD022084
S31508000CA002E0002000E0012002EB0012D2F88031B9
S31508000CB003F00103C2F8803191F808C0BCF1000FB7
S31508000CC003D04B684CEAC30C02E00B684FEA435C5E
S31508000CD04B7A91F80AE0D2F8804143EA0C032343A1
S31508000CE0C2F88031D2F8843123F00F03C2F8843178
S31508000CF0D2F8843143EA0E03C2F88431D1F80B30B6
S31508000D00C2F88831D1F80F10C2F88C11D2F88011C8
S31508000D1041F00101C2F8801110BD000003280FD868
S31508000D20DFE800F0020F18200120C0F2FF308860CB
S31508000D304FF0807048604FF400300860704700BF7D
S31508000D40FEE700204FF480320874CA6008604860E5
S31508000D50886070470020C1F80F00C1E90000C1E9AA
S31508000D60020070470020C1E90000C1E902000861DD
S31508000D7070470000022984BF0220704749B212A2B8
S31508000D8052F821108068084040F2FF21C0F60001A1
S31508000D90884209DC002804BF022070470321C0F2FC
S31508000DA0004188420BD00CE040F20031C0F6000149
S31508000DB0884204D00021C1F20301884201D10120F2
S31508000DC070470020704700BF0300000400030008B6
S31508000DD00000031040F6D860C2F20000016800293E
S31508000DE008BF70470168013901607047B0B541F224
S31508000DF000050446C4F201052846072100F0E2FB77
S31508000E000028F9D0E1B2284600F0CCFB2846062196
S31508000E1000F0D8FB0028F9D02046B0BD10B5036A0B
S31508000E20D40723F00F0ED0F824C018BF4EEA0103EA
S31508000E3023F0F00E940748BF4EEA011323F4706EB0
S31508000E40540748BF4EEA012323F4704E140748BFDF
S31508000E504EEA013323F4702ED40648BF4EEA014306
S31508000E6023F4700E940648BF4EEA015323F0706EC1
S31508000E70540648BF4EEA016323F0704E140648BF75
S31508000E804EEA01732CF00F0ED40548BF4EEA010C4A
S31508000E902CF0F00E940548BF4EEA011C2CF4706E37
S31508000EA0540548BF4EEA012C2CF4704E140548BF71
S31508000EB04EEA013C2CF4702ED40448BF4EEA014C8D
S31508000EC02CF4700E940448BF4EEA015C2CF0706E48
S31508000ED0540448BF4EEA016C2CF07044120448BF13
S31508000EE044EA017C0362C0F824C010BD81617047E2
S31508000EF01823002A08BF28231950704710B541F255
S31508000F00190000F01BFB41F21A0000F017FB40F62F
S31508000F10014000F013FB40F20044C4F202042046EC
S31508000F20002102224FF4807300F00EF920460221B8
S31508000F3000224FF4807300F04BF8204609214FF445
S31508000F408072FFF76BFF2046002102224FF40073E0
S31508000F5000F0FAF82046022100224FF4007300F050
S31508000F6037F8204609214FF40072FFF757FF20464D
S31508000F70002102224FF4805300F0E6F820460221B1
S31508000F8000224FF4805300F023F8204609214FF43D
S31508000F908052FFF743FF2046002102224FF40053F8
S31508000FA000F0D2F82046022100224FF4005300F048
S31508000FB00FF8204609214FF40052BDE81040FFF70C
S31508000FC02DBF00000069084018BF012070470000C7
S31508000FD02DE9F0430568D0F80C804FF0000C4FF06F
S31508000FE0030E002606E000BF0136102E0CF1100C89
S31508000FF000F0A58023FA06F7FF070BD00EFA0CF7C8
S31508001000BD4301FA0CF4254328EA070402FA0CF753
S3150800101044EA0708013623FA06F4E4070FD00CF170
S3150800102002040EFA04F725EA070901FA04F528EA84
S31508001030070702FA04F445EA090547EA04080136EF
S3150800104023FA06F4E4070FD00CF104040EFA04F7A9
S3150800105025EA070901FA04F528EA070702FA04F45B
S3150800106045EA090547EA0408013623FA06F4E407BF
S315080010700FD00CF106040EFA04F725EA070901FA5F
S3150800108004F528EA070702FA04F445EA090547EAD7
S315080010900408013623FA06F4E4070FD00CF1080415
S315080010A00EFA04F725EA070901FA04F528EA0707FC
S315080010B002FA04F445EA090547EA0408013623FA60
S315080010C006F4E4070FD00CF10A040EFA04F725EA31
S315080010D0070901FA04F528EA070702FA04F445EABB
S315080010E0090547EA0408013623FA06F4E4070FD08F
S315080010F00CF10C040EFA04F725EA070901FA04F5BF
S3150800110028EA070702FA04F445EA090547EA040843
S31508001110013623FA06F4E4073FF466AF0CF10E0431
S315080011200EFA04F725EA070901FA04F528EA07077B
S3150800113002FA04F445EA090547EA040854E7056093
S31508001140C0F80C80BDE8F08370B50129416814BF6A
S31508001150994319434160D0F808E000214FF0030C89
S31508001160002404E00134102C01F1100172D023FA96
S3150800117004F5ED0707D00CFA01F52EEA050E02FA7A
S3150800118001F54EEA050E013423FA04F5ED0708D0F9
S315080011908D1C0CFA05F62EEA060602FA05F546EA4D
S315080011A0050E013423FA04F5ED0708D00D1D0CFAD7
S315080011B005F62EEA060602FA05F546EA050E013494
S315080011C023FA04F5ED0708D08D1D0CFA05F62EEA6C
S315080011D0060602FA05F546EA050E013423FA04F571
S315080011E0ED0709D001F108050CFA05F62EEA060600
S315080011F002FA05F546EA050E013423FA04F5ED0769
S3150800120009D001F10A050CFA05F62EEA060602FAD5
S3150800121005F546EA050E013423FA04F5ED0709D06B
S3150800122001F10C050CFA05F62EEA060602FA05F592
S3150800123046EA050E013423FA04F5ED0792D001F1CA
S315080012400E050CFA05F62EEA060602FA05F546EA32
S31508001250050E87E7C0F808E070BD000003280BD02C
S31508001260022812D0012818BF704740F60000C4F2C1
S3150800127002002021FFF73ABE40F60000C4F2020041
S31508001280A0F500608021FFF731BE40F60000C4F2E9
S3150800129002001021FFF72ABE10B5032815D0022830
S315080012A026D0012818BF10BD40F60004C4F2020477
S315080012B020462021FFF786FEC0F10100C2B2204673
S315080012C02021BDE81040FFF713BE40F60000C4F227
S315080012D00200A0F5006420468021FFF773FEC0F1E6
S315080012E00100C2B220468021BDE81040FFF700BECB
S315080012F040F60004C4F2020420461021FFF762FEFD
S31508001300C0F10100C2B220461021BDE81040FFF727
S31508001310EFBD00008CB046F60004C4F20004FFF7E7
S31508001320EDFD4120002100224FF0000900F0B2F83F
S315080013300DF1040B00205946FFF7F0FC06AE01201C
S3150800134031460125FFF7EAFC2046FFF75FFB4FF021
S31508001350012002904FF4A02003904FF08370019073
S3150800136020465946FFF7C8FB4FF480300990012004
S31508001370C0F20F0008903046CDE906998DF828503E
S31508001380FFF758FB20461021FFF742FC01A902206F
S31508001390FFF7C4FC4AF6BB2002900420ADF80C0007
S315080013A04AF20800CAF2A120CDF80E004AF2A3407C
S315080013B0CAF2A560CDF81200A7208DF8160021A064
S315080013C0CDF8049000F076FB06A90320FFF7A6FCEB
S315080013D040F2010A0FF29C08CFF6FF7A2BA700BF4E
S315080013E05FFA89F04E4610284FF00009F8D04046BB
S315080013F08DF80F6000F00CF99DF80E0068B10A250B
S315080014000BEB05004178384600F002F99DF80E000E
S31508001410A5F1090101358142F2D32046594606F164
S315080014200109FFF72FFC0646514600BF0D46204628
S315080014303146FFF79FFC002D05F10101D0D00128A8
S31508001440F4D1CDE7506C656173652070726573736E
S31508001450207468652054616D706572206B6579200B
S31508001460746F207472616E736D697420646174613F
S31508001470210D00000D0A2063616E207472616E737F
S315080014806D697420646174613A0000002025303269
S31508001490780000004EF60C5CCEF2000CDCF800304A
S315080014A003F4E063B3F5E06F01D104232AE0DCF826
S315080014B0003003F4E063B3F5C06F01D1032321E0E4
S315080014C0DCF8003003F4E063B3F5A06F01D1022322
S315080014D018E0DCF8003003F4E063B3F5806F01D15F
S315080014E001230FE0DCF8003003F4E063B3F5407F36
S315080014F001D1002306E040F20053C0F2FA53CCF8BB
S315080015000030022301FA03FCC3F104030F21D9407A
S3150800151011404EF2001241EA0C01CEF20002090116
S3150800152040EA020383F8001300F01F01012303FABF
S3150800153001F11C2303EAD0008150704743F60003EB
S3150800154000F01F018009C4F202034FF0010CC258D3
S315080015500CFA01F11143C1507047000043F600032D
S3150800156000F01F018009C4F202034FF0010CC258B3
S315080015700CFA01F122EA0101C150704743F6000353
S3150800158000F01F018009C4F202034FF0010CC25893
S315080015900CFA01F11143C1507047000040686FF31F
S315080015A05F2070476FF35F214160704701F01F02AB
S315080015B089094FF0010C0B580CFA02F223EA0202D1
S315080015C00A5070478A09105801F01F01C84000F0F8
S315080015D00100704701F01F0289094FF0010C0B58F2
S315080015E00CFA02F223EA02020A507047C1F3891282
S315080015F052F800C08A0D105801F01F03C1F30441C8
S31508001600C8402CFA03F1084000F0010070470000BA
S315080016100FB4054B10B503A9044A029800F018F850
S3150800162010BC5DF814FB0000ED0D0008000000205A
S3150800163002E008C8121F08C1002AFAD1704770478D
S31508001640002001E001C1121F002AFBD170470000EB
S315080016502DE9FF4F8DB00F460546002606E02528E2
S315080016600BD0DDE90F1290476D1C761C28780028F0
S31508001670F5D111B03046BDE8F08F0024A246A14648
S315080016800122EC4900E0044315F8013F203B02FA29
S3150800169003F00842F7D128782A2810D06FF02F02D5
S315080016A02878A0F13001092914D80AEB8A0102EB3F
S315080016B0410144F0020400EB010A6D1CF0E701CF7A
S315080016C05FEA000A03D544F40054CAF1000A44F05C
S315080016D002046D1C28782E2817D115F8010F44F03E
S315080016E004042A280ED06FF02F022878A0F13001C2
S315080016F009290AD809EB890102EB410100EB010926
S315080017006D1CF2E757F8049B6D1C28786C280FD0DF
S3150800171006DC4C2817D068280DD06A2814D104E0B6
S31508001720742810D07A280FD10DE044F400140AE08A
S3150800173044F4801401E044F440146978814202D1EB
S3150800174004F580146D1C6D1C2A786E2A1FD00CDCDB
S31508001750632A31D004DC002A8BD0582A11D1A3E0A1
S31508001760642A68D0692A0CD165E0732A2ED004DC75
S315080017706F2A73D0702A04D19BE0752A6FD0782A15
S315080017806ED01046DDE90F129047761C50E1C4F37F
S315080017900250022806D0032809D0042801CF09D010
S315080017A0066045E101CFF117C0E9006140E101CFCC
S315080017B006803DE106703BE117F8040B8DF8000042
S315080017C000208DF80100EB46012003E057F804BB22
S315080017D04FF0FF3061074FF0000102D40DE008F129
S315080017E00101884649450FDA8045F8DB1BF80810E1
S315080017F00029F4D108E008F1010188468142FADBA4
S315080018001BF808100029F6D1DDE90F23AAEB08001A
S315080018108146214600F036F9304400EB080604E01C
S31508001820DDE90F121BF8010B9047B8F10108F7D252
S3150800183021464846F7E00A21C4F302534FF0000B4D
S315080018400891022B04D001CFC117032B09D00AE057
S31508001850FF1D27F00707F7E8020108E032E01FE05E
S3150800186020E000B2C117042B01D140B2C117031EF4
S3150800187071F1000307DA4FF0000CD0EB0C006CEBAB
S3150800188001012D2302E0230504D52B238DF82430EE
S31508001890012303E0E30701D02023F7E7984658E041
S315080018A00A2110E010210EE010204FF0000B0890DE
S315080018B00CE010214FF0000B44F004044FF0080927
S315080018C0089103E008214FF0000B0891C4F3025376
S315080018D0022B04D001CF0021032B06D006E0FF1D02
S315080018E027F00707F7E8020103E080B2042B00D1CE
S315080018F0C0B24FF0000823072BD5702A07D0DDF8B1
S3150800190020C08CF0100C5CEA0B0C05D00EE04023CE
S315080019108DF82430012308E050EA010306D030236D
S315080019208DF824308DF8252002239846DDF820C04E
S315080019308CF0080C5CEA0B0C0BD150EA010301D1C0
S31508001940630706D530238DF824304FF00108A9F136
S315080019500109582A04D038A20B9208AA0A920BE069
S315080019603AA2F9E75B46089AFEF76AFC0B9B9B5C72
S315080019700A9A521E0A92137050EA0102F2D10A9884
S31508001980ADEB000000F1200B600702D524F480348B
S3150800199001E04FF00109D94502DDA9EB0B0000E093
S315080019A0002000EB0B0141440890AAEB010AE00372
S315080019B006D4DDE90F232146504600F063F80644B5
S315080019C04FF0000908E009A911F80900DDE90F122E
S315080019D0904709F10109761CC145F4DBE0030CD5F3
S315080019E0DDE90F232146504600F04CF8064404E092
S315080019F0DDE90F1230209047761C0899481E08909A
S31508001A000029F5DC08E00A980A990078491C0A9129
S31508001A10DDE90F129047761CBBF10001ABF1010B13
S31508001A20F1DC21465046DDE90F2300F019F806449B
S31508001A306D1C1BE609280100303132333435363740
S31508001A4038396162636465660000000030313233FC
S31508001A50343536373839414243444546000000009C
S31508001A602DE9F041044600251E461746880404D48D
S31508001A7005E039462020B0476D1C641EF9D5284676
S31508001A80BDE8F0812DE9F041044600251E46904642
S31508001A90C80301D5302700E02027880404D505E0CF
S31508001AA041463846B0476D1C641EF9D52846BDE840
S31508001AB0F081000010B5044601E0FFF797F914F825
S31508001AC0010B04490028F8D1BDE810400A20FFF7A9
S31508001AD08DB9000000000020F81A00080000002058
S31508001AE00800000030160008001B00080800002047
S31508001AF0D812000040160008000000000000000090
S705080001AD44
