S3150800000030170020C1010008650C0008990800088F
S31508000010610C0008CD0700089517000800000000CD
S31508000020000000000000000000000000310E00087B
S315080000309508000800000000690C0008291100084E
S31508000040DB010008DB010008DB010008DB01000812
S31508000050DB010008DB010008DB010008DB01000802
S31508000060DB010008DB010008DB010008DB010008F2
S31508000070DB010008DB010008DB010008DB010008E2
S31508000080DB010008DB010008DB010008DB010008D2
S31508000090DB010008DB010008DB010008DB010008C2
S315080000A0DB010008DB010008DB010008DB010008B2
S315080000B0DB010008DB010008DB010008DB010008A2
S315080000C0DB010008DB010008DB010008DB01000892
S315080000D0DB0100085513000869150008DB01000854
S315080000E0DB010008DB010008DB010008DB01000872
S315080000F0DB010008DB010008DB010008DB01000862
S31508000100DB010008DB010008DB010008DB01000851
S31508000110DB010008DB010008DB010008DB01000841
S31508000120DB010008DB010008DB010008DB01000831
S31508000130DB010008DB010008DB010008DB01000821
S31508000140DB010008D1070008DB010008DB01000815
S31508000150DB010008DB010008DB010008DB01000801
S31508000160DB010008DB010008DB010008DB010008F1
S31508000170DB010008DB010008DB01000800000000C5
S31508000180DB010008DB010008DB010008DB010008D1
S31508000190DB010008DB010008DB01000800000000A5
S315080001A0DB010008DB010008DB010008DFF80CD0E2
S315080001B000F06CFA00480047C923000830170020F1
S315080001C00648804706480047FEE7FEE7FEE7FEE7E3
S315080001D0FEE7FEE7FEE7FEE7FEE7FEE72D1100086D
S315080001E0AD01000840EA01039B0703D009E008C9EE
S315080001F0121F08C0042AFAD203E011F8013B00F8DE
S31508000200013B521EF9D27047D2B201E000F8012B29
S31508000210491EFBD270470022F6E710B513460A4678
S3150800022004461946FFF7F0FF204610BD421C10F899
S31508000230011B0029FBD1801A7047CBB203E0017875
S31508000240994203D0401C521EF9D20020704730B59F
S3150800025004460020034600E05B1C934203D2E05CA0
S31508000260CD5C401BF8D030BD00F0004230F00040B5
S315080002700AD0C10D01F56071C0F3160042EA0151BA
S31508000280C20840071143704700200146704730B541
S315080002900B46014600202022012409E021FA02F536
S315080002A09D4205D303FA02F5491B04FA02F52844D0
S315080002B0151EA2F10102F1DC30BD2DE9F05F0546FD
S315080002C0002092469B4688460646814640241BE007
S315080002D0284641464746224600F0F9F953465A460B
S315080002E0C01A914110D311461846224600F0E0F98B
S315080002F02D1A67EB01084F4622460120002100F01F
S31508000300D7F917EB00094E41201EA4F10104DFDCE2
S31508000310484631462A464346BDE8F09F2DE9FE4F3A
S31508000320804681EA0300C00F0C46009021F0004188
S3150800033023F00045B8EB0200A94105D24046214604
S3150800034090461C460B46024623F00040104347D011
S31508000350270DC7F30A00C3F30A510290401A019009
S3150800036040286BDAC3F3130040F4801B00989246CA
S3150800037020B10023D2EB030A63EB0B0B0198594615
S31508000380C0F14002504600F093F906460D46504625
S315080003905946019A00F0ABF910EB080061410024B8
S315080003A087EA115284EAE7731A4340D0009A62B387
S315080003B0019A012A4FEA075215DC001B61EB02017C
S315080003C04FF0004202EA0752CDE90042001C41F50F
S315080003D0801132462B4600F0ABF903B0BDE8F08F2A
S315080003E040462146F9E7001B61EB0201001C41F576
S315080003F0801300185B412018A2F5001747EB03018C
S3150800040040EAD570B6196D4111E06D084FEA360617
S3150800041045EAC0754FEA0752001B61EB0201001C52
S3150800042041F5801149084FEA30000019514132461A
S315080004302B4603B0BDE8F04F00F06BB900980122D7
S3150800044040000023D0EB020263EBE07300982146DC
S315080004504FEAE074B8EB000061EB0401E9E783F0CA
S3150800046000435BE781F0004158E72DE9FE4F81EA3A
S31508000470030404F0004421F0004100944FF0000BFF
S3150800048023F0004350EA01045ED052EA03045BD02D
S31508000490C3F30A54C1F30A552C44A4F2F334019465
S315080004A0A0FB0254C1F3130141F48011C3F31303F3
S315080004B043F4801301FB024400FB034E840A970AA7
S315080004C044EA815447EA8357A4FB076802958D0AD4
S315080004D005FB07854FEA932C04FB0C542705029D60
S315080004E04FEA065847EA1637B5EB08056EEB070CD0
S315080004F0870E920E47EA811742EA8312A7FB02018A
S31508000500B6EB0B0164EB00042B0D43EA0C335E18C3
S3150800051044EB1C50DA465146E7FB0201C5F31304C7
S315080005204FEA0B3343EA14534FEA0432019C43EA79
S315080005300603A4F10C040294009CCDE900B400F073
S31508000540F7F803B0BDE8F08F00200146F9E72DE97A
S31508000550F04D81EA030404F0004B21F000451446EF
S315080005604FF0000A23F0004150EA050220D054EA71
S3150800057001021DD0C5F30A570246C5F31303C1F39A
S315080005801300C1F30A5640F4801543F48013A7EB11
S315080005900608101BD64608F2FD3873EB050002D391
S315080005A008F1010801E092185B41B8F1000F03DA7F
S315080005B000200146BDE8F08D00204FF48011064664
S315080005C084460EE0171B73EB050705D3121B63EB76
S315080005D0050306434CEA010C49084FEA3000921815
S315080005E05B4150EA0107EDD152EA030012D082EAD4
S315080005F0040083EA0501084305D0101BAB4106D267
S315080006000122002306E000224FF0004302E06FF0CB
S31508000610010253101AEB06004CEB085110EB0A00C6
S3150800062041EB0B01BDE8F04D00F073B8C1F30A5277
S31508000630C1F3130140F2FF3341F480119A4202DA02
S3150800064000200146704740F233439A42A2F23342F1
S3150800065002DC524200F03BB800F02AB830B5041E5E
S3150800066071F1000404DB4FF00044404264EB0101E1
S31508000670141E73F1000405DB1C464FF0004352427A
S3150800068063EB0403994208BF904230BD064C074D00
S3150800069006E0E06840F0010394E807009847103444
S315080006A0AC42F6D3FFF786FDB4390008D439000802
S315080006B0202A04DB203A00FA02F100207047914014
S315080006C0C2F1200320FA03F3194390407047202A09
S315080006D004DB203A21FA02F00021704721FA02F3DE
S315080006E0D040C2F120029140084319467047202A9B
S315080006F006DBCB17203A41FA02F043EAE07306E03C
S3150800070041FA02F3D040C2F120029140084319464B
S31508000710704710B5141E73F1000408DA401C41F145
S31508000720000192185B411A4301D120F0010010BD67
S315080007302DE9F04D92469B4611B1B1FA81F202E0DD
S31508000740B0FA80F220329046FFF7B2FF04460F4611
S3150800075040EA0A0041EA0B0153465A46084313D0B9
S31508000760114653EA010019D0C8F140025046FFF776
S31508000770AEFF05460E46504659464246FFF798FFD5
S31508000780084305D0012004E020463946BDE8F08D2F
S315080007900020054346EAE0762C4337430A9863056A
S315080007A0E40AA0EB08000022FD0A44EA47540A308E
S315080007B002D500200146E9E7010510196941DDE97E
S315080007C0084500196941BDE8F04DA2E7FEE70000BB
S315080007D070B546F600048425C4F20004C0F201058B
S315080007E02046294601F076F9012822D105F182062C
S315080007F02046314601F06EF9012806D120463146D9
S3150800080001F060F915A002F063FD20464FF4C061BF
S3150800081001F0C0F8012802D115A002F059FD2046C2
S31508000820294601F04FF941F20530C2F200000121D4
S31508000830017048F28A05C0F201052046294601F0F2
S3150800084049F9012818BF70BD2046294601F03AF932
S315080008500CA0BDE8704002F03BBD00BF43414E20EE
S315080008604649464F31206F766572666C6F77210070
S3150800087043414E207761726E696E67206572726FAA
S315080008807221000043414E20627573206F6666210F
S315080008900000000070470000FEE7000080B5022057
S315080008A000F0A0F800EE100AB8EE400AB7EE041AF7
S315080008B09FED032A20EE010A80EE020A80BD00BFE2
S315080008C000007A4480B5042000F08CF800B200EEEF
S315080008D0100A40F20400C2F2000090ED041AB8EEC5
S315080008E0C00A9FED032A21EE000A80EE020A80BDA7
S315080008F000007A44FF2000F075B80000FE2000F0E2
S3150800090071B8000080B5032000F06CF800B200EE64
S31508000910100A40F20400C2F2000090ED041AB3EE89
S31508000920092AB8EEC00A21EE021A21EE000A80BD95
S3150800093080B5012000F056F800B2013000EE100A2A
S315080009409FED031AB8EEC00A20EE010A80BD00BF6B
S315080009500AD7233BB0B582B09C4613460A460146E1
S3150800096040F68400C2F20000CDF800C000F062FA3A
S3150800097040F20404C2F20004A078E1782279000368
S31508000980637940EAC13040EA4220A179E27940EA37
S31508000990831040EAC10040EA020540F6064001F02D
S315080009A001FE41F60000C4F20200002101224FF4C4
S315080009B0804301F045FAA9B2002000F055F8E18914
S315080009C0052000F051F82189062000F04DF8A1898C
S315080009D0072002B0BDE8B04000F046B8062000F097
S315080009E001B8000070B540F68404C2F2000405465A
S315080009F0204600F00DFB40F20406C2F200063078ED
S31508000A004000C1B2204600F061FB204600F0A8FA7B
S31508000A102046294600F05AFB204600F0A1FA204657
S31508000A2000F0F6FA307840000130C1B2204600F0F6
S31508000A304DFB204600F094FA204600F0B5FA40F641
S31508000A409005C2F2000528602046002100F020FB30
S31508000A502E68204600F0A8FA40EA062028602046BC
S31508000A6000F0FAFA288870BD70B540F68404C2F220
S31508000A700004064620460D4600F0CAFA40F2040075
S31508000A80C2F2000000784000C1B2204600F01EFB0A
S31508000A90204600F065FA2046314600F017FB20464E
S31508000AA000F05EFA290A204600F010FB204600F006
S31508000AB057FAE9B2204600F009FB204600F050FA42
S31508000AC02046BDE8704000F0C7BA00002DE9F04F97
S31508000AD081B040F2A20641F2283541F208374FF0BC
S31508000AE0000BC2F20006C2F20005C2F2000700249B
S31508000AF020E000203EA101EBC000406880470120AD
S31508000B0028703846FFF792FBC1B2384601F0A8F8BC
S31508000B105046FC2185F800B0C7E900BBC7E902BB0F
S31508000B20C7E904BBC7E906BBFFF775FBFC34B4F598
S31508000B30FC6F59D0305D06EB040A012844D19AF8B7
S31508000B4001900AF1020843F24F414046C0F60001FF
S31508000B504A46FFF77CFB0028CBD043F69511404662
S31508000B60C0F600014A46FFF772FB88B343F26141BB
S31508000B704046C0F600014A46FFF769FB50B343F604
S31508000B8089114046C0F600014A46FFF760FB18B3D4
S31508000B9043F6A3114046C0F600014A46FFF757FB45
S31508000BA0E0B143F239414046C0F600014A46FFF734
S31508000BB04EFBA8B143F22C414046C0F600014A4616
S31508000BC0FFF745FB70B100BF2878012899D0ADE73B
S31508000BD001208FE702208DE703208BE7042089E7B1
S31508000BE0052087E7062085E701B0BDE8F08F00BF3E
S31508000BF04F340008CD200008953900080D2100085B
S31508000C00613400080122000889390008C12100085A
S31508000C10A339000845220008393400088121000854
S31508000C202C3400084D21000810B54FF4406001F03F
S31508000C30B9FC40F6024001F0B5FC0024C4F20204F7
S31508000C40204600210222012301F0FAF804F500608B
S31508000C50002101224FF40053BDE8104001F0F0B81E
S31508000C60FEE7000070470000704700002DE9F04FCE
S31508000C7081B043F2143541F2083441F20438C0F623
S31508000C800005C2F20004C2F200084FF0000B28E08B
S31508000C9005EBC90046683046FFF7C8FA0246204603
S31508000CA0314601F093FE012088F800002046FFF740
S31508000CB0BDFAC1B2204600F0D3FF0020C4E9000007
S31508000CC0C4E90200C4E90400C4E9060088F8000083
S31508000CD05046FC21FFF79FFA0BF1010BBBF1080FF9
S31508000CE024D040F2A202CBEB8B10C2F2000212F81B
S31508000CF0201002EB800A012913D19AF801700AF133
S31508000D0002064FF0000900BF55F8391030463A463A
S31508000D10FFF79DFA0028BBD009F10109B9F1220FA6
S31508000D20F2D198F800000128C0D0D5E701B0BDE897
S31508000D30F08F000070B505464FF4406001F032FCB4
S31508000D404FF4406001F02EFC41F2110001F02AFC3C
S31508000D5044F20044C4F2000404F5DE3630460721A6
S31508000D60042200F0F7FF30460721082200F0F2FFC0
S31508000D70304602210122042301F062F8304602219E
S31508000D800122082301F05CF83046002102220423E0
S31508000D9001F012F9304600210222082301F00CF96D
S31508000DA0204601F0DBFC2046294601F06FFC204670
S31508000DB0002101F07BFD2046002101F093FD20462D
S31508000DC0002101F081FD26200021012201F036FBD9
S31508000DD02046082101F080FD2046042101F06EFD21
S31508000DE0204640F2053101F043FD20464FF441719B
S31508000DF001F03EFD204601F015FD40F6064001F0E3
S31508000E00D1FB04F5EA342046012100224FF40053B1
S31508000E1001F016F82046002102224FF4005301F093
S31508000E20CBF820464FF40051BDE8704000F0FABFF9
S31508000E307047000010B504460298216001F13E4152
S31508000E4001F1FF714FEAB1210829A280E3802081D0
S31508000E5023D800EB81024FF44060DFE801F01C055F
S31508000E60080B0E1114171A0040F6014013E040F65D
S31508000E70024010E040F603400DE040F604400AE068
S31508000E8040F6054007E040F6064004E040F6074015
S31508000E9001E040F6084001F085FB2068A38801219F
S31508000EA0012200F0CDFF2068E3880121012200F02D
S31508000EB0C7FF2068A3880121022201F07DF8206877
S31508000EC0E3880121022201F077F82068A18801222F
S31508000ED000F0AAFF0A2000F0F5FE2068E18801224A
S31508000EE000F0A2FF0A2000F0EDFE2068E18801224A
S31508000EF000F09AFF0A2000F0E5FE2068A18801228A
S31508000F0000F092FF0A2000F0DDFE2068E18800224A
S31508000F1000F08AFF0A2000F0D5FE2068A18800228A
S31508000F2000F082FF0A2000F0CDFE2068E18800224A
S31508000F3000F07AFF0A2000F0C5FE2068A188012289
S31508000F4000F072FF0A2000F0BDFE2068E188012249
S31508000F5000F06AFF0A20BDE8104000F0B3BE0000AA
S31508000F60B0B504460068E188012200F05DFF0A205A
S31508000F7000F0A8FE2068A188012200F055FF0A208B
S31508000F8000F0A0FE2068E18800F054FF05460A201C
S31508000F9000F098FE2068A188002200F045FF0A208C
S31508000FA000F090FE2846B0BD2DE9F04104460068E1
S31508000FB0E188012200F038FF0A2000F083FE0026AF
S31508000FC04FF08008002700BF2068A188012200F0A2
S31508000FD02BFF0A2000F076FE2068E18800F02AFF41
S31508000FE005460A2000F06EFE28FA06F22068A18857
S31508000FF0012D08BF1743002200F016FF0A2000F053
S3150800100061FE0136082EDFD1F8B2BDE8F081000096
S3150800101010B504460068E188012200F005FF0A20A1
S3150800102000F050FE2068A188012200F0FDFE0A208B
S3150800103000F048FE2068E188002200F0F5FE0A204C
S3150800104000F040FE2068A188002200F0EDFE0A208C
S31508001050BDE8104000F036BE10B504460068E188C9
S31508001060002200F0E1FE0A2000F02CFE2068A1888C
S31508001070012200F0D9FE0A2000F024FE2068E1884B
S31508001080012200F0D1FE0A20BDE8104000F01ABE89
S3150800109010B50446E28800680B4611461A4600F069
S315080010A0C3FE0A2000F00EFE2068A188012200F087
S315080010B0BBFE0A2000F006FE2068A188002200F088
S315080010C0B3FE0A20BDE8104000F0FCBDF0B581B0C3
S315080010D00C4605460026802727FA06F22868E9887E
S315080010E0224000F0A1FE0A2000F0ECFD022000F0EC
S315080010F0E9FD2868A988012200F096FE0A2000F07A
S31508001100E1FD022000F0DEFD2868A988002200F033
S315080011108BFE0A2000F0D6FD022000F0D3FD013632
S31508001120082ED9D101B0F0BD00F0C0BD81B04EF691
S315080011308851CEF200010A6843F6080042F47002AC
S31508001140C4F202000A6050F8081C4FF0000C41F087
S31508001150010140F8081C01684CF24F3241F0800149
S315080011600160CDF800C0009B934219D84CF2503369
S315080011700099013100910099994211D200990131E3
S315080011800091009991420BD800990131009100997C
S31508001190914205D800990131009100999942E7D307
S315080011A0016841F090010160CDF800C000999142B4
S315080011B01CD84CF250314CF24F3200BF009B013321
S315080011C00093009B8B4211D2009B01330093009B36
S315080011D093420BD8009B01330093009B934205D89A
S315080011E0009B01330093009B8B42E7D301684FF6BF
S315080011F0FF7221F00301016050F8081CCFF6F66271
S31508001200114040F8081C50F8081C21F4802140F8C9
S31508001210081C00210160026843F21002C2F2004273
S3150800122040F8042C416050F8081C41F4803140F81D
S31508001230081C4FF6FC7100BF50F8082C92035CBFDF
S3150800124050F8082C5FEA82320AD450F8082C39B1D3
S3150800125012F4003204D150F8082C04399203EBD565
S3150800126050F8081C890300D4FEE7826B47F2040194
S3150800127042F08052C4F20001826351F8042C42F411
S31508001280404241F8042C02680260026842F40042B7
S315080012900260026842F4A052026047F60802C0F6ED
S315080012A0402240F8042C50F8082C42F0807240F88E
S315080012B0082C00BF50F8082C92015FBF50F8082C84
S315080012C05FEA821250F8082C5FEA821203D450F8BB
S315080012D0082C9201EED551F8042C42F4803241F8DC
S315080012E0042C00BF0A68D2035FBF0A685FEAC232ED
S315080012F00A685FEAC23202D40A68D203F2D551F804
S31508001300042C42F4003241F8042C00BF0A68920308
S315080013105FBF0A685FEA82320A685FEA823202D4ED
S315080013200A689203F2D5016821F003010160016899
S3150800133041F0020101600168090709D4016809073B
S315080013405CBF01685FEA017102D401680907F2D53A
S3150800135001B070472DE9F04141F2000440F2005512
S31508001360C4F20104C0F2010505F50031204601F07A
S315080013708BFA80B92046294601F086FA58B905F550
S315080013808031204601F080FA28B920464FF4427190
S3150800139001F07AFAA8B12046032101F049FA20465D
S315080013A001F0D4F941F2F800C2F20000FA21FEF782
S315080013B032FF41F2F210C2F2000000210180BDE8BE
S315080013C0F08140F20435C0F2040505F1011120460A
S315080013D001F05AFA012812D141F2F216C2F20006B9
S315080013E03788204601F0B2F9F82F77D831884A1C99
S315080013F0328041F2F802C2F2000250546EE02046F2
S31508001400294601F041FA012868D1204601F09EF9E3
S3150800141041F2F218C2F20008B8F800604EB341F281
S31508001420F800C2F2000040F60A513246FEF705FF00
S31508001430F8B140F2A200C2F200000178E9B107460D
S3150800144017F8FC1FE1B190F8F811D9B190F8F41229
S31508001450E1B190F8F013E9B190F8EC14F1B190F815
S31508001460E815F9B190F8E41671BB00F2E4670721B4
S315080014701BE039A001F02CFF26E00021074614E006
S31508001480012112E000F5FC7702210EE000F53D7718
S3150800149003210AE000F57C77042106E000F2EC4718
S315080014A0052102E000F5BD670621C1EB811100EBBD
S315080014B0810041F2F80146700230C2F2000132465C
S315080014C0FEF790FE0120387041F2F800C2F20000E3
S315080014D0FA21FEF7A0FE0020A8F8000005F1031186
S315080014E0204601F0D1F901281AD140F22000C2F2B3
S315080014F00000017879B941F2F602C2F200021178C9
S315080015004378994207D208444B1C817820461370C9
S3150800151001F020F904E0204640F2073101F09CF979
S3150800152005F10211204601F0AFF9012818BFBDE800
S31508001530F081204640F2063101F08EF940F2200093
S31508001540C2F200000121017041F2F600C2F2000069
S3150800155000210170BDE8F08164617461206973201F
S315080015606572726F720D00002DE9F04381B044F286
S31508001570004440F20055C4F20004C0F2010505F526
S315080015800031204601F080F980B92046294601F04D
S315080015907BF958B905F58031204601F075F928B967
S315080015A020464FF4427101F06FF9B0B1204603218D
S315080015B001F03EF9204601F0C9F841F2F810C2F2EE
S315080015C00000FA21FEF727FE41F2F220C2F20000DF
S315080015D00021017001B0BDE8F08340F20435C0F285
S315080015E0040505F10111204601F04EF9012811D133
S315080015F041F2F226C2F200063778204601F0A6F834
S31508001600F82F07D831784A1C327041F2F812C2F224
S31508001610000250542046294601F036F901286FD1B8
S31508001620204601F093F841F2F226C2F2000632781B
S31508001630002A5CD041F2F810C2F2000040F60A51C6
S31508001640FEF7FBFD002852D040F61618C2F2000835
S3150800165098F80000D0B1474617F8FC0FD0B198F8B3
S31508001660F801D0B198F8F402E0B198F8F003F0B1B7
S3150800167098F8EC0400B398F8E80510B398F8E4066F
S31508001680A8BB08F2E4674FF007091EE04FF000090F
S3150800169047461AE04FF0010917E008F5FC774FF0C6
S315080016A0020912E008F53D774FF003090DE008F549
S315080016B07C774FF0040908E008F2EC474FF005097B
S315080016C003E008F5BD674FF00609022000F03EFE6C
S315080016D03278C9EB891008EB800041F2F8114270A4
S315080016E00230C2F20001FEF77DFD0120387041F29A
S315080016F0F810C2F20000FA21FEF78DFD00203070C6
S3150800170005F10311204601F0BFF801281AD140F669
S315080017109400C2F20000017879B941F2F412C2F2DB
S31508001720000211784378994207D208444B1C817805
S315080017302046137001F00EF804E0204640F2073107
S3150800174001F08AF805F10211204601F09DF80128FA
S315080017501CBF01B0BDE8F083204640F2063101F017
S315080017607BF840F69400C2F200000121017041F2B4
S31508001770F410C2F200000021017004F5EA304FF4BB
S31508001780005100F04FFB022001B0BDE8F04300F025
S31508001790BFBD0000FEE700002DE9F04188B040F625
S315080017A0014000F0FFFE41F21A0000F0FBFE46F68B
S315080017B00004C4F2000404F5CE35284600210222AE
S315080017C04FF440534FF0000800F0F6FB284602217C
S315080017D000224FF4405300F033FB284609214FF40A
S315080017E0405200F0B7FA05AD0020294600F0A0F9EE
S315080017F06E4601203146012700F09AF9204600F08E
S315080018005BF84FF0012006904FF4A02007904FF0A8
S31508001810837005904FF4803003900120C0F20F00CA
S3150800182002903046CDE900888DF8107000F058F81F
S315080018302046294600F0B6F820464FF4807100F09D
S31508001840A9F814A109A2012808BF1146084601F003
S315080018503FFD41200021002200F0F0FD2046102126
S3150800186000F02CF908B0BDE8F08100BF43414E20D6
S31508001870636F6E74726F6C6C657220696E697469D9
S31508001880616C697A656420737563636573736675DD
S315080018906C6C790043414E20696E697469616C69A4
S315080018A07A6174696F6E206D61792068617665204A
S315080018B06661696C6564210010B546F20041C4F2A0
S315080018C0000140F61A04884208BF40F6190420466B
S315080018D000F088FE2046BDE8104000F073BE000008
S315080018E0B0B546F20061C4F2000144890A684FF0B7
S315080018F0010C42F001020A60CB690CFA04F5AB430D
S31508001900CB61C3896FEA050C012B10D023BBCB68CA
S3150800191003EA0C03CB60B0F806E0438843EA0E43BB
S315080019204FEAC40E01EBC404236403460DE0CB68FA
S315080019302B43CB60B0F800E0438843EA0E434FEAF6
S31508001940C40E01EBC4042364831D84881B8843EA00
S31508001950044301EB0E04636483894C68002B44EA54
S31508001960050208BF04EA0C024A6002894B69002A8C
S3150800197043EA050408BF03EA0C044C61007C01280D
S3150800198002D1C8692843C861086820F001000860C8
S31508001990B0BD00008A09105801F01F01C84000F0C8
S315080019A00100704710B5026840F2040C22F00202EA
S315080019B002600268CFF6FF7C42F0010263460260CD
S315080019C04268D20701BF42685FEAC27242685FEAAC
S315080019D0C27206D1426823B112F0010203F1040370
S315080019E0EED04268D20704BF002010BD0A784B78B3
S315080019F091F802E0CC78920763F319620EF00F03B0
S31508001A0042EA034204F007034C8942EA0352631E82
S31508001A106FF39F231A44C2610A790368012A23F0E7
S31508001A20800308BF803303604A790368012A23F0DC
S31508001A30400308BF403303608A790368012A23F00C
S31508001A40200308BF20330360CA790368002A23F0FD
S31508001A50100308BF103303600A7A0368002A23F0CC
S31508001A60080308BF08330360497A0268012922F08F
S31508001A70040208BF04320260016821F00101016016
S31508001A804168C90717D04168C9071CBF41685FEAA2
S31508001A90C1710ED04368BCF1000F614618BF012121
S31508001AA0BCF1000F08D013F001020CF1040CE7D1C9
S31508001AB002E0012010BD0121084610BD426911430C
S31508001AC041617047C1F38412012303FA02F2090B3C
S31508001AD00A50704748F2CB02C0F2010291420CD07C
S31508001AE08422C0F2010291420BD04CF2810291424B
S31508001AF00BD1C26802F0030210E08269C2F3021237
S31508001B000CE0026902F0030208E00A0B52F800C072
S31508001B10C1F3841301229A4002EA0C02406901F0DB
S31508001B201F01C840002A18BF012210407047000054
S31508001B3003280FD8DFE800F0020F18200120C0F2B2
S31508001B40FF3088604FF0807048604FF400300860BE
S31508001B50704700BFFEE700204FF480320874CA6061
S31508001B6008604860886070470020C1F80F00C1E926
S31508001B700000C1E9020070470020C1E90000C1E980
S31508001B80020008617047000070B505464FF44060D2
S31508001B9000F008FD4FF4406000F004FD41F2041027
S31508001BA000F000FD41F20004C4F2010404F5704699
S31508001BB0304607214FF4007200F0CCF83046072172
S31508001BC04FF4806200F0C6F83046022101224FF435
S31508001BD0007300F035F93046022101224FF4806384
S31508001BE000F02EF93046002102224FF4007300F06F
S31508001BF0E3F93046002102224FF4806300F0DCF955
S31508001C00204600F0ABFD2046294600F03FFD204661
S31508001C10002100F04BFE2046002100F063FE20461E
S31508001C20002100F051FE25200021002200F006FCCC
S31508001C302046042100F042FE204640F2053100F01D
S31508001C4017FE20464FF4417100F012FE204600F0C0
S31508001C50E9FD20460821BDE8704000F03DBE0000C1
S31508001C6010B5034648B2B0F1FF3F40F22000C2F279
S31508001C7000004FF00002D8BF6FF07F0100F8022B7A
S31508001C8000F8011CCAB21946FEF7ACFA41F2000484
S31508001C90C4F20104204640F2073100F0E9FD20466F
S31508001CA040F20631BDE8104000F0E2BD41F2F420F2
S31508001CB0C2F200000168002908BF704701680139AF
S31508001CC00160704781B040F21801C2F2000109684C
S31508001CD04DF68362C4F21B32A1FB0212910C00225C
S31508001CE00092009A4843824207D200BF00BF00997B
S31508001CF00131009100998142F8D301B07047000084
S31508001D0080B582B013460A46014641F2F8204FF0E4
S31508001D10500CC2F20000CDF800C0FFF78BF802B0F5
S31508001D2080BD0000B0B541F200050446C4F20105C5
S31508001D302846072100F088FD0028F9D0E1B2284698
S31508001D4000F008FD2846062100F07EFD0028F9D09F
S31508001D502046B0BD10B5036AD40723F00F0ED0F89D
S31508001D6024C018BF4EEA010323F0F00E940748BFBB
S31508001D704EEA011323F4706E540748BF4EEA012356
S31508001D8023F4704E140748BF4EEA013323F4702E2D
S31508001D90D40648BF4EEA014323F4700E940648BFA2
S31508001DA04EEA015323F0706E540648BF4EEA0163AB
S31508001DB023F0704E140648BF4EEA01732CF00F0E3E
S31508001DC0D40548BF4EEA010C2CF0F00E940548BF26
S31508001DD04EEA011C2CF4706E540548BF4EEA012CDD
S31508001DE02CF4704E140548BF4EEA013C2CF4702EB4
S31508001DF0D40448BF4EEA014C2CF4700E940448BF34
S31508001E004EEA015C2CF0706E540448BF4EEA016C31
S31508001E102CF07044120448BF44EA017C0362C0F8FF
S31508001E2024C010BD816170471823002A08BF2823E3
S31508001E30195070470069084018BF01207047000014
S31508001E402DE9F0430568D0F80C804FF0000C4FF0F0
S31508001E50030E002606E000BF0136102E0CF1100C0A
S31508001E6000F0A58023FA06F7FF070BD00EFA0CF749
S31508001E70BD4301FA0CF4254328EA070402FA0CF7D5
S31508001E8044EA0708013623FA06F4E4070FD00CF1F2
S31508001E9002040EFA04F725EA070901FA04F528EA06
S31508001EA0070702FA04F445EA090547EA0408013671
S31508001EB023FA06F4E4070FD00CF104040EFA04F72B
S31508001EC025EA070901FA04F528EA070702FA04F4DD
S31508001ED045EA090547EA0408013623FA06F4E40741
S31508001EE00FD00CF106040EFA04F725EA070901FAE1
S31508001EF004F528EA070702FA04F445EA090547EA59
S31508001F000408013623FA06F4E4070FD00CF1080496
S31508001F100EFA04F725EA070901FA04F528EA07077D
S31508001F2002FA04F445EA090547EA0408013623FAE1
S31508001F3006F4E4070FD00CF10A040EFA04F725EAB2
S31508001F40070901FA04F528EA070702FA04F445EA3C
S31508001F50090547EA0408013623FA06F4E4070FD010
S31508001F600CF10C040EFA04F725EA070901FA04F540
S31508001F7028EA070702FA04F445EA090547EA0408C5
S31508001F80013623FA06F4E4073FF466AF0CF10E04B3
S31508001F900EFA04F725EA070901FA04F528EA0707FD
S31508001FA002FA04F445EA090547EA040854E7056015
S31508001FB0C0F80C80BDE8F08370B50129416814BFEC
S31508001FC0994319434160D0F808E000214FF0030C0B
S31508001FD0002404E00134102C01F1100172D023FA18
S31508001FE004F5ED0707D00CFA01F52EEA050E02FAFC
S31508001FF001F54EEA050E013423FA04F5ED0708D07B
S315080020008D1C0CFA05F62EEA060602FA05F546EACE
S31508002010050E013423FA04F5ED0708D00D1D0CFA58
S3150800202005F62EEA060602FA05F546EA050E013415
S3150800203023FA04F5ED0708D08D1D0CFA05F62EEAED
S31508002040060602FA05F546EA050E013423FA04F5F2
S31508002050ED0709D001F108050CFA05F62EEA060681
S3150800206002FA05F546EA050E013423FA04F5ED07EA
S3150800207009D001F10A050CFA05F62EEA060602FA57
S3150800208005F546EA050E013423FA04F5ED0709D0ED
S3150800209001F10C050CFA05F62EEA060602FA05F514
S315080020A046EA050E013423FA04F5ED0792D001F14C
S315080020B00E050CFA05F62EEA060602FA05F546EAB4
S315080020C0050E87E7C0F808E070BD000080B543F24A
S315080020D0F420C0F60000C068804710EE100AFEF72C
S315080020E0C3F8024641F208300B46C2F2000002A1CC
S315080020F0BDE8804000F06ABC566275735F56616C35
S315080021003D25302E34660D0A0000000080B543F2E6
S31508002110F420C0F600004068804710EE100AFEF76B
S31508002120A3F8024641F208300B46C2F2000002A1AB
S31508002130BDE8804000F04ABC437572725F56616C18
S315080021403D25302E34660D0A0000000080B543F2A6
S31508002150F420C0F6000080698047024641F2083044
S31508002160C2F2000002A1BDE8804000F02FBC00BF0B
S315080021704469655F49443D3078253034580D0A0076
S3150800218080B543F2F420C0F6000040698047024655
S3150800219041F20830C2F2000002A1BDE8804000F01A
S315080021A015BC00BF4D616E756661637475726572A4
S315080021B05F49443D3078253034580D0A0000000048
S315080021C080B543F2F420C0F6000080688047BDEE73
S315080021D0C00A41F2083010EE102AC2F2000002A12D
S315080021E0BDE8804000F0F2BB506F7765725F5661BC
S315080021F06C75653D3078253034580D0A00000000AE
S3150800220080B543F2F420C0F600000069804710EE5E
S31508002210100AFEF729F8024641F208300B46C2F2C8
S31508002220000002A1BDE8804000F0D0BB7368756E5F
S31508002230745F766F6C746167653D25302E34660D64
S315080022400A00000080B543F2F420C0F60000806959
S315080022508047024641F20830C2F2000002A1BDE8FA
S31508002260804000F0B3BB00BF416C6572742069738F
S3150800227020556C6F636B3D3078253034580D0A0055
S31508002280B0B540F6024000F08DF940F6024000F085
S3150800229089F94FF4406000F085F940F60004C4F26D
S315080022A002042046012100222023FFF7C9FD20460B
S315080022B0012100221023FFF7C3FDA4F50065284677
S315080022C0012100228023FFF7BBFD204600210222C0
S315080022D02023FFF771FE2046002102221023FFF774
S315080022E06BFE2846002102228023FFF765FE204662
S315080022F020210122FFF798FD204610210122FFF731
S3150800230093FD284680210122BDE8B040FFF78CBD29
S3150800231003280BD0022812D0012818BF704740F6B0
S315080023200000C4F202002021FFF77CBD40F6000041
S31508002330C4F20200A0F500608021FFF773BD40F6E5
S315080023400000C4F202001021FFF76CBD10B5032887
S3150800235015D0022826D0012818BF10BD40F6000463
S31508002360C4F2020420462021FFF764FDC0F10100F3
S31508002370C2B220462021BDE81040FFF755BD40F601
S315080023800000C4F20200A0F5006420468021FFF791
S3150800239051FDC0F10100C2B220468021BDE81040BF
S315080023A0FFF742BD40F60004C4F20204204610219D
S315080023B0FFF740FDC0F10100C2B220461021BDE87A
S315080023C01040FFF731BD000000F03CF943F2F4215C
S315080023D0C0F6000140F20046C4F202060C6806F593
S315080023E04060CD69042108224023A047FFF748FF33
S315080023F04FF4E130FFF7C8FBFFF7CEF9304640212E
S315080024008022FFF77DFC4FF4E130FEF793FCA847E6
S31508002410FEF70AFC00F06EFA04A000F059FF00BFB0
S31508002420FEF724FCFEF752FBFAE700BF73797374D4
S31508002430656D206973206F6B0D0000004EF60C5C0D
S31508002440CEF2000CDCF8003003F4E063B3F5E06F7D
S3150800245001D104232AE0DCF8003003F4E063B3F585
S31508002460C06F01D1032321E0DCF8003003F4E063F8
S31508002470B3F5A06F01D1022318E0DCF8003003F4AD
S31508002480E063B3F5806F01D101230FE0DCF800307B
S3150800249003F4E063B3F5407F01D1002306E040F280
S315080024A00053C0F2FA53CCF80030022301FA03FCB9
S315080024B0C3F104030F21D94011404EF2001241EA3C
S315080024C00C01CEF20002090140EA020383F8001368
S315080024D000F01F01012303FA01F11C2303EAD000CF
S315080024E08150704710B543F60402C4F202025368DD
S315080024F00146C3F3810342F20040022BC0F2F40006
S3150800250006D0012B1FD141F20020C0F27A001AE052
S31508002510D2F800C013680CF03F0CC3F3881E13688A
S315080025201468C3F30143640241F20024C0F27A043A
S3150800253058BF0446B4FBFCF4022000EB430004FB3E
S315080025400EF3B3FBF0F05368D2F804C052680329BF
S315080025500FD8C3F303130FA4E35C43F2244E20FA07
S3150800256003F3C0F6000EDFE801F01302060D184665
S3150800257010BD002010BDCCF382201EF8000023FAFF
S3150800258000F010BDC2F342301EF8000023FA00F036
S3150800259010BD00BF00000000000000000102030497
S315080025A00607080943F6000300F01F018009C4F274
S315080025B002034FF0010CC2580CFA01F11143C15045
S315080025C07047000043F6000300F01F018009C4F2BB
S315080025D002034FF0010CC2580CFA01F122EA01017C
S315080025E0C150704743F6000300F01F018009C4F28A
S315080025F002034FF0010CC2580CFA01F11143C15005
S3150800260070470000016841F0400101607047000012
S3150800261070B50268D1E902E402F4415CD1E90032FE
S31508002620D1E9045643EA0C031A4342EA0E0222434E
S3150800263089692A43324311430160C16921F4006163
S31508002640C16170BD40F21800C2F20000006844F68D
S31508002650D351C1F26201A0FB01014FF0FF3000EB3C
S315080026609110B0F1807F00D3FEE74EF21001CEF252
S31508002670000148604EF62350CEF20000F0220270A8
S31508002680002207238A600B6002707047B0B50446C3
S3150800269047F2FF70C4F200000D4684424FF0000076
S315080026A00EDC44F6FF31C4F200018C4217DC44F21A
S315080026B00041C4F200018C421DD044F6000116E028
S315080026C040F6FF71C4F201018C422FDC47F6000187
S315080026D0C4F200018C420ED047F6004107E044F6EA
S315080026E00041C4F200018C4205D045F20001C4F253
S315080026F000018C4203D102210846FFF7F3FEE16888
S31508002700090406D400EB5500B0FBF5F080B2A060D2
S31508002710B0BD400000EB5500B0FBF5F04FF6F07188
S315080027200140C0F342000844A060B0BD41F2000178
S31508002730C4F201018C424FF00301DDD041F20042A0
S31508002740C4F201029442D7D0D9E7000040686FF37B
S315080027505F2070476FF35F214160704710B547F2FD
S31508002760FF71C4F20001884214DC44F6FF31C4F25A
S315080027700001884224DC44F20041C4F20001884288
S315080027803CD044F60001C4F20001884249D140F623
S3150800279012043EE040F6FF71C4F2010188421EDCD5
S315080027A047F60001C4F2000188422AD047F60041E4
S315080027B0C4F20001884218BF10BD40F61F0428E085
S315080027C044F60041C4F2000188421DD045F20001DA
S315080027D0C4F20001884224D140F6140419E041F2FB
S315080027E00001C4F20101884211D041F20041C4F24D
S315080027F00101884215D140F605140AE040F6110495
S3150800280007E040F61E0404E040F6130401E040F633
S3150800281004142046FFF7E6FE2046BDE81040FFF701
S31508002820D1BE10BDC16841F40051C16070470000B7
S3150800283001F01F0289094FF0010C0B580CFA02F23D
S3150800284023EA02020A5070478A09105801F01F014C
S31508002850C84000F00100704701F01F0289094FF0D7
S31508002860010C0B580CFA02F223EA02020A507047CE
S3150800287001F01F0289094FF0010C0B580CFA02F2FD
S315080028801A430A5070470000C1F3891252F800C073
S315080028908A0D105801F01F03C1F30441C8402CFAF1
S315080028A003F1084000F0010070470000C26822F4F6
S315080028B0C062C260C2681143C1607047C26822F034
S315080028C004021143C1607047026922F44052026152
S315080028D00269114301617047C26822F00802114378
S315080028E0C1607047C26822F48052C260C268114350
S315080028F0C160704770B588B040F60540FFF752FED4
S3150800290040F60540FFF74EFE41F20044C4F20204C9
S31508002910204605218022FFF71DFA204605214FF49F
S315080029208072FFF717FA204605214FF400724FF41C
S315080029300075FFF70FFA20460221002280230026A1
S31508002940FFF77EFA2046022100224FF48073FFF734
S3150800295077FA2046022100224FF40073FFF770FA37
S315080029602046002102228023FFF726FB204600216D
S3150800297002224FF40073FFF71FFB204601210022B5
S315080029804023FFF75DFA2046002102224023FFF785
S3150800299013FB20464021FFF745FA41F21410FFF7D2
S315080029A001FE4FF4827001900320A4F54444CDE95A
S315080029B0060601A9204602960396CDE90456FFF7B6
S315080029C027FE2046FFF71EFE08B070BD0FB4084B61
S315080029D010B504A902AA039800F0DEF8044602A975
S315080029E0002000F070FC204610BC5DF814FB0000C7
S315080029F0C732000802E008C8121F08C1002AFAD127
S31508002A0070477047002001E001C1121F002AFBD160
S31508002A10704700002DE9FF5F82B00021DDE9043030
S31508002A20020DDDF840B0034318D044F61050A2F268
S31508002A30FF3242431514119801281FD0A5EB0B004D
S31508002A40401C5FEA000A4FF000064E4FDFF8389147
S31508002A50B046504615D5CAF1000413E01198012472
S31508002A604AA3012801D16FEA0B010298119AC0E91D
S31508002A700031C0E9024206B0BDE8F09FCBF1000084
S31508002A80DFE704460021404A491842EB0450CDE9E5
S31508002A90001012E0E00707D032463B46404649465A
S31508002AA0FDF7E3FC8046894632463B461046194602
S31508002AB0FDF7DBFC06460F466410002CEAD1DDE97B
S31508002AC00401DDE90023BAF1000F06DAFDF7CDFCB3
S31508002AD042464B46FDF7C9FC05E0FDF738FD424680
S31508002AE04B46FDF734FD04460E460022284BFDF7FB
S31508002AF0B5FD03D84FF0FF30014607E00022254B0D
S31508002B0020463146FDF70AFCFDF790FD102409E042
S31508002B10002C0ADB0A220023FDF7CFFB039B303289
S31508002B201A55641E50EA0102F2D1641C039AC4F1D4
S31508002B3011031444119A012A03D0012208430DD126
S31508002B400AE0084304D000204FF0110B119072E7F9
S31508002B50A3EB0B056D1E0DE05B4504DD4FF000028F
S31508002B6005F1010504E003DA4FF00002A5F10105BD
S31508002B70002AECD002981199C0E90231C0E9004553
S31508002B8079E70000000014400000F03F3000000024
S31508002B900000F0430000E03F2DE9FF4F95B09B464B
S31508002BA08946064600250FE2252877D100242746C0
S31508002BB0F84A0121059400E0044316F8013F203B3A
S31508002BC001FA03F01042F7D130782A2811D06FF0B5
S31508002BD02F033078A0F13002092A16D8059A44F056
S31508002BE0020402EB820203EB42021044761C0590B3
S31508002BF0EFE759F8042B0592002A03DA504244F409
S31508002C000054059044F00204761C30782E2816D11C
S31508002C1016F8010F44F004042A280DD06FF02F028D
S31508002C203078A0F13003092B09D807EB870302EBAC
S31508002C304303C718761CF3E759F8047B761C3078EB
S31508002C406C280FD006DC4C2817D068280DD06A28C7
S31508002C5014D104E0742810D07A280FD10DE044F47A
S31508002C6000140AE044F4801401E044F44014727835
S31508002C70824202D104F58014761C761C30786628C8
S31508002C800BD013DC582877D009DC002875D04528E6
S31508002C90F6D04628F4D047281AD19DE118E06328D3
S31508002CA035D0642879D0652812D195E1702873D07B
S31508002CB008DC6728F1D069286FD06E280DD06F28F8
S31508002CC006D1B5E073282CD0752875D0782874D02D
S31508002CD05A46179990476D1C75E1C4F302500228AD
S31508002CE009D003280DD0D9F8001004280DD00D609E
S31508002CF009F1040967E1D9F80010EA17C1E9005299
S31508002D00F6E7D9F800100D80F2E70D70F0E719F82C
S31508002D10041B8DF8001000208DF80100EA460120FA
S31508002D2003E059F804AB4FF0FF3061074FF000019C
S31508002D3002D40DE008F101018846B9420FDA804550
S31508002D40F8DB1AF808100029F4D108E008F10101A7
S31508002D5088468142FADB1AF808100029F6D1059848
S31508002D605B46A0EB080721463846179A00F094FA06
S31508002D70284400EB080507E04DE029E10DE01AF8C4
S31508002D80010B5A4617999047B8F10108F7D25B46E6
S31508002D9021463846179A13E142E00A220092C4F304
S31508002DA002524FF0000A022A08D059F804CB032A27
S31508002DB04FEAEC710AD00DE029E02AE009F1070193
S31508002DC021F00702F2E802C1914609E00FFA8CFCED
S31508002DD04FEAEC71042A03D14FFA8CFC4FEAEC71E6
S31508002DE0002907DA0A460021DCF1000C61EB020132
S31508002DF02D2202E0220504D52B228DF8042001227B
S31508002E0003E0E20701D02022F7E7904659E00A21BD
S31508002E1002E010220DE010214FF0000A00910BE0AD
S31508002E2010224FF0000A44F004040827009203E039
S31508002E3008224FF0000A0092C4F30252022A05D073
S31508002E4059F804CB0021032A08D009E009F1070143
S31508002E5021F00702F2E802C1914605E01FFA8CFC50
S31508002E60042A01D10CF0FF0C4FF00008220728D5E0
S31508002E70702806D0009B83F0100353EA0A0305D096
S31508002E800EE040228DF80420012208E05CEA0102E7
S31508002E9006D030228DF804208DF8050002229046CF
S31508002EA0009B83F0080353EA0A030AD15CEA01028D
S31508002EB001D1620705D530228DF804204FF00108AC
S31508002EC07F1E582804D034A003900EA802900DE067
S31508002ED036A0F9E753466046009AFDF7EEF98446B0
S31508002EE00398825C0298401E029002705CEA010018
S31508002EF0F0D1029806A9081A00F1200A600702D53F
S31508002F0024F4803400E00127574502DDA7EB0A00C8
S31508002F1000E0002000EB0A01009005984144401AA1
S31508002F200590E00306D45B462146179A059800F0FB
S31508002F30B3F90544002706E001A85A46C05D17996B
S31508002F4090476D1C7F1C4745F6DBE0030CD55B46B6
S31508002F502146179A059800F09FF9054404E03020A9
S31508002F605A46179990476D1C0099481E00900029EB
S31508002F70F5DC08E0029802995A460078491C029145
S31508002F80179990476D1CBAF10001AAF1010AF1DC04
S31508002F9065E100000928010030313233343536370F
S31508002FA03839616263646566000000003031323387
S31508002FB03435363738394142434445460000000027
S31508002FC000F058F90544761C307800287FF4ECADFB
S31508002FD019B02846BDE8F08F620700D4062709F124
S31508002FE0070222F0070CFCE80223E14603F000483A
S31508002FF05FEA080C02D00FF2702C0DE05FEA045C61
S3150800300002D50FF2682C07E05FEAC47C02D00FF203
S31508003010602C01E0AFF2700C4FF0FF3823F000434C
S31508003020CDF850C065280CD006DC452809D04628BE
S315080030301DD047283DD13DE0662818D067287ED1A7
S3150800304038E00021112F01DB112000E0781CCDE9C2
S31508003050000106A90EA8FFF7DDFCDDE90F010E9AAF
S3150800306003910021009207F1010A04914DE04FF007
S3150800307000400097CDE9011006A90EA8FFF7CAFC83
S31508003080DDE90F0203920E9B11990022DDF80CA0D0
S315080030900093049211B9791C00EB010AB7EB0A00F8
S315080030A004D4C0F1FF3007F1010A0490AAEB070027
S315080030B0019044E0012F00DA01270021112F01DDDC
S315080030C0112000E03846CDE9000106A90EA8FFF751
S315080030D0A1FCDDE90F010E9A0391002104910092EB
S315080030E0BA4621070CD40399514500DA8A46BAF143
S315080030F0010F05DD009AAAF10101515C302908D0BB
S31508003100B84202DA10F1040F06DA0121CDE90110FE
S3150800311015E0AAF10101E9E7002805DC0499014454
S315080031200491AAEB000102E0411C514500DD8A46E4
S315080031300499401A401C01904FF000400290200765
S3150800314004D40198504501DBCDF8048000208DF8A1
S315080031504F0002980DF14F07B0F1004F25D02B20F4
S315080031600E9002984FF0020800280CDA40420290AE
S315080031702D200E9007E00A210298FDF788F83031D5
S31508003180029007F8011DB8F10001A8F10108F2DC68
S3150800319002980028EFD1791E0E980870307800F052
S315080031A0200040F0450007F8020D12A8C01B00F1E8
S315080031B007081498007800B1012000EB0A0101986D
S315080031C001EBE07105984144401A401E0590E00362
S315080031D006D45B462146179A059800F05DF8054423
S315080031E01498007818B15A46179990476D1CE00351
S315080031F024D55B462146179A059800F04DF80544F4
S315080032001CE00498002807DBDDE90301884203DD9A
S315080032100098405C179901E0179930205A46904764
S31508003220049805F10105401C04900198401E019080
S3150800323004D12E205A46179990476D1CBAF1000101
S31508003240AAF1010ADDDC05E017F8010B5A461799C1
S3150800325090476D1CB8F10001A8F10108F4DC5B4643
S315080032602146179A0598ABE62D0000002B000000B2
S31508003270200000002DE9F041044600251E461746A9
S31508003280880404D405E039462020B0476D1C641E26
S31508003290F9D52846BDE8F0812DE9F0410446002518
S315080032A01E469046C80301D5302700E0202788042B
S315080032B004D505E041463846B0476D1C641EF9D56D
S315080032C02846BDE8F0810A68531C0B6010707047E9
S315080032D010B5044601E0FEF725FD14F8010B044974
S315080032E00028F8D1BDE810400A20FEF71BBD0000F3
S315080032F00000002055090008C5080008050900084F
S315080033009D08000831090008FD080008F5080008AE
S31508003310DD0900082038000833380008953500080C
S31508003320A9350008213700085D380008433700082A
S315080033308538000865370008AD3800088737000863
S31508003340D5380008A9370008FD380008CB3700082B
S3150800335025390008ED3700084D390008FE37000802
S31508003360613900080F380008753900081037000859
S315080033704938000832370008713800085437000801
S315080033809938000876370008C138000898370008C9
S31508003390E9380008BA37000811390008DC37000890
S315080033A03939000887340008D5350008AB340008D9
S315080033B0FF350008CF34000829360008F334000822
S315080033C053360008173500087D3600083B350008D7
S315080033D0A73600085F350008D136000871350008A1
S315080033E0E636000883350008FB3600087534000801
S315080033F0C035000899340008EA350008BD340008CD
S3150800340014360008E13400083E3600080535000881
S315080034106836000829350008923600084D35000838
S31508003420BC36000800000000010203046765745FEB
S315080034306469655F69640D0A006765745F6D616E2E
S315080034407566616374757265725F69640D0A0067F3
S3150800345065745F6275735F766F6C746167650D0A74
S31508003460006765745F7368756E745F766F6C7461F8
S3150800347067650D0A004368616E6E656C31305F637F
S315080034806C6F73650D0A004368616E6E656C30314A
S315080034905F636C6F73650D0A004368616E6E656CD9
S315080034A031315F636C6F73650D0A004368616E6E38
S315080034B0656C30325F636C6F73650D0A0043686133
S315080034C06E6E656C31325F636C6F73650D0A00430F
S315080034D068616E6E656C30335F636C6F73650D0A79
S315080034E0004368616E6E656C31335F636C6F73653C
S315080034F00D0A004368616E6E656C30345F636C6FED
S3150800350073650D0A004368616E6E656C31345F63DE
S315080035106C6F73650D0A004368616E6E656C3035B5
S315080035205F636C6F73650D0A004368616E6E656C48
S3150800353031355F636C6F73650D0A004368616E6EA3
S31508003540656C30365F636C6F73650D0A004368619E
S315080035506E6E656C31365F636C6F73650D0A00437A
S3150800356068616E6E656C30375F636C6F73650D0AE4
S31508003570004368616E6E656C30385F636C6F7365A7
S315080035800D0A004368616E6E656C30395F636C6F57
S3150800359073650D0A004368616E6E656C5F616C6CDD
S315080035A05F636C6F73650D0A004368616E6E656CC8
S315080035B05F69735F616C6C5F636C6F73650D0A009E
S315080035C04368616E6E656C31305F69735F636C6FFB
S315080035D073650D0A004368616E6E656C30315F690C
S315080035E0735F636C6F73650D0A004368616E6E6581
S315080035F06C31315F69735F636C6F73650D0A0043E5
S3150800360068616E6E656C30325F69735F636C6F7389
S31508003610650D0A004368616E6E656C31325F6973C9
S315080036205F636C6F73650D0A004368616E6E656C47
S3150800363030335F69735F636C6F73650D0A004368A7
S31508003640616E6E656C31335F69735F636C6F73654A
S315080036500D0A004368616E6E656C30345F69735F8E
S31508003660636C6F73650D0A004368616E6E656C3135
S31508003670345F69735F636C6F73650D0A0043686135
S315080036806E6E656C30355F69735F636C6F73650D5D
S315080036900A004368616E6E656C31355F69735F63F6
S315080036A06C6F73650D0A004368616E6E656C303623
S315080036B05F69735F636C6F73650D0A004368616EBB
S315080036C06E656C31365F69735F636C6F73650D0A7F
S315080036D0004368616E6E656C30375F69735F636C53
S315080036E06F73650D0A004368616E6E656C30385FEE
S315080036F069735F636C6F73650D0A004368616E6E6C
S31508003700656C30395F69735F636C6F73650D0A00AA
S315080037104368616E6E656C31305F6F70656E0D0A59
S31508003720004368616E6E656C30315F6F70656E0D53
S315080037300A004368616E6E656C31315F6F70656E45
S315080037400D0A004368616E6E656C30325F6F706596
S315080037506E0D0A004368616E6E656C31325F6F707C
S31508003760656E0D0A004368616E6E656C30335F6F77
S3150800377070656E0D0A004368616E6E656C31335F65
S315080037806F70656E0D0A004368616E6E656C303445
S315080037905F6F70656E0D0A004368616E6E656C3109
S315080037A0345F6F70656E0D0A004368616E6E656CF6
S315080037B030355F6F70656E0D0A004368616E6E6521
S315080037C06C31355F6F70656E0D0A004368616E6E09
S315080037D0656C30365F6F70656E0D0A004368616E02
S315080037E06E656C31365F6F70656E0D0A00436861F1
S315080037F06E6E656C30375F6F70656E0D0A004368D4
S31508003800616E6E656C30385F6F70656E0D0A0043C9
S3150800381068616E6E656C30395F6F70656E0D0A0093
S315080038204368616E6E656C5F616C6C5F6F70656E28
S315080038300D0A004368616E6E656C5F69735F616C43
S315080038406C5F6F70656E0D0A004368616E6E656C1D
S3150800385031305F69735F6F70656E0D0A004368618A
S315080038606E6E656C30315F69735F6F70656E0D0AD9
S31508003870004368616E6E656C31315F69735F6F70A6
S31508003880656E0D0A004368616E6E656C30325F695D
S31508003890735F6F70656E0D0A004368616E6E656CC6
S315080038A031325F69735F6F70656E0D0A0043686138
S315080038B06E6E656C30335F69735F6F70656E0D0A87
S315080038C0004368616E6E656C31335F69735F6F7054
S315080038D0656E0D0A004368616E6E656C30345F690B
S315080038E0735F6F70656E0D0A004368616E6E656C76
S315080038F031345F69735F6F70656E0D0A00436861E6
S315080039006E6E656C30355F69735F6F70656E0D0A34
S31508003910004368616E6E656C31355F69735F6F7001
S31508003920656E0D0A004368616E6E656C30365F69B8
S31508003930735F6F70656E0D0A004368616E6E656C25
S3150800394031365F69735F6F70656E0D0A0043686193
S315080039506E6E656C30375F69735F6F70656E0D0AE2
S31508003960004368616E6E656C30385F69735F6F70AF
S31508003970656E0D0A004368616E6E656C30395F6965
S31508003980735F6F70656E0D0A006765745F706F7799
S3150800399065720D0A006765745F63757272656E7489
S315080039A00D0A00756C6F636B5F616C6572740D0A46
S315080039B000000000D83900080000002020000000A0
S315080039C0F4290008F8390008200000201017000024
S315080039D0042A00080000000000000000400004005F
S315080039E00403030701800380D007EC030000803F2F
S30D080039F0001C4E0E0000000049
S705080001AD44
