:020000040800F2
:1000000088170020C1010008410D0008D10A00082E
:100010003D0D0008010A0008F51700080000000067
:10002000000000000000000000000000590E000861
:10003000CD0A000800000000450D0008511100081D
:10004000DB010008DB010008DB010008DB01000820
:10005000DB010008DB010008DB010008DB01000810
:10006000DB010008DB010008DB010008DB01000800
:10007000DB010008DB010008DB010008DB010008F0
:10008000DB010008DB010008DB010008DB010008E0
:10009000DB010008DB010008DB010008DB010008D0
:1000A000DB010008DB010008DB010008DB010008C0
:1000B000DB010008DB010008DB010008DB010008B0
:1000C000DB010008DB010008DB010008DB010008A0
:1000D000DB0100087D130008E9150008DB010008BA
:1000E000DB010008DB010008DB010008DB01000880
:1000F000DB010008DB010008DB010008DB01000870
:10010000DB010008DB010008DB010008DB0100085F
:10011000DB010008DB010008DB010008DB0100084F
:10012000DB010008DB010008DB010008DB0100083F
:10013000DB010008DB010008DB010008DB0100082F
:10014000DB010008050A0008DB010008DB010008EC
:10015000DB010008DB010008DB010008DB0100080F
:10016000DB010008DB010008DB010008DB010008FF
:10017000DB010008DB010008DB01000800000000D3
:10018000DB010008DB010008DB010008DB010008DF
:10019000DB010008DB010008DB01000800000000B3
:1001A000DB010008DB010008DB010008DFF80CD0F0
:1001B00000F06CFA00480047FD2100088817002075
:1001C0000648804706480047FEE7FEE7FEE7FEE7F1
:1001D000FEE7FEE7FEE7FEE7FEE7FEE75511000853
:1001E000AD01000840EA01039B0703D009E008C9FC
:1001F000121F08C0042AFAD203E011F8013B00F8EC
:10020000013B521EF9D27047D2B201E000F8012B37
:10021000491EFBD270470022F6E710B513460A4686
:1002200004461946FFF7F0FF204610BD421C10F8A7
:10023000011B0029FBD1801A7047CBB203E0017883
:10024000994203D0401C521EF9D20020704730B5AD
:1002500004460020034600E05B1C934203D2E05CAE
:10026000CD5C401BF8D030BD00F0004230F00040C3
:100270000AD0C10D01F56071C0F3160042EA0151C8
:10028000C20840071143704700200146704730B54F
:100290000B46014600202022012409E021FA02F544
:1002A0009D4205D303FA02F5491B04FA02F52844DE
:1002B000151EA2F10102F1DC30BD2DE9F05F05460B
:1002C000002092469B4688460646814640241BE015
:1002D000284641464746224600F0F9F953465A4619
:1002E000C01A914110D311461846224600F0E0F999
:1002F0002D1A67EB01084F4622460120002100F02D
:10030000D7F917EB00094E41201EA4F10104DFDCF0
:10031000484631462A464346BDE8F09F2DE9FE4F48
:10032000804681EA0300C00F0C46009021F0004196
:1003300023F00045B8EB0200A94105D24046214612
:1003400090461C460B46024623F00040104347D01F
:10035000270DC7F30A00C3F30A510290401A019017
:1003600040286BDAC3F3130040F4801B00989246D8
:1003700020B10023D2EB030A63EB0B0B0198594623
:10038000C0F14002504600F093F906460D46504633
:100390005946019A00F0ABF910EB080061410024C6
:1003A00087EA115284EAE7731A4340D0009A62B395
:1003B000019A012A4FEA075215DC001B61EB02018A
:1003C0004FF0004202EA0752CDE90042001C41F51D
:1003D000801132462B4600F0ABF903B0BDE8F08F38
:1003E00040462146F9E7001B61EB0201001C41F584
:1003F000801300185B412018A2F5001747EB03019A
:1004000040EAD570B6196D4111E06D084FEA360625
:1004100045EAC0754FEA0752001B61EB0201001C60
:1004200041F5801149084FEA300000195141324628
:100430002B4603B0BDE8F04F00F06BB900980122E5
:1004400040000023D0EB020263EBE07300982146EA
:100450004FEAE074B8EB000061EB0401E9E783F0D8
:1004600000435BE781F0004158E72DE9FE4F81EA48
:10047000030404F0004421F0004100944FF0000B0D
:1004800023F0004350EA01045ED052EA03045BD03B
:10049000C3F30A54C1F30A552C44A4F2F334019473
:1004A000A0FB0254C1F3130141F48011C3F3130301
:1004B00043F4801301FB024400FB034E840A970AB5
:1004C00044EA815447EA8357A4FB076802958D0AE2
:1004D00005FB07854FEA932C04FB0C542705029D6E
:1004E0004FEA065847EA1637B5EB08056EEB070CDE
:1004F000870E920E47EA811742EA8312A7FB020198
:10050000B6EB0B0164EB00042B0D43EA0C335E18D1
:1005100044EB1C50DA465146E7FB0201C5F31304D5
:100520004FEA0B3343EA14534FEA0432019C43EA87
:100530000603A4F10C040294009CCDE900B400F081
:10054000F7F803B0BDE8F08F00200146F9E72DE988
:10055000F04D81EA030404F0004B21F000451446FD
:100560004FF0000A23F0004150EA050220D054EA7F
:1005700001021DD0C5F30A570246C5F31303C1F3A8
:100580001300C1F30A5640F4801543F48013A7EB1F
:100590000608101BD64608F2FD3873EB050002D39F
:1005A00008F1010801E092185B41B8F1000F03DA8D
:1005B00000200146BDE8F08D00204FF48011064672
:1005C00084460EE0171B73EB050705D3121B63EB84
:1005D000050306434CEA010C49084FEA3000921823
:1005E0005B4150EA0107EDD152EA030012D082EAE2
:1005F000040083EA0501084305D0101BAB4106D275
:100600000122002306E000224FF0004302E06FF0D9
:10061000010253101AEB06004CEB085110EB0A00D4
:1006200041EB0B01BDE8F04D00F073B8C1F30A5285
:10063000C1F3130140F2FF3341F480119A4202DA10
:1006400000200146704740F233439A42A2F23342FF
:1006500002DC524200F03BB800F02AB830B5041E6C
:1006600071F1000404DB4FF00044404264EB0101EF
:10067000141E73F1000405DB1C464FF00043524288
:1006800063EB0403994208BF904230BD064C074D0E
:1006900006E0E06840F0010394E807009847103452
:1006A000AC42F6D3FFF786FD4038000860380008FA
:1006B000202A04DB203A00FA02F100207047914022
:1006C000C2F1200320FA03F3194390407047202A17
:1006D00004DB203A21FA02F00021704721FA02F3EC
:1006E000D040C2F120029140084319467047202AA9
:1006F00006DBCB17203A41FA02F043EAE07306E04A
:1007000041FA02F3D040C2F1200291400843194659
:10071000704710B5141E73F1000408DA401C41F153
:10072000000192185B411A4301D120F0010010BD75
:100730002DE9F04D92469B4611B1B1FA81F202E0EB
:10074000B0FA80F220329046FFF7B2FF04460F461F
:1007500040EA0A0041EA0B0153465A46084313D0C7
:10076000114653EA010019D0C8F140025046FFF784
:10077000AEFF05460E46504659464246FFF798FFE3
:10078000084305D0012004E020463946BDE8F08D3D
:100790000020054346EAE0762C4337430A98630578
:1007A000E40AA0EB08000022FD0A44EA47540A309C
:1007B00002D500200146E9E7010510196941DDE98C
:1007C000084500196941BDE8F04DA2E72DE9F04F59
:1007D00083B040F61614C2F2000404F1FC0042F2A9
:1007E0003545029004F5FC7040F2A207C0F6000502
:1007F0004FF00008019004F53D7004F57C7604F29A
:10080000EC4904F5BD6A04F2E46BC2F20007009003
:1008100003E000BF032001F0B1F92078012805D1E1
:100820006078032800F2DE8084F8008094F8FC00F1
:10083000012806D194F8FD00032800F28F8084F887
:10084000FC8094F8F801012806D194F8F9010328F6
:1008500000F2868084F8F88194F8F402012805D12A
:1008600094F8F50203287DD884F8F48294F8F00314
:10087000012805D194F8F103032875D884F8F08392
:1008800094F8EC04012805D194F8ED0403286DD800
:1008900084F8EC8494F8E805012805D194F8E9057A
:1008A000032865D884F8E88594F8E406012805D182
:1008B00094F8E50603285DD884F8E48638780128A2
:1008C00004D17878032857D887F8008097F8FC007F
:1008D000012805D197F8FD00032853D887F8FC803C
:1008E00097F8F801012805D197F8F901032850D8A5
:1008F00087F8F88197F8F402012805D197F8F502F6
:1009000003284DD887F8F48297F8F003012805D121
:1009100097F8F10303284AD887F8F08397F8EC0496
:10092000012805D197F8ED04032847D887F8EC840F
:1009300097F8E805012805D197F8E905032844D878
:1009400087F8E88597F8E40601287FF463AF97F805
:10095000E506032840D887F8E4865BE7029C41E07F
:10096000019C3FE0009C3DE034463BE04C4639E0D2
:10097000544637E05C4635E041F60535C0F60005E3
:100980003C462FE041F6053507F1FC04C0F60005B2
:1009900028E041F6053507F5FC74C0F6000521E0B6
:1009A00041F6053507F53D74C0F600051AE041F63D
:1009B000053507F57C74C0F6000513E041F60535F2
:1009C00007F2EC44C0F600050CE041F6053507F5EA
:1009D000BD64C0F6000505E041F6053507F2E464A4
:1009E000C0F600052046294600F044FF6178A01CAF
:1009F000FFF711FC0020208003B0BDE8F08F00005D
:100A0000FEE7000070B546F600048425C4F2000439
:100A1000C0F201052046294600F0FEFE012822D141
:100A200005F182062046314600F0F6FE012806D187
:100A30002046314600F0E8FE15A002F08FFB20466C
:100A40004FF4C06100F0D8FE012802D116A002F0D8
:100A500085FB2046294600F0D7FE41F20430C2F261
:100A600000000121017048F28A05C0F2010520460C
:100A7000294600F0D1FE012818BF70BD2046294646
:100A800000F0C2FE0DA0BDE8704002F067BB00BFE1
:100A900043414E204649464F31206F766572666C61
:100AA0006F77210D0000000043414E207761726E88
:100AB000696E67206572726F72210D0043414E208E
:100AC000627573206F6666210D000000704700009C
:100AD000FEE7000080B5022000F0A0F800EE100A4A
:100AE000B8EE400AB7EE041A9FED032A20EE010A81
:100AF00080EE020A80BD00BF00007A4480B5042069
:100B000000F08CF800B200EE100A40F20400C2F2CD
:100B1000000090ED041AB8EEC00A9FED032A21EE02
:100B2000000A80EE020A80BD00007A44FF2000F037
:100B300075B80000FE2000F071B8000080B50320F9
:100B400000F06CF800B200EE100A40F20400C2F2AD
:100B5000000090ED041AB3EE092AB8EEC00A21EEA7
:100B6000021A21EE000A80BD80B5012000F056F87F
:100B700000B2013000EE100A9FED031AB8EEC00A71
:100B800020EE010A80BD00BF0AD7233BB0B582B07A
:100B90009C4613460A46014640F68400C2F2000015
:100BA000CDF800C000F05AF940F20404C2F200048B
:100BB000A078E17822790003637940EAC13040EA05
:100BC0004220A179E27940EA831040EAC10040EA7C
:100BD000020540F6064001F0FDFB41F60000C4F2BC
:100BE0000200002101224FF4804301F099F8A9B2DC
:100BF000002000F055F8E189052000F051F8218926
:100C0000062000F04DF8A189072002B0BDE8B040F1
:100C100000F046B8062000F001B8000070B540F6BC
:100C20008404C2F200040546204600F005FA40F2B2
:100C30000406C2F2000630784000C1B2204600F03F
:100C400059FA204600F0A0F92046294600F052FA51
:100C5000204600F099F9204600F0EEF93078400087
:100C60000130C1B2204600F045FA204600F08CF970
:100C7000204600F0ADF940F69005C2F2000528606C
:100C80002046002100F018FA2E68204600F0A0F956
:100C900040EA06202860204600F0F2F9288870BD5E
:100CA00070B540F68404C2F20004064620460D46A4
:100CB00000F0C2F940F20400C2F2000000784000E7
:100CC000C1B2204600F016FA204600F05DF9204639
:100CD000314600F00FFA204600F056F9290A204666
:100CE00000F008FA204600F04FF9E9B2204600F083
:100CF00001FA204600F048F92046BDE8704000F0B7
:100D0000BFB9000010B54FF4406001F063FB40F63E
:100D1000024001F05FFB0024C4F2020420460021DF
:100D20000222012300F0FCFF04F5006000210122F3
:100D30004FF40053BDE8104000F0F2BFFEE70000A2
:100D4000704700007047000070B5054640F69400FB
:100D5000C2F20000012100F8021B8221FFF75BFABA
:100D60004FF4406001F036FB4FF4406001F032FB7D
:100D700041F2110001F02EFB44F20044C4F20004E1
:100D800004F5DE3630460721042200F051FF3046DC
:100D90000721082200F04CFF3046022101220423E3
:100DA00000F0BEFF304602210122082300F0B8FF08
:100DB000304600210222042301F06EF83046002163
:100DC0000222082301F068F8204601F00DFC2046BD
:100DD000294601F0A1FB2046002101F0ADFC204690
:100DE000002101F0C5FC2046002101F0B3FC2620C3
:100DF0000021012201F03AFA2046082101F0B2FC5C
:100E00002046042101F0A0FC204640F2053101F00B
:100E100075FC20464FF4417101F070FC204601F052
:100E200047FC40F6064001F0D5FA04F5EA342046C6
:100E3000012100224FF4005300F072FF20460021F0
:100E400002224FF4005301F027F820464FF40051DE
:100E5000BDE8704000F056BF7047000010B5044672
:100E60000298216001F13E4101F1FF714FEAB12189
:100E70000829A280E380208123D800EB81024FF46F
:100E80004060DFE801F01C05080B0E1114171A0072
:100E900040F6014013E040F6024010E040F6034007
:100EA0000DE040F604400AE040F6054007E040F659
:100EB000064004E040F6074001E040F6084001F03B
:100EC00089FA2068A3880121012200F029FF206807
:100ED000E3880121012200F023FF2068A38801217B
:100EE000022200F0D9FF2068E3880121022200F0ED
:100EF000D3FF2068A188012200F006FF0A2000F03D
:100F00004FFE2068E188012200F0FEFE0A2000F07A
:100F100047FE2068E188012200F0F6FE0A2000F07A
:100F20003FFE2068A188012200F0EEFE0A2000F0BA
:100F300037FE2068E188002200F0E6FE0A2000F07B
:100F40002FFE2068A188002200F0DEFE0A2000F0BB
:100F500027FE2068E188002200F0D6FE0A2000F07B
:100F60001FFE2068A188012200F0CEFE0A2000F0BA
:100F700017FE2068E188012200F0C6FE0A20BDE8C5
:100F8000104000F00DBE0000B0B504460068E188D6
:100F9000012200F0B9FE0A2000F002FE2068A188BC
:100FA000012200F0B1FE0A2000F0FAFD2068E1887D
:100FB00000F0B0FE05460A2000F0F2FD2068A1888E
:100FC000002200F0A1FE0A2000F0EAFD2846B0BD94
:100FD0002DE9F04104460068E188012200F094FE0A
:100FE0000A2000F0DDFD00264FF08008002700BF3A
:100FF0002068A188012200F087FE0A2000F0D0FDC1
:101000002068E18800F086FE05460A2000F0C8FD51
:1010100028FA06F22068A188012D08BF1743002294
:1010200000F072FE0A2000F0BBFD0136082EDFD171
:10103000F8B2BDE8F081000010B504460068E18810
:10104000012200F061FE0A2000F0AAFD2068A188BC
:10105000012200F059FE0A2000F0A2FD2068E1887C
:10106000002200F051FE0A2000F09AFD2068A188BD
:10107000002200F049FE0A20BDE8104000F090BDBB
:1010800010B504460068E188002200F03DFE0A2009
:1010900000F086FD2068A188012200F035FE0A20BC
:1010A00000F07EFD2068E188012200F02DFE0A207C
:1010B000BDE8104000F074BD10B50446E288006839
:1010C0000B4611461A4600F01FFE0A2000F068FD8C
:1010D0002068A188012200F017FE0A2000F060FDC0
:1010E0002068A188002200F00FFE0A20BDE8104011
:1010F00000F056BDF0B581B00C46054600268027AD
:1011000027FA06F22868E988224000F0FDFD0A204F
:1011100000F046FD022000F043FD2868A988012266
:1011200000F0F2FD0A2000F03BFD022000F038FD47
:101130002868A988002200F0E7FD0A2000F030FDB1
:10114000022000F02DFD0136082ED9D101B0F0BDEE
:1011500000F008BD81B04EF68851CEF200010A6859
:1011600043F6080042F47002C4F202000A6050F82C
:10117000081C4FF0000C41F0010140F8081C016808
:101180004CF24F3241F080010160CDF800C0009B6D
:10119000934219D84CF250330099013100910099D3
:1011A000994211D2009901310091009991420BD8D6
:1011B0000099013100910099914205D800990131BF
:1011C000009100999942E7D3016841F090010160D4
:1011D000CDF800C0009991421CD84CF250314CF22D
:1011E0004F3200BF009B01330093009B8B4211D212
:1011F000009B01330093009B93420BD8009B01336B
:101200000093009B934205D8009B01330093009B01
:101210008B42E7D301684FF6FF7221F003010160B2
:1012200050F8081CCFF6F662114040F8081C50F840
:10123000081C21F4802140F8081C0021016002688C
:1012400043F21002C2F2004240F8042C416050F810
:10125000081C41F4803140F8081C4FF6FC7100BFB7
:1012600050F8082C92035CBF50F8082C5FEA8232D9
:101270000AD450F8082C39B112F4003204D150F8D5
:10128000082C04399203EBD550F8081C890300D4CC
:10129000FEE7826B47F2040142F08052C4F2000183
:1012A000826351F8042C42F4404241F8042C026855
:1012B0000260026842F400420260026842F4A052F6
:1012C000026047F61902C0F6402240F8042C50F89C
:1012D000082C42F0807240F8082C00BF50F8082C0F
:1012E00092015FBF50F8082C5FEA821250F8082C78
:1012F0005FEA821203D450F8082C9201EED551F81F
:10130000042C42F4803241F8042C00BF0A68D20356
:101310005FBF0A685FEAC2320A685FEAC23202D47B
:101320000A68D203F2D551F8042C42F4003241F895
:10133000042C00BF0A6892035FBF0A685FEA82322A
:101340000A685FEA823202D40A689203F2D5016821
:1013500021F003010160016841F0020101600168B0
:10136000090709D4016809075CBF01685FEA0171D8
:1013700002D401680907F2D501B070472DE9F041A8
:1013800041F2000440F20055C4F20104C0F201052C
:1013900005F50031204601F0BDF980B92046294607
:1013A00001F0B8F958B905F58031204601F0B2F9DD
:1013B00028B920464FF4427101F0ACF9A8B120469B
:1013C000032101F07BF9204601F006F941F2F80013
:1013D000C2F20000FA21FEF71EFF41F2F210C2F243
:1013E000000000210180BDE8F08140F20435C0F228
:1013F000040505F10111204601F08CF9012813D1F3
:1014000041F2F216C2F200063788204601F0E4F8F5
:10141000F92F00F2AB8031884A1C328041F2F80289
:10142000C2F200025054A1E02046294601F072F9B0
:10143000012840F09B80204601F0CEF841F2F218DE
:10144000C2F20008B8F800608EB341F2F800C2F2B0
:10145000000040F60A513246FEF7EFFE38B340F284
:10146000A200C2F20000017800294ED0074617F80A
:10147000FC1F00294CD090F8F81100294AD090F8B0
:10148000F41200294AD090F8F01300294AD090F8BD
:10149000EC1400294AD090F8E81500294AD090F8B9
:1014A000E416002958D100F2E467072145E040F234
:1014B0002006C2F20006307818B9012000F05EFB69
:1014C000F9E7002030700E20707046F26410C6F20A
:1014D0007410C6F8020046F62010C2F27300C6F877
:1014E000060047F26520C6F67270C6F80A0040F69C
:1014F0007250F081204640F2073101F0FFF820469B
:1015000040F2063101F0FAF826E00021074614E027
:10151000012112E000F5FC7702210EE000F53D7795
:1015200003210AE000F57C77042106E000F2EC4795
:10153000052102E000F5BD670621C1EB811100EB3A
:10154000810041F2F80146700230C2F200013246D9
:10155000FEF748FE0120387041F2F800C2F20000A8
:10156000FA21FEF758FE0020A8F8000005F103114B
:10157000204601F0CFF801281AD140F22000C2F233
:101580000000017879B941F2F602C2F20002117846
:101590004378994207D208444B1C81782046137047
:1015A00001F01EF804E0204640F2073101F09AF8FD
:1015B00005F10211204601F0ADF8012818BFBDE881
:1015C000F081204640F2063101F08CF840F2200014
:1015D000C2F200000121017041F2F600C2F20000E7
:1015E00000210170BDE8F0812DE9F04144F2004492
:1015F00040F20055C4F20004C0F2010505F50031C7
:10160000204601F087F880B92046294601F082F88B
:1016100058B905F58031204601F07CF828B92046FC
:101620004FF4427101F076F8A8B12046032101F091
:1016300045F8204600F0D0FF41F2F810C2F2000059
:10164000FA21FEF7E8FD41F2F220C2F2000000218B
:101650000170BDE8F08140F20435C0F2040505F1E7
:101660000111204601F056F8012811D141F2F2266D
:10167000C2F200063778204600F0AEFFF82F07D8F8
:1016800031784A1C327041F2F812C2F20002505412
:101690002046294601F03EF8012866D1204600F098
:1016A0009BFF41F2F228C2F2000898F80060002E79
:1016B00051D041F2F810C2F2000040F60A51324611
:1016C000FEF7BBFD002846D040F61610C2F200001F
:1016D0000178C9B1074617F8FC1FC1B190F8F8119D
:1016E000B9B190F8F412C1B190F8F013C9B190F803
:1016F000EC14D1B190F8E815D9B190F8E41651BBCB
:1017000000F2E467072117E00021074614E00121F9
:1017100012E000F5FC7702210EE000F53D77032191
:101720000AE000F57C77042106E000F2EC47052191
:1017300002E000F5BD670621C1EB811100EB8100DD
:1017400041F2F81146700230C2F200013246FEF753
:1017500049FD0120387041F2F810C2F20000FA2170
:10176000FEF759FD002088F8000005F1031120461E
:1017700000F0D0FF01281AD140F69400C2F2000018
:10178000017879B941F2F412C2F20002117843787B
:10179000994207D208444B1C81782046137000F010
:1017A0001FFF04E0204640F2073100F09BFF05F1E7
:1017B0000211204600F0AEFF012818BFBDE8F081FD
:1017C000204640F2063100F08DFF40F6940041F2D1
:1017D000F412C2F200000121C2F2000200230170E3
:1017E00004F5EA304FF400511370BDE8F04100F009
:1017F00089BA0000FEE700008A09105801F01F01B5
:10180000C84000F001007047C1F38412012303FABD
:1018100002F2090B0A50704748F2CB02C0F20102F3
:1018200091420CD08422C0F2010291420BD04CF2C2
:10183000810291420BD1C26802F0030210E082697A
:10184000C2F302120CE0026902F0030208E00A0B84
:1018500052F800C0C1F3841301229A4002EA0C023C
:10186000406901F01F01C840002A18BF0122104042
:10187000704700002DE9F04F81B00646804616F80B
:10188000020B43F2DB2441F2083543F6210B894673
:101890004FF0000AC0F6000451A7C2F20005C0F6DE
:1018A000000B14E0002007EBC0004068804728468A
:1018B000FEF7BCFCC1B22846C8474046FC21FEF7F3
:1018C000AAFC00200AF1010ABAF1080F7AD0012817
:1018D000F8D1304621461122FEF7B9FC0028E1D0AC
:1018E000304659460D22FEF7B2FC002849D043F29B
:1018F000ED213046C0F600011322FEF7A8FC0028B7
:1019000041D043F615013046C0F600010B22FEF728
:101910009EFCD0B343F62F013046C0F600010D22E5
:10192000FEF795FC98B343F2C5213046C0F600019E
:101930001522FEF78CFC60B343F2B8213046C0F6A6
:1019400000010C22FEF783FC28B3CDF800904FF085
:10195000000900BF43F2A010C0F6000050F839B0F3
:101960005846FEF763FC024630465946FEF76FFCC8
:1019700098B109F10109B9F1220FEBD113A011219E
:1019800018E001208FE702208DE703208BE7042079
:1019900089E7052087E7062085E743F2A010C0F617
:1019A000000000EBC900D0F804B05846FEF73EFC3A
:1019B000C1B25846DDF80090C84743F6210BC0F687
:1019C000000B7AE701B0BDE8F08F00BF556E6B6E7B
:1019D0006F776E20636F6D6D616E640D0A0000009D
:1019E000DB320008AD1F000821380008ED1F000899
:1019F000ED320008E120000815380008A120000899
:101A00002F38000825210008C53200086120000891
:101A1000B83200082D20000870B5054640F22000BD
:101A2000C2F20000012100F8021B8221FEF7F3FB45
:101A30004FF4406000F0CEFC4FF4406000F0CAFC70
:101A400041F2041000F0C6FC41F20004C4F20104AB
:101A500004F57046304607214FF4007200F0E8F8B4
:101A6000304607214FF4806200F0E2F83046022150
:101A700001224FF4007300F053F930460221012295
:101A80004FF4806300F04CF93046002102224FF4FD
:101A9000007300F001FA3046002102224FF4806307
:101AA00000F0FAF9204600F09FFD2046294600F09C
:101AB00033FD2046002100F03FFE2046002100F0CB
:101AC00057FE2046002100F045FE2520002100227F
:101AD00000F0CCFB2046042100F036FE204640F208
:101AE000053100F00BFE20464FF4417100F006FE78
:101AF000204600F0DDFD20460821BDE8704000F0E2
:101B000031BE000070B540F22006C2F20006327805
:101B10000D46044632B900BF012000F02FF830789E
:101B20000028F9D068B2B0F1FF3F4FF00000D8BFF5
:101B30006FF07F053070EAB2B01C21467570FEF779
:101B400051FB41F20004C4F20104204640F2073187
:101B500000F0D4FD204640F20631BDE8704000F0B0
:101B6000CDBD000041F2F420C2F20000016800295E
:101B700008BF7047016801390160704741F2F421E4
:101B8000C2F20001086005E00868002808BF70473D
:101B9000086820B1086810B108680028F4D17047BF
:101BA00081B040F21801C2F2000109684DF683626B
:101BB000C4F21B32A1FB0212910C00220092009A87
:101BC0004843824207D200BF00BF00990131009113
:101BD00000998142F8D301B07047000080B582B00F
:101BE00013460A46014641F2F8204FF0500CC2F26B
:101BF0000000CDF800C0FFF731F902B080BD000051
:101C0000B0B541F200050446C4F20105284607219B
:101C100000F060FD0028F9D02846214600F0E0FCE5
:101C20002846062100F056FD0028F9D02046B0BD18
:101C300010B5036AD40723F00F0ED0F824C018BFE4
:101C40004EEA010323F0F00E940748BF4EEA011359
:101C500023F4706E540748BF4EEA012323F4704EFC
:101C6000140748BF4EEA013323F4702ED40648BF50
:101C70004EEA014323F4700E940648BF4EEA015326
:101C800023F0706E540648BF4EEA016323F0704E95
:101C9000140648BF4EEA01732CF00F0ED40548BF5E
:101CA0004EEA010C2CF0F00E940548BF4EEA011CE0
:101CB0002CF4706E540548BF4EEA012C2CF4704E83
:101CC000140548BF4EEA013C2CF4702ED40448BFE2
:101CD0004EEA014C2CF4700E940448BF4EEA015CAD
:101CE0002CF0706E540448BF4EEA016C2CF0704426
:101CF000120448BF44EA017C0362C0F824C010BD4E
:101D000081627047816170471823002A08BF282329
:101D1000195070470069084018BF01207047000043
:101D20002DE9F0430568D0F80C804FF0000C4FF01F
:101D3000030E002606E000BF0136102E0CF1100C39
:101D400000F0A58023FA06F7FF070BD00EFA0CF778
:101D5000BD4301FA0CF4254328EA070402FA0CF704
:101D600044EA0708013623FA06F4E4070FD00CF121
:101D700002040EFA04F725EA070901FA04F528EA35
:101D8000070702FA04F445EA090547EA04080136A0
:101D900023FA06F4E4070FD00CF104040EFA04F75A
:101DA00025EA070901FA04F528EA070702FA04F40C
:101DB00045EA090547EA0408013623FA06F4E40770
:101DC0000FD00CF106040EFA04F725EA070901FA10
:101DD00004F528EA070702FA04F445EA090547EA88
:101DE0000408013623FA06F4E4070FD00CF10804C6
:101DF0000EFA04F725EA070901FA04F528EA0707AD
:101E000002FA04F445EA090547EA0408013623FA10
:101E100006F4E4070FD00CF10A040EFA04F725EAE1
:101E2000070901FA04F528EA070702FA04F445EA6B
:101E3000090547EA0408013623FA06F4E4070FD03F
:101E40000CF10C040EFA04F725EA070901FA04F56F
:101E500028EA070702FA04F445EA090547EA0408F4
:101E6000013623FA06F4E4073FF466AF0CF10E04E2
:101E70000EFA04F725EA070901FA04F528EA07072C
:101E800002FA04F445EA090547EA040854E7056044
:101E9000C0F80C80BDE8F08370B50129416814BF1B
:101EA000994319434160D0F808E000214FF0030C3A
:101EB000002404E00134102C01F1100172D023FA47
:101EC00004F5ED0707D00CFA01F52EEA050E02FA2B
:101ED00001F54EEA050E013423FA04F5ED0708D0AA
:101EE0008D1C0CFA05F62EEA060602FA05F546EAFE
:101EF000050E013423FA04F5ED0708D00D1D0CFA88
:101F000005F62EEA060602FA05F546EA050E013444
:101F100023FA04F5ED0708D08D1D0CFA05F62EEA1C
:101F2000060602FA05F546EA050E013423FA04F521
:101F3000ED0709D001F108050CFA05F62EEA0606B0
:101F400002FA05F546EA050E013423FA04F5ED0719
:101F500009D001F10A050CFA05F62EEA060602FA86
:101F600005F546EA050E013423FA04F5ED0709D01C
:101F700001F10C050CFA05F62EEA060602FA05F543
:101F800046EA050E013423FA04F5ED0792D001F17B
:101F90000E050CFA05F62EEA060602FA05F546EAE3
:101FA000050E87E7C0F808E070BD000080B543F279
:101FB0008010C0F60000C068804710EE100AFEF7DF
:101FC00053F9024641F208300B46C2F2000002A16A
:101FD000BDE8804000F040BC566275735F56616C8E
:101FE0003D25302E34660D0A0000000080B543F216
:101FF0008010C0F600004068804710EE100AFEF71F
:1020000033F9024641F208300B46C2F2000002A149
:10201000BDE8804000F020BC437572725F56616C71
:102020003D25302E34660D0A0000000080B543F2D5
:102030008010C0F6000080698047024641F20830F7
:10204000C2F2000002A1BDE8804000F005BC00BF64
:102050004469655F49443D3078253034580D0A00A5
:1020600080B543F28010C0F6000040698047024608
:1020700041F20830C2F2000002A1BDE8804000F049
:10208000EBBB00BF4D616E756661637475726572FE
:102090005F49443D3078253034580D0A0000000077
:1020A00080B543F28010C0F6000080688047BDEE26
:1020B000C00A41F2083010EE102AC2F2000002A15C
:1020C000BDE8804000F0C8BB506F7765725F566115
:1020D0006C75653D3078253034580D0A00000000DD
:1020E00080B543F28010C0F600000069804710EE12
:1020F000100AFEF7B9F8024641F208300B46C2F268
:10210000000002A1BDE8804000F0A6BB7368756EB8
:10211000745F766F6C746167653D25302E34660D93
:102120000A00000080B543F28010C0F6000080690C
:10213000804709A241F20830D2E90131C2F2000021
:10214000DFF814C0D2F80CE08160117CC0E900C354
:10215000C0F80CE0017480BD416C65727420697335
:1021600020556C6F636B0D0A00000000B0B540F69F
:10217000024000F02FF940F6024000F02BF94FF436
:10218000406000F027F940F60004C4F20204204643
:10219000012100222023FFF7C3FD20460121002258
:1021A0001023FFF7BDFDA4F500652846012100229C
:1021B0008023FFF7B5FD2046002102222023FFF7F0
:1021C0006BFE2046002102221023FFF765FE284601
:1021D000002102228023FFF75FFE204620210122FA
:1021E000FFF792FD204610210122FFF78DFD2846C2
:1021F00080210122BDE8B040FFF786BD00F068F9FC
:1022000043F28011C0F6000140F20045C4F202051D
:102210000C6805F54060CE69042108224023A047E0
:10222000FFF7A4FF4FF4E130FFF7F6FB4FF4E13086
:10223000FEF78AFD284640218022FFF7CFFCB047F9
:10224000FEF760FD00F09CFA03A01021FFF75AFC96
:10225000FEF7BCFAFCE700BF53797374656D204943
:102260006E6974204F4B0D0A000000004EF60C5CA6
:10227000CEF2000CDCF8003003F4E063B3F5E06F5D
:1022800001D104232AE0DCF8003003F4E063B3F565
:10229000C06F01D1032321E0DCF8003003F4E063D8
:1022A000B3F5A06F01D1022318E0DCF8003003F48D
:1022B000E063B3F5806F01D101230FE0DCF800305B
:1022C00003F4E063B3F5407F01D1002306E040F260
:1022D0000053C0F2FA53CCF80030022301FA03FC99
:1022E000C3F104030F21D94011404EF2001241EA1C
:1022F0000C01CEF20002090140EA020383F8001348
:1023000000F01F01012303FA01F11C2303EAD000AE
:102310008150704710B543F60402C4F202025368BC
:102320000146C3F3810342F20040022BC0F2F400E5
:1023300006D0012B1FD147F64000C0F27D101AE0F5
:10234000D2F800C013680CF03F0CC3F3881E13686A
:102350001468C3F30143640247F64004C0F27D14DD
:1023600058BF0446B4FBFCF4022000EB430004FB1E
:102370000EF3B3FBF0F05368D2F804C0526803299F
:102380000FD8C3F303130FA4E35C43F2B02E20FA7B
:1023900003F3C0F6000EDFE801F01302060D184645
:1023A00010BD002010BDCCF382201EF8000023FADF
:1023B00000F010BDC2F342301EF8000023FA00F016
:1023C00010BD00BF00000000000000000102030477
:1023D0000607080943F6000300F01F018009C4F254
:1023E00002034FF0010CC2580CFA01F11143C15025
:1023F0007047000043F6000300F01F018009C4F29B
:1024000002034FF0010CC2580CFA01F122EA01015B
:10241000C150704743F6000300F01F018009C4F269
:1024200002034FF0010CC2580CFA01F11143C150E4
:1024300070470000F0B581B044F20044C4F20004DB
:102440000D4606464FB204F5EA304FF40051FFF74F
:1024500057FC40F69400C2F200000021B7F1FF3FA4
:10246000D8BF6FF07F0500F8021BEAB2314600F8D2
:10247000015CFDF7B7FE204640F2073100F03EF95F
:10248000204640F2063101B0BDE8F04000F036B918
:10249000016841F0400101607047000070B50268BA
:1024A000D1E902E402F4415CD1E90032D1E90456F9
:1024B00043EA0C031A4342EA0E02224389692A4383
:1024C000324311430160C16921F40061C16170BDF3
:1024D00040F21800C2F20000006844F6D351C1F285
:1024E0006201A0FB01014FF0FF3000EB9110B0F151
:1024F000807F00D3FEE74EF21001CEF2000148606B
:102500004EF62350CEF20000F02202700022072384
:102510008A600B6002707047B0B5044647F2FF70E6
:10252000C4F200000D4684424FF000000EDC44F679
:10253000FF31C4F200018C4217DC44F20041C4F2C6
:1025400000018C421DD044F6000116E040F6FF71F8
:10255000C4F201018C422FDC47F60001C4F20001F5
:102560008C420ED047F6004107E044F60041C4F229
:1025700000018C4205D045F20001C4F200018C42FA
:1025800003D102210846FFF7C5FEE168090406D41D
:1025900000EB5500B0FBF5F080B2A060B0BD40008C
:1025A00000EB5500B0FBF5F04FF6F0710140C0F3C1
:1025B00042000844A060B0BD41F20001C4F2010134
:1025C0008C424FF00301DDD041F20042C4F201021F
:1025D0009442D7D0D9E7000040686FF35F2070477E
:1025E0006FF35F214160704710B547F2FF71C4F28D
:1025F0000001884214DC44F6FF31C4F20001884235
:1026000024DC44F20041C4F2000188423CD044F68C
:102610000001C4F20001884249D140F612043EE0B4
:1026200040F6FF71C4F2010188421EDC47F600014A
:10263000C4F2000188422AD047F60041C4F20001EA
:10264000884218BF10BD40F61F0428E044F6004140
:10265000C4F2000188421DD045F20001C4F200011D
:10266000884224D140F6140419E041F20001C4F27A
:102670000101884211D041F20041C4F201018842B7
:1026800015D140F605140AE040F6110407E040F6C3
:102690001E0404E040F6130401E040F60414204652
:1026A000FFF7B8FE2046BDE81040FFF7A3BE10BDFF
:1026B000C16841F40051C1607047000001F01F0281
:1026C00089094FF0010C0B580CFA02F223EA0202BE
:1026D0000A5070478A09105801F01F01C84000F0E5
:1026E0000100704701F01F0289094FF0010C0B58DF
:1026F0000CFA02F223EA02020A50704701F01F02AC
:1027000089094FF0010C0B580CFA02F21A430A50D7
:1027100070470000C1F3891252F800C08A0D1058AA
:1027200001F01F03C1F30441C8402CFA03F1084033
:1027300000F0010070470000C26822F4C062C2606D
:10274000C2681143C1607047C26822F0040211439D
:10275000C1607047026922F440520261026911436C
:1027600001617047C26822F008021143C1607047DE
:10277000C26822F48052C260C2681143C1607047CF
:1027800070B588B040F60540FFF724FE40F60540DE
:10279000FFF720FE41F20044C4F202042046052166
:1027A0008022FFF745FA204605214FF48072FFF79B
:1027B0003FFA204605214FF400724FF40075FFF7F1
:1027C00037FA20460221002280230026FFF7A8FACC
:1027D0002046022100224FF48073FFF7A1FA204621
:1027E000022100224FF40073FFF79AFA20460021DD
:1027F00002228023FFF750FB2046002102224FF4E3
:102800000073FFF749FB2046012100224023FFF718
:1028100087FA2046002102224023FFF73DFB204695
:102820004021FFF76FFA41F21410FFF7D3FD4FF488
:10283000827001900320A4F54444CDE9060601A965
:10284000204602960396CDE90456FFF727FE204660
:10285000FFF71EFE08B070BD0FB4084B10B504A9F9
:1028600002AA039800F0DEF8044602A9002000F056
:1028700070FC204610BC5DF814FB000053310008CA
:1028800002E008C8121F08C1002AFAD17047704739
:10289000002001E001C1121F002AFBD17047000097
:1028A0002DE9FF5F82B00021DDE90430020DDDF883
:1028B00040B0034318D044F61050A2F2FF32424316
:1028C0001514119801281FD0A5EB0B00401C5FEADE
:1028D000000A4FF000064E4FDFF83891B0465046E0
:1028E00015D5CAF1000413E0119801244AA3012868
:1028F00001D16FEA0B010298119AC0E90031C0E9D9
:10290000024206B0BDE8F09FCBF10000DFE70446CD
:102910000021404A491842EB0450CDE9001012E072
:10292000E00707D032463B4640464946FDF79DFD4D
:102930008046894632463B4610461946FDF795FDCE
:1029400006460F466410002CEAD1DDE90401DDE9FA
:102950000023BAF1000F06DAFDF787FD42464B4629
:10296000FDF783FD05E0FDF7F2FD42464B46FDF71E
:10297000EEFD04460E460022284BFDF76FFE03D8FD
:102980004FF0FF30014607E00022254B204631463C
:10299000FDF7C4FCFDF74AFE102409E0002C0ADB19
:1029A0000A220023FDF789FC039B30321A55641E6E
:1029B00050EA0102F2D1641C039AC4F111031444D9
:1029C000119A012A03D0012208430DD10AE00843DD
:1029D00004D000204FF0110B119072E7A3EB0B0510
:1029E0006D1E0DE05B4504DD4FF0000205F10105B1
:1029F00004E003DA4FF00002A5F10105002AECD053
:102A000002981199C0E90231C0E9004579E7000058
:102A1000000014400000F03F300000000000F043D0
:102A20000000E03F2DE9FF4F95B09B4689460646E2
:102A300000250FE2252877D100242746F84A0121F6
:102A4000059400E0044316F8013F203B01FA03F02F
:102A50001042F7D130782A2811D06FF02F03307848
:102A6000A0F13002092A16D8059A44F0020402EBBC
:102A7000820203EB42021044761C0590EFE759F8FE
:102A8000042B0592002A03DA504244F400540590C6
:102A900044F00204761C30782E2816D116F8010F67
:102AA00044F004042A280DD06FF02F023078A0F1F2
:102AB0003003092B09D807EB870302EB4303C71840
:102AC000761CF3E759F8047B761C30786C280FD01D
:102AD00006DC4C2817D068280DD06A2814D104E0F1
:102AE000742810D07A280FD10DE044F400140AE0C5
:102AF00044F4801401E044F440147278824202D11C
:102B000004F58014761C761C307866280BD013DC14
:102B1000582877D009DC002875D04528F6D04628FB
:102B2000F4D047281AD19DE118E0632835D06428F5
:102B300079D0652812D195E1702873D008DC672818
:102B4000F1D069286FD06E280DD06F2806D1B5E07E
:102B500073282CD0752875D0782874D05A461799C8
:102B600090476D1C75E1C4F30250022809D0032878
:102B70000DD0D9F8001004280DD00D6009F104091A
:102B800067E1D9F80010EA17C1E90052F6E7D9F871
:102B900000100D80F2E70D70F0E719F8041B8DF8B6
:102BA000001000208DF80100EA46012003E059F8EA
:102BB00004AB4FF0FF3061074FF0000102D40DE08D
:102BC00008F101018846B9420FDA8045F8DB1AF8AE
:102BD00008100029F4D108E008F10101884681427B
:102BE000FADB1AF808100029F6D105985B46A0EB2D
:102BF000080721463846179A00F094FA284400EB5B
:102C0000080507E04DE029E10DE01AF8010B5A46EE
:102C100017999047B8F10108F7D25B46214638462C
:102C2000179A13E142E00A220092C4F302524FF0D5
:102C3000000A022A08D059F804CB032A4FEAEC71A3
:102C40000AD00DE029E02AE009F1070121F007028E
:102C5000F2E802C1914609E00FFA8CFC4FEAEC71F0
:102C6000042A03D14FFA8CFC4FEAEC71002907DAF1
:102C70000A460021DCF1000C61EB02012D2202E08A
:102C8000220504D52B228DF80420012203E0E2075F
:102C900001D02022F7E7904659E00A2102E01022F5
:102CA0000DE010214FF0000A00910BE010224FF0D0
:102CB000000A44F004040827009203E008224FF0C1
:102CC000000A0092C4F30252022A05D059F804CB3C
:102CD0000021032A08D009E009F1070121F00702C9
:102CE000F2E802C1914605E01FFA8CFC042A01D1EA
:102CF0000CF0FF0C4FF00008220728D5702806D0F2
:102D0000009B83F0100353EA0A0305D00EE0402233
:102D10008DF80420012208E05CEA010206D030228E
:102D20008DF804208DF8050002229046009B83F068
:102D3000080353EA0A030AD15CEA010201D16207DF
:102D400005D530228DF804204FF001087F1E582849
:102D500004D034A003900EA802900DE036A0F9E74D
:102D600053466046009AFDF7A8FA84460398825CB1
:102D70000298401E029002705CEA0100F0D10298B5
:102D800006A9081A00F1200A600702D524F480344D
:102D900000E00127574502DDA7EB0A0000E0002014
:102DA00000EB0A01009005984144401A0590E003A9
:102DB00006D45B462146179A059800F0B3F90544FE
:102DC000002706E001A85A46C05D179990476D1C80
:102DD0007F1C4745F6DBE0030CD55B462146179A7E
:102DE000059800F09FF9054404E030205A461799F1
:102DF00090476D1C0099481E00900029F5DC08E002
:102E0000029802995A460078491C029117999047F6
:102E10006D1CBAF10001AAF1010AF1DC65E10000C4
:102E200009280100303132333435363738396162A0
:102E30006364656600000000303132333435363764
:102E400038394142434445460000000000F058F93B
:102E50000544761C307800287FF4ECAD19B0284684
:102E6000BDE8F08F620700D4062709F1070222F0BF
:102E7000070CFCE80223E14603F000485FEA080C77
:102E800002D00FF2702C0DE05FEA045C02D50FF265
:102E9000682C07E05FEAC47C02D00FF2602C01E0EE
:102EA000AFF2700C4FF0FF3823F00043CDF850C064
:102EB00065280CD006DC452809D046281DD04728B7
:102EC0003DD13DE0662818D067287ED138E000214A
:102ED000112F01DB112000E0781CCDE9000106A9CB
:102EE0000EA8FFF7DDFCDDE90F010E9A039100212A
:102EF000009207F1010A04914DE04FF00040009765
:102F0000CDE9011006A90EA8FFF7CAFCDDE90F0202
:102F100003920E9B11990022DDF80CA000930492FD
:102F200011B9791C00EB010AB7EB0A0004D4C0F117
:102F3000FF3007F1010A0490AAEB0700019044E07A
:102F4000012F00DA01270021112F01DD112000E0FF
:102F50003846CDE9000106A90EA8FFF7A1FCDDE97E
:102F60000F010E9A0391002104910092BA462107A5
:102F70000CD40399514500DA8A46BAF1010F05DDF8
:102F8000009AAAF10101515C302908D0B84202DA56
:102F900010F1040F06DA0121CDE9011015E0AAF1C4
:102FA0000101E9E7002805DC049901440491AAEB3A
:102FB000000102E0411C514500DD8A460499401A97
:102FC000401C01904FF000400290200704D401986B
:102FD000504501DBCDF8048000208DF84F000298A9
:102FE0000DF14F07B0F1004F25D02B200E90029825
:102FF0004FF0020800280CDA404202902D200E907B
:1030000007E00A210298FDF742F93031029007F8F3
:10301000011DB8F10001A8F10108F2DC02980028B6
:10302000EFD1791E0E980870307800F0200040F043
:10303000450007F8020D12A8C01B00F107081498FC
:10304000007800B1012000EB0A01019801EBE0716A
:1030500005984144401A401E0590E00306D45B46A3
:103060002146179A059800F05DF8054414980078F9
:1030700018B15A46179990476D1CE00324D55B465A
:103080002146179A059800F04DF805441CE0049875
:10309000002807DBDDE90301884203DD0098405C7E
:1030A000179901E0179930205A469047049805F186
:1030B0000105401C04900198401E019004D12E206F
:1030C0005A46179990476D1CBAF10001AAF1010AFE
:1030D000DDDC05E017F8010B5A46179990476D1C87
:1030E000B8F10001A8F10108F4DC5B462146179A0B
:1030F0000598ABE62D0000002B000000200000002A
:103100002DE9F041044600251E461746880404D4E4
:1031100005E039462020B0476D1C641EF9D52846CD
:10312000BDE8F0812DE9F041044600251E46904699
:10313000C80301D5302700E02027880404D505E026
:1031400041463846B0476D1C641EF9D52846BDE897
:10315000F0810A68531C0B601070704710B504466C
:1031600001E0FEF74DFD14F8010B04490028F8D1E9
:10317000BDE810400A20FEF743BD0000000000201B
:103180008D0B0008FD0A00083D0B0008D50A000859
:10319000690B0008350B00082D0B0008150C000802
:1031A000AC360008BF36000821340008353400086A
:1031B000AD350008E9360008CF35000811370008A2
:1031C000F135000839370008133600086137000868
:1031D000353600088937000857360008B13700082F
:1031E00079360008D93700088A360008ED3700081C
:1031F0009B360008013800089C350008D5360008C9
:10320000BE350008FD360008E03500082537000807
:10321000023600084D3700082436000875370008CC
:10322000463600089D37000868360008C537000894
:103230001333000861340008373300088B3400086A
:103240005B330008B53400087F330008DF34000822
:10325000A333000809350008C733000833350008D8
:10326000EB3300085D350008FD33000872350008B7
:103270000F34000887350008013300084C3400087B
:10328000253300087634000849330008A0340008CC
:103290006D330008CA34000891330008F434000884
:1032A000B53300081E350008D9330008483500083A
:1032B00000000000010203046765745F6469655FD4
:1032C00069640D0A006765745F6D616E75666163A0
:1032D00074757265725F69640D0A006765745F6278
:1032E00075735F766F6C746167650D0A006765744E
:1032F0005F7368756E745F766F6C746167650D0AD5
:10330000004368616E6E656C31305F636C6F73652E
:103310000D0A004368616E6E656C30315F636C6FDF
:1033200073650D0A004368616E6E656C31315F63D1
:103330006C6F73650D0A004368616E6E656C3032A8
:103340005F636C6F73650D0A004368616E6E656C38
:1033500031325F636C6F73650D0A004368616E6E96
:10336000656C30335F636C6F73650D0A0043686191
:103370006E6E656C31335F636C6F73650D0A00436D
:1033800068616E6E656C30345F636C6F73650D0AD7
:10339000004368616E6E656C31345F636C6F73659A
:1033A0000D0A004368616E6E656C30355F636C6F4B
:1033B00073650D0A004368616E6E656C31355F633D
:1033C0006C6F73650D0A004368616E6E656C303614
:1033D0005F636C6F73650D0A004368616E6E656CA8
:1033E00031365F636C6F73650D0A004368616E6E02
:1033F000656C30375F636C6F73650D0A00436861FD
:103400006E6E656C30385F636C6F73650D0A0043D8
:1034100068616E6E656C30395F636C6F73650D0A41
:10342000004368616E6E656C5F616C6C5F636C6FAE
:1034300073650D0A004368616E6E656C5F69735F4A
:10344000616C6C5F636C6F73650D0A004368616E3D
:103450006E656C31305F69735F636C6F73650D0A05
:10346000004368616E6E656C30315F69735F636CD9
:103470006F73650D0A004368616E6E656C31315F74
:1034800069735F636C6F73650D0A004368616E6EEC
:10349000656C30325F69735F636C6F73650D0A0032
:1034A0004368616E6E656C31325F69735F636C6F28
:1034B00073650D0A004368616E6E656C30335F6939
:1034C000735F636C6F73650D0A004368616E6E65B0
:1034D0006C31335F69735F636C6F73650D0A004312
:1034E00068616E6E656C30345F69735F636C6F73B7
:1034F000650D0A004368616E6E656C31345F6973F7
:103500005F636C6F73650D0A004368616E6E656C76
:1035100030355F69735F636C6F73650D0A004368D4
:10352000616E6E656C31355F69735F636C6F736577
:103530000D0A004368616E6E656C30365F69735FBB
:10354000636C6F73650D0A004368616E6E656C3164
:10355000365F69735F636C6F73650D0A0043686162
:103560006E6E656C30375F69735F636C6F73650D8A
:103570000A004368616E6E656C30385F69735F6323
:103580006C6F73650D0A004368616E6E656C30394F
:103590005F69735F636C6F73650D0A004368616EEA
:1035A0006E656C31305F6F70656E0D0A0043686147
:1035B0006E6E656C30315F6F70656E0D0A0043682A
:1035C000616E6E656C31315F6F70656E0D0A004320
:1035D00068616E6E656C30325F6F70656E0D0A00EB
:1035E0004368616E6E656C31325F6F70656E0D0A97
:1035F000004368616E6E656C30335F6F70656E0D91
:103600000A004368616E6E656C31335F6F70656E82
:103610000D0A004368616E6E656C30345F6F7065D3
:103620006E0D0A004368616E6E656C31345F6F70B9
:10363000656E0D0A004368616E6E656C30355F6FB4
:1036400070656E0D0A004368616E6E656C31355FA2
:103650006F70656E0D0A004368616E6E656C303682
:103660005F6F70656E0D0A004368616E6E656C3148
:10367000365F6F70656E0D0A004368616E6E656C33
:1036800030375F6F70656E0D0A004368616E6E655E
:103690006C30385F6F70656E0D0A004368616E6E46
:1036A000656C30395F6F70656E0D0A004368616E3E
:1036B0006E656C5F616C6C5F6F70656E0D0A0043C8
:1036C00068616E6E656C5F69735F616C6C5F6F7073
:1036D000656E0D0A004368616E6E656C31305F691E
:1036E000735F6F70656E0D0A004368616E6E656C86
:1036F00030315F69735F6F70656E0D0A00436861FA
:103700006E6E656C31315F69735F6F70656E0D0A47
:10371000004368616E6E656C30325F69735F6F7015
:10372000656E0D0A004368616E6E656C31325F69CB
:10373000735F6F70656E0D0A004368616E6E656C35
:1037400030335F69735F6F70656E0D0A00436861A7
:103750006E6E656C31335F69735F6F70656E0D0AF5
:10376000004368616E6E656C30345F69735F6F70C3
:10377000656E0D0A004368616E6E656C31345F6979
:10378000735F6F70656E0D0A004368616E6E656CE5
:1037900030355F69735F6F70656E0D0A0043686155
:1037A0006E6E656C31355F69735F6F70656E0D0AA3
:1037B000004368616E6E656C30365F69735F6F7071
:1037C000656E0D0A004368616E6E656C31365F6927
:1037D000735F6F70656E0D0A004368616E6E656C95
:1037E00030375F69735F6F70656E0D0A0043686103
:1037F0006E6E656C30385F69735F6F70656E0D0A51
:10380000004368616E6E656C30395F69735F6F701D
:10381000656E0D0A006765745F706F7765720D0ADB
:10382000006765745F63757272656E740D0A00756A
:103830006C6F636B5F616C6572740D0A0000000051
:1038400060380008000000202000000080280008E8
:103850008038000820000020681700009028000829
:1038600000000000400004000403030701800380FF
:10387000D007EC030000803F001C4E0E000000004B
:04000005080001AD41
:00000001FF
