S31508000000F0120020C101000815040008D5030008F5
S315080000101104000809030008D10E000800000000BA
S31508000020000000000000000000000000190500089C
S31508000030D10300080000000019040008B1080008F0
S31508000040DB010008DB010008DB010008DB01000812
S31508000050DB010008DB010008DB010008DB01000802
S31508000060DB010008DB010008DB010008DB010008F2
S31508000070DB010008DB010008DB010008DB010008E2
S31508000080DB010008DB010008DB010008DB010008D2
S31508000090DB010008DB010008DB010008DB010008C2
S315080000A0DB010008DB010008DB010008DB010008B2
S315080000B0DB010008DB010008DB010008DB010008A2
S315080000C0DB010008DB010008DB010008DB01000892
S315080000D0DB010008DD0A0008A50C0008DB010008A2
S315080000E0DB010008DB010008DB010008DB01000872
S315080000F0DB010008DB010008DB010008DB01000862
S31508000100DB010008DB010008DB010008DB01000851
S31508000110DB010008DB010008DB010008DB01000841
S31508000120DB010008DB010008DB010008DB01000831
S31508000130DB010008DB010008DB010008DB01000821
S31508000140DB0100080D030008DB010008DB010008DD
S31508000150DB010008DB010008DB010008DB01000801
S31508000160DB010008DB010008DB010008DB010008F1
S31508000170DB010008DB010008DB01000800000000C5
S31508000180DB010008DB010008DB010008DB010008D1
S31508000190DB010008DB010008DB01000800000000A5
S315080001A0DB010008DB010008DB010008DFF80CD0E2
S315080001B000F078F80048004749190008F0120020B6
S315080001C00648804706480047FEE7FEE7FEE7FEE7E3
S315080001D0FEE7FEE7FEE7FEE7FEE7FEE7B5080008EE
S315080001E0AD01000840EA01039B0703D009E008C9EE
S315080001F0121F08C0042AFAD203E011F8013B00F8DE
S31508000200013B521EF9D27047D2B201E000F8012B29
S31508000210491EFBD270470022F6E710B513460A4678
S3150800022004461946FFF7F0FF204610BDCBB203E09F
S315080002300178994203D0401C521EF9D2002070471B
S315080002402DE9F05F0546002092469B4688460646FD
S31508000250814640241BE0284641464746224600F090
S3150800026042F853465A46C01A914110D311461846C9
S31508000270224600F029F82D1A67EB01084F46224658
S315080002800120002100F020F817EB00094E41201E3E
S31508000290A4F10104DFDC484631462A464346BDE858
S315080002A0F09F0000064C074D06E0E06840F00103A9
S315080002B094E8070098471034AC42F6D3FFF77AFF64
S315080002C0A4230008C4230008202A04DB203A00FAE5
S315080002D002F1002070479140C2F1200320FA03F38F
S315080002E0194390407047202A04DB203A21FA02F08D
S315080002F00021704721FA02F3D040C2F12002914052
S315080003000843194670470000FEE7000070B546F638
S3150800031000048425C4F20004C0F2010520462946DB
S3150800032000F042FF012822D105F182062046314617
S3150800033000F03AFF012806D12046314600F02CFF8E
S3150800034015A002F00BF820464FF4C06100F08CFEB1
S31508000350012802D115A002F001F82046294600F02E
S315080003601BFF40F6E860C2F200000121017048F266
S315080003708A05C0F201052046294600F015FF012826
S3150800038018BF70BD2046294600F006FF0CA0BDE840
S31508000390704001F0E3BF00BF43414E204649464F37
S315080003A031206F766572666C6F77210043414E2067
S315080003B07761726E696E67206572726F72210000CE
S315080003C043414E20627573206F6666210000000067
S315080003D070470000FEE7000010B54FF4406001F0DA
S315080003E0E3FB40F6024001F0DFFB0024C4F20204FE
S315080003F0204600210222012301F0CAF804F5006014
S31508000400002101224FF40053BDE8104001F0C0B8A6
S31508000410FEE70000704700007047000070B505460B
S315080004204FF4406001F0C0FB4FF4406001F0BCFBA4
S3150800043041F2110001F0B8FB44F20044C4F2000492
S3150800044004F5DE3630460721042201F02BF8304643
S315080004500721082201F026F830460221012204234A
S3150800046001F096F8304602210122082301F090F89F
S31508000470304600210222042301F046F930460021C5
S315080004800222082301F040F9204601F049FC2046E3
S31508000490294601F0DDFB2046002101F0E9FC204653
S315080004A0002101F001FD2046002101F0EFFC262085
S315080004B00021012201F0C4FA2046082101F0EEFCD1
S315080004C02046042101F0DCFC204640F2053101F00B
S315080004D0B1FC20464FF4417101F0ACFC204601F016
S315080004E083FC40F6064001F05FFB04F5EA3420463B
S315080004F0012100224FF4005301F04AF8204600215A
S3150800050002224FF4005301F0FFF820464FF4005141
S31508000510BDE8704001F02EB87047000010B50446DB
S315080005200298216001F13E4101F1FF714FEAB121C4
S315080005300829A280E380208123D800EB81024FF4AA
S315080005404060DFE801F01C05080B0E1114171A00AD
S3150800055040F6014013E040F6024010E040F6034042
S315080005600DE040F604400AE040F6054007E040F694
S31508000570064004E040F6074001E040F6084001F076
S3150800058013FB2068A3880121012201F001F82068E5
S31508000590E3880121012200F0FBFF2068A3880121DE
S315080005A0022201F0B1F82068E3880121022201F055
S315080005B0ABF82068A188012200F0DEFF0A2000F0CF
S315080005C0D7FE2068E188012200F0D6FF0A2000F055
S315080005D0CFFE2068E188012200F0CEFF0A2000F055
S315080005E0C7FE2068A188012200F0C6FF0A2000F095
S315080005F0BFFE2068E188002200F0BEFF0A2000F056
S31508000600B7FE2068A188002200F0B6FF0A2000F095
S31508000610AFFE2068E188002200F0AEFF0A2000F055
S31508000620A7FE2068A188012200F0A6FF0A2000F094
S315080006309FFE2068E188012200F09EFF0A20BDE89F
S31508000640104000F095BE0000B0B50446E288006888
S315080006500D461146012200F08FFF0A2000F088FEA1
S315080006602068A188012200F087FF0A2000F080FE9A
S315080006702068E188002200F07FFF0A2000F078FE5B
S315080006802068A188002200F077FF0A2000F070FE9B
S31508000690207A4000C1B2204600F0DCF82068E188E4
S315080006A0012200F069FF0A2000F062FE2068A18896
S315080006B0012200F061FF0A2000F05AFE2068E18856
S315080006C000F060FF0A2000F053FE2068A18800228F
S315080006D000F052FF0A2000F04BFE2046294600F0A3
S315080006E0B9F82068E188012200F046FF0A2000F0E8
S315080006F03FFE2068A188012200F03EFF0A2000F094
S3150800070037FE2068E18800F03DFF0A2000F030FE41
S315080007102068A188002200F02FFF0A2000F028FE9A
S315080007202068E188012200F027FF0A2000F020FE59
S315080007302068A188012200F01FFF0A2000F018FE99
S315080007402068E188002200F017FF0A2000F010FE5A
S315080007502068A188002200F00FFF0A2000F008FE9A
S31508000760207A40000130C1B2204600F073F82068B4
S31508000770E188012200F000FF0A2000F0F9FD206858
S31508000780A188012200F0F8FE0A2000F0F1FD206899
S31508000790E18800F0F7FE0A2000F0EAFD2068A1884B
S315080007A0002200F0E9FE0A2000F0E2FD204600F0F3
S315080007B01DF82268E18805461046002200F0DCFE96
S315080007C00A2000F0D5FD2068A188012200F0D4FE99
S315080007D00A2000F0CDFD2068E188012200F0CCFE59
S315080007E00A2000F0C5FD2846B0BD00002DE9F041FD
S315080007F004460068E188012200F0BEFE0A2000F0E7
S31508000800B7FD00264FF08008002700BF2068A188A2
S31508000810012200F0B1FE0A2000F0AAFD2068E18856
S3150800082000F0B0FE05460A2000F0A2FD28FA06F2FE
S315080008302068A188012D08BF1743002200F09CFEFE
S315080008400A2000F095FD0136082EDFD1F8B2BDE882
S31508000850F0810000F0B581B00C46054600268027D9
S3150800086027FA06F22868E988224000F085FE0A2061
S3150800087000F07EFD022000F07BFD2868A988012291
S3150800088000F07AFE0A2000F073FD022000F070FDE9
S315080008902868A988002200F06FFE0A2000F068FD8B
S315080008A0022000F065FD0136082ED9D101B0F0BD51
S315080008B000F040BD81B04EF68851CEF200010A68BC
S315080008C043F6080042F47002C4F202000A6050F8C7
S315080008D0081C4FF0000C41F0010140F8081C0168A3
S315080008E04CF24F3241F080010160CDF800C0009B08
S315080008F0934219D84CF2503300990131009100996E
S31508000900994211D2009901310091009991420BD870
S315080009100099013100910099914205D80099013159
S31508000920009100999942E7D3016841F0900101606E
S31508000930CDF800C0009991421CD84CF250314CF2C7
S315080009404F3200BF009B01330093009B8B4211D2AC
S31508000950009B01330093009B93420BD8009B013305
S315080009600093009B934205D8009B01330093009B9C
S315080009708B42E7D301684FF6FF7221F0030101604D
S3150800098050F8081CCFF6F662114040F8081C50F8DB
S31508000990081C21F4802140F8081C00210160026827
S315080009A043F21002C2F2004240F8042C416050F8AB
S315080009B0081C41F4803140F8081C4FF6FC7100BF52
S315080009C050F8082C92035CBF50F8082C5FEA823274
S315080009D00AD450F8082C39B112F4003204D150F870
S315080009E0082C04399203EBD550F8081C890300D467
S315080009F0FEE7826B47F2040142F08052C4F200011E
S31508000A00826351F8042C42F4404241F8042C0268EF
S31508000A100260026842F400420260026842F4A05290
S31508000A20026047F60802C0F6402240F8042C50F847
S31508000A30082C42F0807240F8082C00BF50F8082CA9
S31508000A4092015FBF50F8082C5FEA821250F8082C12
S31508000A505FEA821203D450F8082C9201EED551F8B9
S31508000A60042C42F4803241F8042C00BF0A68D203F1
S31508000A705FBF0A685FEAC2320A685FEAC23202D416
S31508000A800A68D203F2D551F8042C42F4003241F830
S31508000A90042C00BF0A6892035FBF0A685FEA8232C5
S31508000AA00A685FEA823202D40A689203F2D50168BC
S31508000AB021F003010160016841F00201016001684B
S31508000AC0090709D4016809075CBF01685FEA017173
S31508000AD002D401680907F2D501B070472DE9F04143
S31508000AE041F2000440F20055C4F20104C0F20105C7
S31508000AF005F50031204601F0A9F980B920462946B6
S31508000B0001F0A4F958B905F58031204601F09EF99F
S31508000B1028B920464FF4427101F098F9A8B1204649
S31508000B20032101F067F9204601F0F2F840F6E040AB
S31508000B30C2F20000FA21FFF76EFB40F6DA50C2F265
S31508000B40000000210170BDE8F08140F20435C0F2D2
S31508000B50040505F10111204601F078F9012811D1A3
S31508000B6040F6DA56C2F200063778204601F0D0F889
S31508000B70F82F07D831784A1C327040F6E042C2F2A4
S31508000B80000250542046294601F060F9012848D150
S31508000B90204601F0BDF840F6DA58C2F2000898F887
S31508000BA00060A6B340F6E040C2F2000040F60A51E3
S31508000BB03246FFF73BFB50B340F28A00C2F2000010
S31508000BC0017869B1074617F8FC1F61B190F8F8116A
S31508000BD059B190F8F412D1B900F53D77032107E031
S31508000BE00021074604E0012102E000F5FC77022116
S31508000BF0C1EB811100EB810040F6E04146700230FE
S31508000C00C2F200013246FFF7EDFA0120387040F6CD
S31508000C10E040C2F20000FA21FFF7FDFA002088F84A
S31508000C20000005F10311204601F010F901281AD138
S31508000C3040F20800C2F20000017879B940F6DC42B9
S31508000C40C2F2000211784378994207D208444B1C35
S31508000C5081782046137001F05FF804E0204640F2E0
S31508000C60073101F0DBF805F10211204601F0EEF834
S31508000C70012818BFBDE8F081204640F2063101F090
S31508000C80CDF840F20800C2F200000121017040F6DA
S31508000C90DC41C2F20001002201200A70BDE8F041E1
S31508000CA000F0F6BD2DE9F04381B044F2004440F26D
S31508000CB00055C4F20004C0F2010505F500312046CE
S31508000CC001F0C4F880B92046294601F0BFF858B9A2
S31508000CD005F58031204601F0B9F828B920464FF4C9
S31508000CE0427101F0B3F8B0B12046032101F082F851
S31508000CF0204601F00DF840F6DC50C2F20000FA2159
S31508000D00FFF789FA40F6D660C2F2000000210170AA
S31508000D1001B0BDE8F08340F20435C0F2040505F1E0
S31508000D200111204601F092F8012811D140F6D66645
S31508000D30C2F200063778204600F0EAFFF82F07D8F7
S31508000D4031784A1C327040F6DC52C2F20002505426
S31508000D502046294601F07AF801286FD1204600F08E
S31508000D60D7FF40F6D666C2F200063278002A5CD073
S31508000D7040F6DC50C2F2000040F60A51FFF756FA78
S31508000D80002852D040F2FC48C2F2000898F8000049
S31508000D90D0B1474617F8FC0FD0B198F8F801D0B192
S31508000DA098F8F402E0B198F8F003F0B198F8EC047A
S31508000DB000B398F8E80510B398F8E406A8BB08F25B
S31508000DC0E4674FF007091EE04FF0000947461AE0AE
S31508000DD04FF0010917E008F5FC774FF0020912E019
S31508000DE008F53D774FF003090DE008F57C774FF0DD
S31508000DF0040908E008F2EC474FF0050903E008F596
S31508000E00BD674FF00609022000F060FD3278C9EB95
S31508000E10891008EB800040F6DC5142700230C2F2BD
S31508000E200001FFF7DFF90120387040F6DC50C2F206
S31508000E300000FA21FFF7EFF90020307005F10311E1
S31508000E40204601F003F801281AD140F27A40C2F28E
S31508000E500000017879B940F6DB52C2F20002117837
S31508000E604378994207D208444B1C81782046137070
S31508000E7000F052FF04E0204640F2073100F0CEFFB2
S31508000E8005F10211204600F0E1FF01281CBF01B060
S31508000E90BDE8F083204640F2063100F0BFFF40F27D
S31508000EA07A40C2F200000121017040F6DB50C2F21E
S31508000EB000000021017004F5EA304FF4005100F0FB
S31508000EC059FB022001B0BDE8F04300F0E1BC000088
S31508000ED0FEE700002DE9F04188B040F6014000F039
S31508000EE063FE41F21A0000F05FFE46F60004C4F203
S31508000EF0000404F5CE352846002102224FF440535B
S31508000F00002700F001FC2846022100224FF4405336
S31508000F1000F03EFB284609214FF4405200F0C2FA81
S31508000F2005AD0020294600F06DF96E4601203146D0
S31508000F304FF0010800F066F9204600F027F84FF058
S31508000F40012006904FF4C01007904FF0837005906B
S31508000F502046294600F090F84FF48030039001208F
S31508000F60C0F20F0002903046CDE900778DF8108068
S31508000F7000F020F841200021002200F061FD204603
S31508000F80102100F005F908B0BDE8F08110B546F269
S31508000F900041C4F2000140F61A04884208BF40F630
S31508000FA01904204600F020FE2046BDE8104000F057
S31508000FB00BBE0000B0B546F20061C4F200014489D8
S31508000FC00A684FF0010C42F001020A60CB690CFA7C
S31508000FD004F5AB43CB61C3896FEA050C012B10D02E
S31508000FE023BBCB6803EA0C03CB60B0F806E0438862
S31508000FF043EA0E434FEAC40E01EBC40423640346D6
S315080010000DE0CB682B43CB60B0F800E0438843EA99
S315080010100E434FEAC40E01EBC4042364831D84887F
S315080010201B8843EA044301EB0E04636483894C6816
S31508001030002B44EA050208BF04EA0C024A6002894A
S315080010404B69002A43EA050408BF03EA0C044C610D
S31508001050007C012802D1C8692843C861086820F0C5
S3150800106001000860B0BD00008A09105801F01F0190
S31508001070C84000F00100704710B5026840F2040C41
S3150800108022F0020202600268CFF6FF7C42F00102FB
S31508001090634602604268D20701BF42685FEAC272CD
S315080010A042685FEAC27206D1426823B112F00102B1
S315080010B003F10403EED04268D20704BF002010BD36
S315080010C00A784B7891F802E0CC78920763F31962B4
S315080010D00EF00F0342EA034204F007034C8942EA82
S315080010E00352631E6FF39F231A44C2610A79036889
S315080010F0012A23F0800308BF803303604A79036816
S31508001100012A23F0400308BF403303608A79036845
S31508001110012A23F0200308BF20330360CA79036835
S31508001120002A23F0100308BF103303600A7A036805
S31508001130002A23F0080308BF08330360497A0268C7
S31508001140012922F0040208BF04320260016821F076
S31508001150010101604168C90717D04168C9071CBF6A
S3150800116041685FEAC1710ED04368BCF1000F614661
S3150800117018BF0121BCF1000F08D013F001020CF1D1
S31508001180040CE7D102E0012010BD0121084610BD7C
S315080011904269114341617047C1F38412012303FA7E
S315080011A002F2090B0A50704748F2CB02C0F201025C
S315080011B091420CD08422C0F2010291420BD04CF22B
S315080011C0810291420BD1C26802F0030210E08269E3
S315080011D0C2F302120CE0026902F0030208E00A0BED
S315080011E052F800C0C1F3841301229A4002EA0C02A5
S315080011F0406901F01F01C840002A18BF01221040AB
S315080012007047000003280FD8DFE800F0020F182007
S315080012100120C0F2FF3088604FF0807048604FF4BC
S3150800122000300860704700BFFEE700204FF48032A8
S315080012300874CA6008604860886070470020C1F872
S315080012400F00C1E90000C1E9020070470020C1E9AA
S315080012500000C1E9020008617047000070B5054644
S315080012604FF4406000F0A0FC4FF4406000F09CFC96
S3150800127041F2041000F098FC41F20004C4F20104A3
S3150800128004F57046304607214FF4007200F00AF95B
S31508001290304607214FF4806200F004F930460221F7
S315080012A001224FF4007300F073F93046022101223F
S315080012B04FF4806300F06CF93046002102224FF4A7
S315080012C0007300F021FA3046002102224FF48063B1
S315080012D000F01AFA204600F023FD2046294600F0C1
S315080012E0B7FC2046002100F0C3FD2046002100F08F
S315080012F0DBFD2046002100F0C9FD25200021002243
S3150800130000F09EFB2046042100F0BAFD204640F27C
S31508001310053100F08FFD20464FF4417100F08AFD3B
S31508001320204600F061FD20460821BDE8704000F027
S31508001330B5BD000040F6D860C2F200000168002979
S3150800134008BF7047016801390160704740F6D861E7
S31508001350C2F20001086005E00868002808BF704767
S31508001360086820B1086810B108680028F4D17047E9
S3150800137081B040F20401C2F2000109684DF68362A9
S31508001380C4F21B32A1FB0212910C00220092009AB1
S315080013904843824207D200BF00BF0099013100913D
S315080013A000998142F8D301B0704700002DE9F04753
S315080013B0894601461F284FF0010098BF082A01D91F
S315080013C0BDE8F087D2B140F6DC684FEAC10A55425B
S315080013D04FF0FF34C2F20008671C0AEB0700C1B2DF
S315080013E04046FFF731F906460220FFF7AFFF09EB43
S315080013F004004670E81901303C46EDD10020BDE8EE
S31508001400F0870000C0B040F6DC684FF0FF37C2F244
S3150800141000086E467C1CE1B24046FFF715F9054602
S315080014200220FFF793FFF019FF2C27464570F1D1EC
S3150800143042F288340025C0F6000400BFE9B2725CA7
S31508001440204600F039FD0A20FFF780FF0135F5E751
S3150800145080B582B013460A46014640F6DC604FF076
S31508001460500CC2F20000CDF800C0FFF757F802B0E2
S3150800147080BD0000B0B541F200050446C4F201057E
S315080014802846072100F0C2FC0028F9D0E1B2284618
S3150800149000F042FC2846062100F0B8FC0028F9D0E6
S315080014A02046B0BD10B5036AD40723F00F0ED0F856
S315080014B024C018BF4EEA010323F0F00E940748BF74
S315080014C04EEA011323F4706E540748BF4EEA01230F
S315080014D023F4704E140748BF4EEA013323F4702EE6
S315080014E0D40648BF4EEA014323F4700E940648BF5B
S315080014F04EEA015323F0706E540648BF4EEA016364
S3150800150023F0704E140648BF4EEA01732CF00F0EF6
S31508001510D40548BF4EEA010C2CF0F00E940548BFDE
S315080015204EEA011C2CF4706E540548BF4EEA012C95
S315080015302CF4704E140548BF4EEA013C2CF4702E6C
S31508001540D40448BF4EEA014C2CF4700E940448BFEC
S315080015504EEA015C2CF0706E540448BF4EEA016CEA
S315080015602CF07044120448BF44EA017C0362C0F8B8
S3150800157024C010BD816170471823002A08BF28239C
S31508001580195070470069084018BF012070470000CD
S315080015902DE9F0430568D0F80C804FF0000C4FF0A9
S315080015A0030E002606E000BF0136102E0CF1100CC3
S315080015B000F0A58023FA06F7FF070BD00EFA0CF702
S315080015C0BD4301FA0CF4254328EA070402FA0CF78E
S315080015D044EA0708013623FA06F4E4070FD00CF1AB
S315080015E002040EFA04F725EA070901FA04F528EABF
S315080015F0070702FA04F445EA090547EA040801362A
S3150800160023FA06F4E4070FD00CF104040EFA04F7E3
S3150800161025EA070901FA04F528EA070702FA04F495
S3150800162045EA090547EA0408013623FA06F4E407F9
S315080016300FD00CF106040EFA04F725EA070901FA99
S3150800164004F528EA070702FA04F445EA090547EA11
S315080016500408013623FA06F4E4070FD00CF108044F
S315080016600EFA04F725EA070901FA04F528EA070736
S3150800167002FA04F445EA090547EA0408013623FA9A
S3150800168006F4E4070FD00CF10A040EFA04F725EA6B
S31508001690070901FA04F528EA070702FA04F445EAF5
S315080016A0090547EA0408013623FA06F4E4070FD0C9
S315080016B00CF10C040EFA04F725EA070901FA04F5F9
S315080016C028EA070702FA04F445EA090547EA04087E
S315080016D0013623FA06F4E4073FF466AF0CF10E046C
S315080016E00EFA04F725EA070901FA04F528EA0707B6
S315080016F002FA04F445EA090547EA040854E70560CE
S31508001700C0F80C80BDE8F08370B50129416814BFA4
S31508001710994319434160D0F808E000214FF0030CC3
S31508001720002404E00134102C01F1100172D023FAD0
S3150800173004F5ED0707D00CFA01F52EEA050E02FAB4
S3150800174001F54EEA050E013423FA04F5ED0708D033
S315080017508D1C0CFA05F62EEA060602FA05F546EA87
S31508001760050E013423FA04F5ED0708D00D1D0CFA11
S3150800177005F62EEA060602FA05F546EA050E0134CE
S3150800178023FA04F5ED0708D08D1D0CFA05F62EEAA6
S31508001790060602FA05F546EA050E013423FA04F5AB
S315080017A0ED0709D001F108050CFA05F62EEA06063A
S315080017B002FA05F546EA050E013423FA04F5ED07A3
S315080017C009D001F10A050CFA05F62EEA060602FA10
S315080017D005F546EA050E013423FA04F5ED0709D0A6
S315080017E001F10C050CFA05F62EEA060602FA05F5CD
S315080017F046EA050E013423FA04F5ED0792D001F105
S315080018000E050CFA05F62EEA060602FA05F546EA6C
S31508001810050E87E7C0F808E070BD0000B0B540F6D1
S31508001820024000F0C1F940F6024000F0BDF94FF45D
S31508001830406000F0B9F940F60004C4F202042046FC
S31508001840012100222023FFF7A3FE204601210022C2
S315080018501023FFF79DFEA4F5006528460121002206
S315080018608023FFF795FE2046002102222023FFF75A
S315080018704BFF2046002102221023FFF745FF28468A
S31508001880002102228023BDE8B040FFF73DBF0000DB
S3150800189003280BD0022812D0012818BF704740F63B
S315080018A00000C4F202002021FFF764BE40F60000E3
S315080018B0C4F20200A0F500608021FFF75BBE40F687
S315080018C00000C4F202001021FFF754BE10B5032829
S315080018D015D0022826D0012818BF10BD40F60004EE
S315080018E0C4F2020420462021FFF74CFEC0F1010095
S315080018F0C2B220462021BDE81040FFF73DBE40F6A3
S315080019000000C4F20200A0F5006420468021FFF71B
S3150800191039FEC0F10100C2B220468021BDE8104060
S31508001920FFF72ABE40F60004C4F20204204610213E
S31508001930FFF728FEC0F10100C2B220461021BDE81B
S315080019401040FFF719BE000082B000F05DF9FFF7FE
S3150800195065FF4FF4E130FFF781FCFFF7BBFA40F271
S315080019600040C4F2020040218022FFF771FD4FF4C7
S31508001970E130FEF753FDFEF72FFD42F29A366C462C
S315080019802AA5C0F6000600BF0A20FFF7DFFC0120E3
S3150800199021460822FFF70AFD284600F0DFFC9DF8DD
S315080019A00010304600F088FA0A20FFF7CFFC9DF8B1
S315080019B00110304600F080FA0A20FFF7C7FC9DF8B0
S315080019C00210304600F078FA0A20FFF7BFFC9DF8AF
S315080019D00310304600F070FA0A20FFF7B7FC9DF8AE
S315080019E00410304600F068FA0A20FFF7AFFC9DF8AD
S315080019F00510304600F060FA0A20FFF7A7FC9DF8AC
S31508001A000610304600F058FA0A20FFF79FFC9DF8AA
S31508001A100710304600F050FA0A20FFF797FCFFF748
S31508001A20F1FC4FF47A70FFF791FCADE752656164FB
S31508001A30205061676520446174613A200D000000FA
S31508001A404EF60C5CCEF2000CDCF8003003F4E063D2
S31508001A50B3F5E06F01D104232AE0DCF8003003F483
S31508001A60E063B3F5C06F01D1032321E0DCF8003051
S31508001A7003F4E063B3F5A06F01D1022318E0DCF8A4
S31508001A80003003F4E063B3F5806F01D101230FE062
S31508001A90DCF8003003F4E063B3F5407F01D100239E
S31508001AA006E040F20053C0F2FA53CCF800300223A5
S31508001AB001FA03FCC3F104030F21D94011404EF289
S31508001AC0001241EA0C01CEF20002090140EA0203C3
S31508001AD083F8001300F01F01012303FA01F11C2308
S31508001AE003EAD0008150704710B543F60402C4F2E9
S31508001AF0020253680146C3F3810342F20040022BF7
S31508001B00C0F2F40006D0012B1FD141F20020C0F22A
S31508001B107A001AE0D2F800C013680CF03F0CC3F341
S31508001B20881E13681468C3F30143640241F2002453
S31508001B30C0F27A0458BF0446B4FBFCF4022000EB5A
S31508001B40430004FB0EF3B3FBF0F05368D2F804C06D
S31508001B50526803290FD8C3F303130FA4E35C42F2B8
S31508001B60803E20FA03F3C0F6000EDFE801F0130208
S31508001B70060D184610BD002010BDCCF382201EF8B5
S31508001B80000023FA00F010BDC2F342301EF8000030
S31508001B9023FA00F010BD00BF00000000000000009E
S31508001BA0010203040607080943F6000300F01F01B3
S31508001BB08009C4F202034FF0010CC2580CFA01F175
S31508001BC01143C1507047000043F6000300F01F019F
S31508001BD08009C4F202034FF0010CC2580CFA01F155
S31508001BE022EA0101C150704743F6000300F01F01C5
S31508001BF08009C4F202034FF0010CC2580CFA01F135
S31508001C001143C1507047000040F20400C2F20000C0
S31508001C10006844F6D351C1F26201A0FB01014FF0FE
S31508001C20FF3000EB9110B0F1807F00D3FEE74EF253
S31508001C301001CEF2000148604EF62350CEF20000A5
S31508001C40F0220270002207238A600B600270704738
S31508001C50B0B5044647F2FF70C4F200000D46844250
S31508001C604FF000000EDC44F6FF31C4F200018C424E
S31508001C7017DC44F20041C4F200018C421DD044F640
S31508001C80000116E040F6FF71C4F201018C422FDC18
S31508001C9047F60001C4F200018C420ED047F6004117
S31508001CA007E044F60041C4F200018C4205D045F233
S31508001CB00001C4F200018C4203D102210846FFF755
S31508001CC013FFE168090406D400EB5500B0FBF5F0F4
S31508001CD080B2A060B0BD400000EB5500B0FBF5F047
S31508001CE04FF6F0710140C0F342000844A060B0BD51
S31508001CF041F20001C4F201018C424FF00301DDD02C
S31508001D0041F20042C4F201029442D7D0D9E700005A
S31508001D1040686FF35F2070476FF35F21416070473B
S31508001D2010B547F2FF71C4F20001884214DC44F68C
S31508001D30FF31C4F20001884224DC44F20041C4F2B7
S31508001D40000188423CD044F60001C4F200018842F2
S31508001D5049D140F612043EE040F6FF71C4F2010193
S31508001D6088421EDC47F60001C4F2000188422AD0E8
S31508001D7047F60041C4F20001884218BF10BD40F67C
S31508001D801F0428E044F60041C4F2000188421DD031
S31508001D9045F20001C4F20001884224D140F6140439
S31508001DA019E041F20001C4F20101884211D041F262
S31508001DB00041C4F20101884215D140F605140AE033
S31508001DC040F6110407E040F61E0404E040F613044A
S31508001DD001E040F604142046FFF706FF2046BDE85A
S31508001DE01040FFF7F1BE10BDC16841F40051C16053
S31508001DF07047000001F01F0289094FF0010C0B58CB
S31508001E000CFA02F223EA02020A5070478A091058AD
S31508001E1001F01F01C84000F00100704701F01F02E1
S31508001E2089094FF0010C0B580CFA02F223EA020258
S31508001E300A50704701F01F0289094FF0010C0B5830
S31508001E400CFA02F21A430A5070470000C1F38912CD
S31508001E5052F800C08A0D105801F01F03C1F304415F
S31508001E60C8402CFA03F1084000F001007047000052
S31508001E70C26822F4C062C260C2681143C16070477A
S31508001E80C26822F004021143C1607047026922F455
S31508001E90405202610269114301617047C26822F02B
S31508001EA008021143C1607047C26822F48052C260BA
S31508001EB0C2681143C16070470FB4054B10B503A93A
S31508001EC0044A029800F018F810BC5DF814FB0000EC
S31508001ED0751400080000002002E008C8121F08C197
S31508001EE0002AFAD170477047002001E001C1121F8D
S31508001EF0002AFBD1704700002DE9FF4F8DB00F4631
S31508001F000546002606E025280BD0DDE90F12904786
S31508001F106D1C761C28780028F5D111B03046BDE82E
S31508001F20F08F0024A246A1460122EC4900E00443B2
S31508001F3015F8013F203B02FA03F00842F7D128784A
S31508001F402A2810D06FF02F022878A0F1300109292D
S31508001F5014D80AEB8A0102EB410144F0020400EBB3
S31508001F60010A6D1CF0E701CF5FEA000A03D544F4C5
S31508001F700054CAF1000A44F002046D1C28782E2881
S31508001F8017D115F8010F44F004042A280ED06FF073
S31508001F902F022878A0F1300109290AD809EB89010E
S31508001FA002EB410100EB01096D1CF2E757F8049BAF
S31508001FB06D1C28786C280FD006DC4C2817D06828AA
S31508001FC00DD06A2814D104E0742810D07A280FD1CD
S31508001FD00DE044F400140AE044F4801401E044F4EB
S31508001FE040146978814202D104F580146D1C6D1C79
S31508001FF02A786E2A1FD00CDC632A31D004DC002A2A
S315080020008BD0582A11D1A3E0642A68D0692A0CD14A
S3150800201065E0732A2ED004DC6F2A73D0702A04D1A7
S315080020209BE0752A6FD0782A6ED01046DDE90F122C
S315080020309047761C50E1C4F30250022806D00328C4
S3150800204009D0042801CF09D0066045E101CFF11770
S31508002050C0E9006140E101CF06803DE106703BE141
S3150800206017F8040B8DF8000000208DF80100EB46E8
S31508002070012003E057F804BB4FF0FF3061074FF02B
S31508002080000102D40DE008F10101884649450FDA3E
S315080020908045F8DB1BF808100029F4D108E008F1A0
S315080020A0010188468142FADB1BF808100029F6D19F
S315080020B0DDE90F23AAEB08008146214600F036F930
S315080020C0304400EB080604E0DDE90F121BF8010BAB
S315080020D09047B8F10108F7D221464846F7E00A21A9
S315080020E0C4F302534FF0000B0891022B04D001CF22
S315080020F0C117032B09D00AE0FF1D27F00707F7E8E9
S31508002100020108E032E01FE020E000B2C117042B0C
S3150800211001D140B2C117031E71F1000307DA4FF06F
S31508002120000CD0EB0C006CEB01012D2302E023051B
S3150800213004D52B238DF82430012303E0E30701D0CF
S315080021402023F7E7984658E00A2110E010210EE010
S3150800215010204FF0000B08900CE010214FF0000BF8
S3150800216044F004044FF00809089103E008214FF0F1
S31508002170000B0891C4F30253022B04D001CF0021AF
S31508002180032B06D006E0FF1D27F00707F7E8020134
S3150800219003E080B2042B00D1C0B24FF00008230739
S315080021A02BD5702A07D0DDF820C08CF0100C5CEA1D
S315080021B00B0C05D00EE040238DF82430012308E0EF
S315080021C050EA010306D030238DF824308DF82520F7
S315080021D002239846DDF820C08CF0080C5CEA0B0C4C
S315080021E00BD150EA010301D1630706D530238DF8D8
S315080021F024304FF00108A9F10109582A04D038A261
S315080022000B9208AA0A920BE03AA2F9E75B46089AEB
S31508002210FEF716F80B9B9B5C0A9A521E0A921370DD
S3150800222050EA0102F2D10A98ADEB000000F1200B4A
S31508002230600702D524F4803401E04FF00109D9453E
S3150800224002DDA9EB0B0000E0002000EB0B01414486
S315080022500890AAEB010AE00306D4DDE90F2321461C
S31508002260504600F063F806444FF0000908E009A953
S3150800227011F80900DDE90F12904709F10109761CEA
S31508002280C145F4DBE0030CD5DDE90F2321465046B2
S3150800229000F04CF8064404E0DDE90F1230209047C0
S315080022A0761C0899481E08900029F5DC08E00A986B
S315080022B00A990078491C0A91DDE90F129047761CA5
S315080022C0BBF10001ABF1010BF1DC21465046DDE91B
S315080022D00F2300F019F806446D1C1BE609280100B7
S315080022E0303132333435363738396162636465667E
S315080022F00000000030313233343536373839414240
S3150800230043444546000000002DE9F04104460025F7
S315080023101E461746880404D405E039462020B047EF
S315080023206D1C641EF9D52846BDE8F0812DE9F041FB
S31508002330044600251E469046C80301D5302700E00E
S315080023402027880404D505E041463846B0476D1C69
S31508002350641EF9D52846BDE8F081000010B504468C
S3150800236001E0FFF787F814F8010B04490028F8D1B3
S31508002370BDE810400A20FFF77DB8000000000020E5
S315080023800000000001020304446174615B25645D7A
S315080023903A203078253032580A00307825303258BD
S315080023A0200D0A00C82300080000002008000000CD
S315080023B0D81E0008D023000808000020E8120000F4
S315080023C0E81E00080000000000000000001C4E0E79
S705080001AD44
