S31508000000F0120020C101000829090008BD030008F4
S31508000010F90300085D0300087D11000800000000D0
S315080000200000000000000000000000002D0A000883
S31508000030B9030008000000002D0900085D0B000840
S31508000040DB010008DB010008DB010008DB01000812
S31508000050DB010008DB010008DB010008DB01000802
S31508000060DB010008DB010008DB010008DB010008F2
S31508000070DB010008DB010008DB010008DB010008E2
S31508000080DB010008DB010008DB010008DB010008D2
S31508000090DB010008DB010008DB010008DB010008C2
S315080000A0DB010008DB010008DB010008DB010008B2
S315080000B0DB010008DB010008DB010008DB010008A2
S315080000C0DB010008DB010008DB010008DB01000892
S315080000D0DB010008890D0008510F0008DB01000844
S315080000E0DB010008DB010008DB010008DB01000872
S315080000F0DB010008DB010008DB010008DB01000862
S31508000100DB010008DB010008DB010008DB01000851
S31508000110DB010008DB010008DB010008DB01000841
S31508000120DB010008DB010008DB010008DB01000831
S31508000130DB010008DB010008DB010008DB01000821
S31508000140DB01000861030008DB010008DB01000889
S31508000150DB010008DB010008DB010008DB01000801
S31508000160DB010008DB010008DB010008DB010008F1
S31508000170DB010008DB010008DB01000800000000C5
S31508000180DB010008DB010008DB010008DB010008D1
S31508000190DB010008DB010008DB01000800000000A5
S315080001A0DB010008DB010008DB010008DFF80CD0E2
S315080001B000F0A2F800480047551B0008F01200207E
S315080001C00648804706480047FEE7FEE7FEE7FEE7E3
S315080001D0FEE7FEE7FEE7FEE7FEE7FEE7610B00083F
S315080001E0AD01000840EA01039B0703D009E008C9EE
S315080001F0121F08C0042AFAD203E011F8013B00F8DE
S31508000200013B521EF9D27047D2B201E000F8012B29
S31508000210491EFBD270470022F6E710B513460A4678
S3150800022004461946FFF7F0FF204610BD421C10F899
S31508000230011B0029FBD1801A704710B5002200E087
S31508000240521C835C8C5CA34201D1002BF8D1D8B236
S31508000250E1B2401A10BDCBB203E00178994203D04F
S31508000260401C521EF9D20020704730B504460020C3
S31508000270034600E05B1C934203D2E05CCD5C401B66
S31508000280F8D030BD034611F8012B00F8012B002ADF
S31508000290F9D1184670472DE9F05F054600209246C9
S315080002A09B4688460646814640241BE0284641462A
S315080002B04746224600F041F853465A46C01A91412D
S315080002C010D311461846224600F028F82D1A67EB77
S315080002D001084F4622460120002100F01FF817EBBF
S315080002E000094E41201EA4F10104DFDC48463146D0
S315080002F02A464346BDE8F09F064C074D06E0E068EF
S3150800030040F0010394E8070098471034AC42F6D34E
S31508000310FFF750FF7030000890300008202A04DBF1
S31508000320203A00FA02F1002070479140C2F12003FA
S3150800033020FA03F3194390407047202A04DB203A39
S3150800034021FA02F00021704721FA02F3D040C2F1E7
S31508000350200291400843194670470000FEE7000056
S3150800036070B546F600048425C4F20004C0F20105FF
S315080003702046294601F06EF8012818BF70BD05F120
S3150800038082062046314601F065F8012803D1204649
S31508000390314601F057F820464FF4C06100F0BAFF25
S315080003A02046294601F04EF840F6E860C2F2000001
S315080003B00121017070BD000070470000FEE70000D3
S315080003C010B54FF4406001F04DFD40F6024001F0D3
S315080003D049FD0024C4F2020420460021022201231A
S315080003E001F0DCF904F50060002101224FF4005306
S315080003F0BDE8104001F0D2B9FEE70000F0B5ADF552
S31508000400057D42F61774C0F60004204602F0B2FCD9
S315080004100FF2904002F0AEFC204602F0ABFC0FF261
S31508000420A04002F0A7FC02F0A5F80FF2B44002F0D3
S31508000430A1FC0FF2C44002F09DFC02F009F8044644
S315080004400FF2CC40214602F043FA47F21800C0F2F8
S31508000450EF00844240F0A88142F6EF60C0F6000043
S3150800046002F088FC42F6D560C0F6000002F082FC75
S3150800047045F25560C5F65700459045F65920C5F62C
S315080004805B40469045F65D60C6F25F00479046F2CF
S315080004906120C6F26340489046F26560C6F667007A
S315080004A0499046F66920C6F66B404A9046F66D6056
S315080004B0C7F26F004B9047F27120C0F273004C9060
S315080004C043F25300C0F6000002F002FA43F2650454
S315080004D0C0F600042046552102F0FAF920465621B6
S315080004E002F0F6F92046572102F0F2F92046582183
S315080004F002F0EEF92046592102F0EAF920465A217F
S3150800050002F0E6F920465B2102F0E2F920465C217A
S3150800051002F0DEF920465D2102F0DAF920465E2176
S3150800052002F0D6F920465F2102F0D2F92046602172
S3150800053002F0CEF92046612102F0CAF9204662216E
S3150800054002F0C6F92046632102F0C2F9204664216A
S3150800055002F0BEF92046652102F0BAF92046662166
S3150800056002F0B6F92046672102F0B2F92046682162
S3150800057002F0AEF92046692102F0AAF920466A215E
S3150800058002F0A6F920466B2102F0A2F920466C215A
S3150800059002F09EF920466D2102F09AF920466E2156
S315080005A002F096F920466F2102F092F92046702152
S315080005B002F08EF92046712102F08AF9204672214E
S315080005C002F086F92046732102F082F943F23F05CC
S315080005D0C0F60005284602F0CDFB42F6A050C0F64C
S315080005E00000002102F074F945AE304600212022B1
S315080005F002F080F842F67070C0F6000002F0BAFB0E
S3150800060042F6CF50C0F60000002102F061F905AFAE
S3150800061038464FF48071FFF7FEFD38460021202248
S3150800062001F05EFE43F24100C0F6000002F050F908
S315080006309DF81410204602F04BF99DF81510204637
S3150800064002F046F99DF81610204602F041F99DF889
S315080006501710204602F03CF99DF81810204602F0C3
S3150800066037F99DF81910204602F032F99DF81A104C
S31508000670204602F02DF99DF81B10204602F028F9B5
S315080006809DF81C10204602F023F99DF81D102046FF
S3150800069002F01EF99DF81E10204602F019F99DF881
S315080006A01F10204602F014F99DF82010204602F08B
S315080006B00FF99DF82110204602F00AF99DF822103C
S315080006C0204602F005F99DF82310204602F000F9AD
S315080006D09DF82410204602F0FBF89DF825102046C8
S315080006E002F0F6F89DF82610204602F0F1F89DF87B
S315080006F02710204602F0ECF89DF82810204602F054
S31508000700E7F89DF82910204602F0E2F89DF82A102D
S31508000710204602F0DDF89DF82B10204602F0D8F8A6
S315080007209DF82C10204602F0D3F89DF82D1020468F
S3150800073002F0CEF89DF82E10204602F0C9F89DF872
S315080007402F10204602F0C4F89DF83010204602F01B
S31508000750BFF89DF83110204602F0BAF89DF832101D
S31508000760204602F0B5F8284602F004FB42F6C160BE
S31508000770C0F6000002F0FEFA304639462022FFF79E
S3150800078074FDB0B142F6E970C0F6000002F0F2FA64
S3150800079042F65E60C0F6000045A902F099F842F6F6
S315080007A01B60C0F600000EE042F63E70C0F6000080
S315080007B073E043F21500C0F6000002F0DBFA42F6D9
S315080007C0FF50C0F6000005AC214602F081F842F65B
S315080007D0A160C0F6000002F0CDFA42F2381004908B
S315080007E045F23510C3F23120039042F26F00C3F28E
S315080007F05720029046F24850C6F66C4045AD01AE09
S31508000800019028463146FFF73DFD3046FFF70EFDBD
S31508000810471C42F67760C0F600004FF48051324616
S3150800082002F056F8BEB228464FF48051324601F01F
S3150800083061FF20464FF48071FFF7EDFC20464FF428
S315080008408051324601F04CFD42F63460C0F6000095
S315080008504FF48051224602F03BF828462146FFF71E
S31508000860ECFC42F6C67142F68772C0F60001C0F685
S315080008700002002808BF1146084602F07BFA42F635
S315080008801774C0F60004204602F074FA42F6AA70FD
S31508000890C0F6000002F06EFA204602F06BFA0DF57B
S315080008A0057DF0BD5732355131323820E6B58BE833
S315080008B0AF95E7A88BE5BA8FE5BC80E5A78B0D0059
S315080008C0312E20E5889DE5A78BE58C962057323595
S315080008D051313238205350492E2E2E0D000000007B
S315080008E020202053504920E5889DE5A78BE58C9666
S315080008F0E5AE8CE688900D00322E20E8AFBBE58F7A
S315080009009620466C6173682049442E2E2E0D0000F1
S31508000910202020466C6173682049443A20307825A7
S315080009203036580D0A000000704700007047000076
S3150800093070B505464FF4406001F094FA4FF44060F4
S3150800094001F090FA41F2110001F08CFA44F20044E9
S31508000950C4F2000404F5DE3630460721042200F00E
S31508000960A5FE30460721082200F0A0FE30460221E7
S315080009700122042300F012FF304602210122082337
S3150800098000F00CFF304600210222042300F0C2FFCB
S31508000990304600210222082300F0BCFF204601F061
S315080009A049FB2046294601F0DDFA2046002101F0E0
S315080009B0E9FB2046002101F001FC2046002101F058
S315080009C0EFFB26200021012201F098F92046082194
S315080009D001F0EEFB2046042101F0DCFB204640F244
S315080009E0053101F0B1FB20464FF4417101F0ACFB33
S315080009F0204601F083FB40F6064001F033FA04F581
S31508000A00EA342046012100224FF4005300F0C6FEC6
S31508000A102046002102224FF4005300F07BFF2046B7
S31508000A204FF40051BDE8704000F0AABE70470000C0
S31508000A3010B504460298216001F13E4101F1FF71AB
S31508000A404FEAB1210829A280E380208123D800EB50
S31508000A5081024FF44060DFE801F01C05080B0E1117
S31508000A6014171A0040F6014013E040F6024010E061
S31508000A7040F603400DE040F604400AE040F6054023
S31508000A8007E040F6064004E040F6074001E040F67D
S31508000A90084001F0E7F92068A3880121012200F047
S31508000AA07DFE2068E3880121012200F077FE206898
S31508000AB0A3880121022200F02DFF2068E388012186
S31508000AC0022200F027FF2068A188012200F05AFEC2
S31508000AD00A2000F0A3FD2068E188012200F052FEFA
S31508000AE00A2000F09BFD2068E188012200F04AFEFA
S31508000AF00A2000F093FD2068A188012200F042FE3A
S31508000B000A2000F08BFD2068E188002200F03AFEFA
S31508000B100A2000F083FD2068A188002200F032FE3A
S31508000B200A2000F07BFD2068E188002200F02AFEFA
S31508000B300A2000F073FD2068A188012200F022FE39
S31508000B400A2000F06BFD2068E188012200F01AFEF9
S31508000B500A20BDE8104000F061BD000000F040BD6D
S31508000B6081B04EF68851CEF200010A6843F60800B5
S31508000B7042F47002C4F202000A6050F8081C4FF0F2
S31508000B80000C41F0010140F8081C01684CF24F3294
S31508000B9041F080010160CDF800C0009B934219D84E
S31508000BA04CF250330099013100910099994211D2C3
S31508000BB0009901310091009991420BD800990131B1
S31508000BC000910099914205D8009901310091009948
S31508000BD09942E7D3016841F090010160CDF800C061
S31508000BE0009991421CD84CF250314CF24F3200BF5A
S31508000BF0009B01330093009B8B4211D2009B01336B
S31508000C000093009B93420BD8009B01330093009BF3
S31508000C10934205D8009B01330093009B8B42E7D390
S31508000C2001684FF6FF7221F00301016050F8081CB5
S31508000C30CFF6F662114040F8081C50F8081C21F45B
S31508000C40802140F8081C00210160026843F2100266
S31508000C50C2F2004240F8042C416050F8081C41F4E6
S31508000C60803140F8081C4FF6FC7100BF50F8082C7C
S31508000C7092035CBF50F8082C5FEA82320AD450F817
S31508000C80082C39B112F4003204D150F8082C043972
S31508000C909203EBD550F8081C890300D4FEE7826B53
S31508000CA047F2040142F08052C4F20001826351F80F
S31508000CB0042C42F4404241F8042C0268026002689F
S31508000CC042F400420260026842F4A052026047F60B
S31508000CD00802C0F6402240F8042C50F8082C42F0CE
S31508000CE0807240F8082C00BF50F8082C92015FBFAC
S31508000CF050F8082C5FEA821250F8082C5FEA821234
S31508000D0003D450F8082C9201EED551F8042C42F47D
S31508000D10803241F8042C00BF0A68D2035FBF0A6814
S31508000D205FEAC2320A685FEAC23202D40A68D203AC
S31508000D30F2D551F8042C42F4003241F8042C00BFD5
S31508000D400A6892035FBF0A685FEA82320A685FEA46
S31508000D50823202D40A689203F2D5016821F00301AF
S31508000D600160016841F0020101600168090709D4C0
S31508000D70016809075CBF01685FEA017102D401686E
S31508000D800907F2D501B070472DE9F04141F2000498
S31508000D9040F20055C4F20104C0F2010505F5003120
S31508000DA0204601F0DDF980B92046294601F0D8F938
S31508000DB058B905F58031204601F0D2F928B9204600
S31508000DC04FF4427101F0CCF9A8B12046032101F095
S31508000DD09BF9204601F026F940F6E040C2F20000F1
S31508000DE0FA21FFF718FA40F6DA50C2F2000000219D
S31508000DF00170BDE8F08140F20435C0F2040505F142
S31508000E000111204601F0ACF9012811D140F6DA5655
S31508000E10C2F200063778204601F004F9F82F07D801
S31508000E2031784A1C327040F6E042C2F20002505451
S31508000E302046294601F094F9012848D1204601F0B8
S31508000E40F1F840F6DA58C2F2000898F80060A6B33E
S31508000E5040F6E040C2F2000040F60A513246FFF77B
S31508000E60FAF950B340F28A00C2F20000017869B17B
S31508000E70074617F8FC1F61B190F8F81159B190F8B8
S31508000E80F412D1B900F53D77032107E000210746A2
S31508000E9004E0012102E000F5FC770221C1EB811193
S31508000EA000EB810040F6E04146700230C2F20001D4
S31508000EB03246FFF797F90120387040F6E040C2F253
S31508000EC00000FA21FFF7A7F9002088F8000005F1CD
S31508000ED00311204601F044F901281AD140F208000E
S31508000EE0C2F20000017879B940F6DC42C2F200028B
S31508000EF011784378994207D208444B1C81782046DA
S31508000F00137001F093F804E0204640F2073101F02F
S31508000F100FF905F10211204601F022F9012818BF40
S31508000F20BDE8F081204640F2063101F001F940F2B1
S31508000F300800C2F200000121017040F6DC41C2F24D
S31508000F400001002201200A70BDE8F04100F0A6BDAC
S31508000F502DE9F04381B044F2004440F20055C4F252
S31508000F600004C0F2010505F50031204601F0F8F845
S31508000F7080B92046294601F0F3F858B905F58031BD
S31508000F80204601F0EDF828B920464FF4427101F0E9
S31508000F90E7F8B0B12046032101F0B6F8204601F083
S31508000FA041F840F6DC50C2F20000FA21FFF733F9A7
S31508000FB040F6D660C2F200000021017001B0BDE81B
S31508000FC0F08340F20435C0F2040505F1011120460C
S31508000FD001F0C6F8012811D140F6D666C2F200061D
S31508000FE03778204601F01EF8F82F07D831784A1CC2
S31508000FF0327040F6DC52C2F20002505420462946AE
S3150800100001F0AEF801286FD1204601F00BF840F642
S31508001010D666C2F200063278002A5CD040F6DC506A
S31508001020C2F2000040F60A51FFF715F9002852D01F
S3150800103040F2FC48C2F2000898F80000D0B14746D2
S3150800104017F8FC0FD0B198F8F801D0B198F8F40267
S31508001050E0B198F8F003F0B198F8EC0400B398F80A
S31508001060E80510B398F8E406A8BB08F2E4674FF061
S3150800107007091EE04FF0000947461AE04FF001093C
S3150800108017E008F5FC774FF0020912E008F53D77FE
S315080010904FF003090DE008F57C774FF0040908E0E6
S315080010A008F2EC474FF0050903E008F5BD674FF075
S315080010B00609022000F010FD3278C9EB891008EB0A
S315080010C0800040F6DC5142700230C2F20001FFF7A0
S315080010D089F80120387040F6DC50C2F20000FA2187
S315080010E0FFF799F80020307005F10311204601F04A
S315080010F037F801281AD140F27A40C2F20000017886
S3150800110079B940F6DB52C2F2000211784378994267
S3150800111007D208444B1C81782046137000F086FFDE
S3150800112004E0204640F2073101F002F805F1021109
S31508001130204601F015F801281CBF01B0BDE8F08370
S31508001140204640F2063100F0F3FF40F27A40C2F240
S3150800115000000121017040F6DB50C2F200000021B8
S31508001160017004F5EA304FF4005100F009FB022043
S3150800117001B0BDE8F04300F091BC0000FEE70000B6
S315080011802DE9F04188B040F6014000F06BFE41F2CF
S315080011901A0000F067FE46F60004C4F2000404F5DF
S315080011A0CE352846002102224FF44053002700F08E
S315080011B0B1FB2846022100224FF4405300F0EEFA14
S315080011C0284609214FF4405200F070FA05AD002078
S315080011D0294600F06DF96E46012031464FF00108A8
S315080011E000F066F9204600F027F84FF00120069037
S315080011F04FF4C01007904FF083700590204629469B
S3150800120000F090F84FF4803003900120C0F20F00F0
S3150800121002903046CDE900778DF8108000F020F86E
S3150800122041200021002200F069FD2046102100F02F
S3150800123005F908B0BDE8F08110B546F20041C4F2E0
S31508001240000140F61A04884208BF40F619042046F1
S3150800125000F028FE2046BDE8104000F013BE00004E
S31508001260B0B546F20061C4F2000144890A684FF03D
S31508001270010C42F001020A60CB690CFA04F5AB4393
S31508001280CB61C3896FEA050C012B10D023BBCB6851
S3150800129003EA0C03CB60B0F806E0438843EA0E4342
S315080012A04FEAC40E01EBC404236403460DE0CB6881
S315080012B02B43CB60B0F800E0438843EA0E434FEA7D
S315080012C0C40E01EBC4042364831D84881B8843EA87
S315080012D0044301EB0E04636483894C68002B44EADB
S315080012E0050208BF04EA0C024A6002894B69002A13
S315080012F043EA050408BF03EA0C044C61007C012894
S3150800130002D1C8692843C861086820F0010008604E
S31508001310B0BD00008A09105801F01F01C84000F04E
S315080013200100704710B5026840F2040C22F0020270
S3150800133002600268CFF6FF7C42F001026346026053
S315080013404268D20701BF42685FEAC27242685FEA32
S31508001350C27206D1426823B112F0010203F10403F6
S31508001360EED04268D20704BF002010BD0A784B7839
S3150800137091F802E0CC78920763F319620EF00F0336
S3150800138042EA034204F007034C8942EA0352631E09
S315080013906FF39F231A44C2610A790368012A23F06E
S315080013A0800308BF803303604A790368012A23F063
S315080013B0400308BF403303608A790368012A23F093
S315080013C0200308BF20330360CA790368002A23F084
S315080013D0100308BF103303600A7A0368002A23F053
S315080013E0080308BF08330360497A0268012922F016
S315080013F0040208BF04320260016821F0010101609D
S315080014004168C90717D04168C9071CBF41685FEA28
S31508001410C1710ED04368BCF1000F614618BF0121A7
S31508001420BCF1000F08D013F001020CF1040CE7D14F
S3150800143002E0012010BD0121084610BD4269114392
S3150800144041617047C1F38412012303FA02F2090BC2
S315080014500A50704748F2CB02C0F2010291420CD002
S315080014608422C0F2010291420BD04CF281029142D1
S315080014700BD1C26802F0030210E08269C2F30212BD
S315080014800CE0026902F0030208E00A0B52F800C0F9
S31508001490C1F3841301229A4002EA0C02406901F062
S315080014A01F01C840002A18BF0122104070470000DB
S315080014B003280FD8DFE800F0020F18200120C0F239
S315080014C0FF3088604FF0807048604FF40030086045
S315080014D0704700BFFEE700204FF480320874CA60E8
S315080014E008604860886070470020C1F80F00C1E9AD
S315080014F00000C1E9020070470020C1E90000C1E907
S31508001500020008617047000070B505464FF4406058
S3150800151000F0A8FC4FF4406000F0A4FC41F204106F
S3150800152000F0A0FC41F20004C4F2010404F5704680
S31508001530304607214FF4007200F0B8F8304607210C
S315080015404FF4806200F0B2F83046022101224FF4CF
S31508001550007300F023F93046022101224FF480631C
S3150800156000F01CF93046002102224FF4007300F007
S31508001570D1F93046002102224FF4806300F0CAF9FF
S31508001580204600F057FD2046294600F0EBFC204691
S31508001590002100F0F7FD2046002100F00FFE20464E
S315080015A0002100F0FDFD25200021002200F0A6FB09
S315080015B02046042100F0EEFD204640F2053100F0F9
S315080015C0C3FD20464FF4417100F0BEFD204600F0F1
S315080015D095FD20460821BDE8704000F0E9BD0000F1
S315080015E040F6D860C2F200000168002908BF7047BB
S315080015F0016801390160704740F6D861C2F20001FE
S31508001600086005E00868002808BF7047086820B128
S31508001610086810B108680028F4D1704781B040F214
S315080016200401C2F2000109684DF68362C4F21B3256
S31508001630A1FB0212910C00220092009A48438242B2
S3150800164007D200BF00BF009901310091009981427D
S31508001650F8D301B07047000080B582B013460A4639
S31508001660014640F6DC604FF0500CC2F20000CDF89F
S3150800167000C0FFF7DDF902B080BD0000B0B541F249
S3150800168000050446C4F201052846072100F048FD76
S315080016900028F9D0E1B2284600F0C8FC2846062101
S315080016A000F03EFD0028F9D02046B0BD10B5036A0B
S315080016B0D40723F00F0ED0F824C018BF4EEA010352
S315080016C023F0F00E940748BF4EEA011323F4706E18
S315080016D0540748BF4EEA012323F4704E140748BF47
S315080016E04EEA013323F4702ED40648BF4EEA01436E
S315080016F023F4700E940648BF4EEA015323F0706E29
S31508001700540648BF4EEA016323F0704E140648BFDC
S315080017104EEA01732CF00F0ED40548BF4EEA010CB1
S315080017202CF0F00E940548BF4EEA011C2CF4706E9E
S31508001730540548BF4EEA012C2CF4704E140548BFD8
S315080017404EEA013C2CF4702ED40448BF4EEA014CF4
S315080017502CF4700E940448BF4EEA015C2CF0706EAF
S31508001760540448BF4EEA016C2CF07044120448BF7A
S3150800177044EA017C0362C0F824C010BD8162704748
S31508001780816170471823002A08BF2823195070471B
S315080017900069084018BF0120704700002DE9F04392
S315080017A00568D0F80C804FF0000C4FF0030E0026A9
S315080017B006E000BF0136102E0CF1100C00F0A580D3
S315080017C023FA06F7FF070BD00EFA0CF7BD4301FA0A
S315080017D00CF4254328EA070402FA0CF744EA07083A
S315080017E0013623FA06F4E4070FD00CF102040EFAC8
S315080017F004F725EA070901FA04F528EA070702FAB1
S3150800180004F445EA090547EA0408013623FA06F40A
S31508001810E4070FD00CF104040EFA04F725EA0709C9
S3150800182001FA04F528EA070702FA04F445EA090565
S3150800183047EA0408013623FA06F4E4070FD00CF148
S3150800184006040EFA04F725EA070901FA04F528EA58
S31508001850070702FA04F445EA090547EA04080136C7
S3150800186023FA06F4E4070FD00CF108040EFA04F77D
S3150800187025EA070901FA04F528EA070702FA04F433
S3150800188045EA090547EA0408013623FA06F4E40797
S315080018900FD00CF10A040EFA04F725EA070901FA33
S315080018A004F528EA070702FA04F445EA090547EAAF
S315080018B00408013623FA06F4E4070FD00CF10C04E9
S315080018C00EFA04F725EA070901FA04F528EA0707D4
S315080018D002FA04F445EA090547EA0408013623FA38
S315080018E006F4E4073FF466AF0CF10E040EFA04F7AB
S315080018F025EA070901FA04F528EA070702FA04F4B3
S3150800190045EA090547EA040854E70560C0F80C806B
S31508001910BDE8F08370B50129416814BF994319439E
S315080019204160D0F808E000214FF0030C002404E0E1
S315080019300134102C01F1100172D023FA04F5ED07D9
S3150800194007D00CFA01F52EEA050E02FA01F54EEA61
S31508001950050E013423FA04F5ED0708D08D1C0CFAA0
S3150800196005F62EEA060602FA05F546EA050E0134DC
S3150800197023FA04F5ED0708D00D1D0CFA05F62EEA34
S31508001980060602FA05F546EA050E013423FA04F5B9
S31508001990ED0708D08D1D0CFA05F62EEA060602FAA2
S315080019A005F546EA050E013423FA04F5ED0709D0D4
S315080019B001F108050CFA05F62EEA060602FA05F5FF
S315080019C046EA050E013423FA04F5ED0709D001F1BC
S315080019D00A050CFA05F62EEA060602FA05F546EA9F
S315080019E0050E013423FA04F5ED0709D001F10C05BB
S315080019F00CFA05F62EEA060602FA05F546EA050E7B
S31508001A00013423FA04F5ED0792D001F10E050CFA1C
S31508001A1005F62EEA060602FA05F546EA050E87E7F2
S31508001A20C0F808E070BD0000B0B540F6024000F00E
S31508001A3019FA40F6024000F015FA4FF4406000F03B
S31508001A4011FA40F60004C4F20204204601210022DD
S31508001A502023FFF7A3FE2046012100221023FFF7CB
S31508001A609DFEA4F500652846012100228023FFF784
S31508001A7095FE2046002102222023FFF74BFF204631
S31508001A80002102221023FFF745FF284600210222E3
S31508001A908023BDE8B040FFF73DBF000003280BD008
S31508001AA0022812D0012818BF704740F60000C4F279
S31508001AB002002021FFF764BE40F60000C4F20200CF
S31508001AC0A0F500608021FFF75BBE40F60000C4F277
S31508001AD002001021FFF754BE10B5032815D00228BE
S31508001AE026D0012818BF10BD40F60004C4F202042F
S31508001AF020462021FFF74CFEC0F10100C2B2204665
S31508001B002021BDE81040FFF73DBE40F60000C4F2B4
S31508001B100200A0F5006420468021FFF739FEC0F1D7
S31508001B200100C2B220468021BDE81040FFF72ABE58
S31508001B3040F60004C4F2020420461021FFF728FEEE
S31508001B40C0F10100C2B220461021BDE81040FFF7DF
S31508001B5019BE000088B000F0E1F9FFF765FF4FF401
S31508001B60E130FFF7D1FCFFF70BFB40F20040C4F26F
S31508001B70020040218022FFF76FFD4FF4E130FEF7A7
S31508001B80D7FEFEF71DFC00F0F5FCFEF737FC43F226
S31508001B9065056C46C0F6000557A600BF2046042119
S31508001BA0202200F09DFB9DF80010284600F090FECC
S31508001BB09DF80110284600F08BFE9DF80210284675
S31508001BC000F086FE9DF80310284600F081FE9DF879
S31508001BD00410284600F07CFE9DF80510284600F003
S31508001BE077FE9DF80610284600F072FE9DF807104D
S31508001BF0284600F06DFE9DF80810284600F068FE9D
S31508001C009DF80910284600F063FE9DF80A1028463C
S31508001C1000F05EFE9DF80B10284600F059FE9DF870
S31508001C200C10284600F054FE9DF80D10284600F0CA
S31508001C304FFE9DF80E10284600F04AFE9DF80F103C
S31508001C40284600F045FE9DF81010284600F040FE94
S31508001C509DF81110284600F03BFE9DF81210284604
S31508001C6000F036FE9DF81310284600F031FE9DF868
S31508001C701410284600F02CFE9DF81510284600F092
S31508001C8027FE9DF81610284600F022FE9DF817102C
S31508001C90284600F01DFE9DF81810284600F018FE8C
S31508001CA09DF81910284600F013FE9DF81A102846CC
S31508001CB000F00EFE9DF81B10284600F009FE9DF860
S31508001CC01C10284600F004FE9DF81D10284600F05A
S31508001CD0FFFD9DF81E10284600F0FAFD9DF81F101E
S31508001CE0284600F0F5FD304601F044F84FF47A70C6
S31508001CF0FFF782FC52E700BF0D0000004EF60C5CB1
S31508001D00CEF2000CDCF8003003F4E063B3F5E06FC4
S31508001D1001D104232AE0DCF8003003F4E063B3F5CC
S31508001D20C06F01D1032321E0DCF8003003F4E0633F
S31508001D30B3F5A06F01D1022318E0DCF8003003F4F4
S31508001D40E063B3F5806F01D101230FE0DCF80030C2
S31508001D5003F4E063B3F5407F01D1002306E040F2C7
S31508001D600053C0F2FA53CCF80030022301FA03FC00
S31508001D70C3F104030F21D94011404EF2001241EA83
S31508001D800C01CEF20002090140EA020383F80013AF
S31508001D9000F01F01012303FA01F11C2303EAD00016
S31508001DA08150704710B543F60402C4F20202536824
S31508001DB00146C3F3810342F20040022BC0F2F4004D
S31508001DC006D0012B1FD141F20020C0F27A001AE09A
S31508001DD0D2F800C013680CF03F0CC3F3881E1368D2
S31508001DE01468C3F30143640241F20024C0F27A0482
S31508001DF058BF0446B4FBFCF4022000EB430004FB86
S31508001E000EF3B3FBF0F05368D2F804C05268032906
S31508001E100FD8C3F303130FA4E35C42F6985E20FAC7
S31508001E2003F3C0F6000EDFE801F01302060D1846AC
S31508001E3010BD002010BDCCF382201EF8000023FA46
S31508001E4000F010BDC2F342301EF8000023FA00F07D
S31508001E5010BD00BF000000000000000001020304DE
S31508001E600607080943F6000300F01F018009C4F2BB
S31508001E7002034FF0010CC2580CFA01F11143C1508C
S31508001E807047000043F6000300F01F018009C4F202
S31508001E9002034FF0010CC2580CFA01F122EA0101C3
S31508001EA0C150704743F6000300F01F018009C4F2D1
S31508001EB002034FF0010CC2580CFA01F11143C1504C
S31508001EC070470000016841F040010160704700005A
S31508001ED0C06880B270470000C160704780680840DB
S31508001EE018BF01207047000070B50268D1E902E406
S31508001EF002F4415CD1E90032D1E9045643EA0C0305
S31508001F001A4342EA0E02224389692A43324311439D
S31508001F100160C16921F40061C16170BD40F204002D
S31508001F20C2F20000006844F6D351C1F26201A0FB78
S31508001F3001014FF0FF3000EB9110B0F1807F00D324
S31508001F40FEE74EF21001CEF2000148604EF623502D
S31508001F50CEF20000F0220270002207238A600B608E
S31508001F6002707047B0B5044647F2FF70C4F200002D
S31508001F700D4684424FF000000EDC44F6FF31C4F2F1
S31508001F8000018C4217DC44F20041C4F200018C4285
S31508001F901DD044F6000116E040F6FF71C4F20101B7
S31508001FA08C422FDC47F60001C4F200018C420ED0A9
S31508001FB047F6004107E044F60041C4F200018C42AE
S31508001FC005D045F20001C4F200018C4203D102217A
S31508001FD00846FFF7E7FEE168090406D400EB55005A
S31508001FE0B0FBF5F080B2A060B0BD400000EB550034
S31508001FF0B0FBF5F04FF6F0710140C0F3420008441B
S31508002000A060B0BD41F20001C4F201018C424FF05C
S315080020100301DDD041F20042C4F201029442D7D056
S31508002020D9E7000040686FF35F2070476FF35F21C0
S315080020304160704710B547F2FF71C4F2000188424B
S3150800204014DC44F6FF31C4F20001884224DC44F271
S315080020500041C4F2000188423CD044F60001C4F2B3
S315080020600001884249D140F612043EE040F6FF716D
S31508002070C4F2010188421EDC47F60001C4F20001E1
S3150800208088422AD047F60041C4F20001884218BFA8
S3150800209010BD40F61F0428E044F60041C4F20001D2
S315080020A088421DD045F20001C4F20001884224D1BD
S315080020B040F6140419E041F20001C4F20101884215
S315080020C011D041F20041C4F20101884215D140F60F
S315080020D005140AE040F6110407E040F61E0404E081
S315080020E040F6130401E040F604142046FFF7DAFE32
S315080020F02046BDE81040FFF7C5BE10BDC16841F4D3
S315080021000051C1607047000001F01F0289094FF0B5
S31508002110010C0B580CFA02F223EA02020A50704725
S315080021208A09105801F01F01C84000F001007047E5
S3150800213001F01F0289094FF0010C0B580CFA02F244
S3150800214023EA02020A50704701F01F0289094FF07C
S31508002150010C0B580CFA02F21A430A507047000099
S31508002160C1F3891252F800C08A0D105801F01F03F6
S31508002170C1F30441C8402CFA03F1084000F00100FD
S3150800218070470000C26822F4C062C260C268114388
S31508002190C1607047C26822F004021143C1607047EB
S315080021A0026922F4405202610269114301617047D3
S315080021B0C26822F008021143C1607047C26822F45F
S315080021C08052C260C2681143C16070472DE9F04170
S315080021D045F200040646C4F2010400F04BFB00F089
S315080021E035FA04F5444840464021FFF7C7FA4FF44C
S315080021F0803700BF20460221FFF770FE10B9013F65
S31508002200F8D110E020462021FFF766FE4FF480370C
S3150800221020460121FFF762FE10B9013FF8D102E01E
S315080022202046FFF755FE37094FF480352046022130
S31508002230FFF754FE10B9013DF8D110E0F9B2204677
S31508002240FFF74AFE4FF4803520460121FFF746FE88
S3150800225010B9013DF8D102E02046FFF739FE3601F4
S315080022604FF4803520460221FFF738FE10B9013DAC
S31508002270F8D110E0F1B22046FFF72EFE4FF4803574
S3150800228020460121FFF72AFE10B9013DF8D102E0E8
S315080022902046FFF71DFE4FF4803500BF2046022179
S315080022A0FFF71CFE10B9013DF8D110E020460021C9
S315080022B0FFF712FE4FF4803520460121FFF70EFE88
S315080022C010B9013DF8D102E02046FFF701FE40466D
S315080022D04021FFF755FABDE8F04100F0B7B9000014
S315080022E02DE9F04F81B045F20007C4F2010707F562
S315080022F0444889468346404640211446FFF73EFA3D
S315080023004FF4803638460221FFF7E8FD10B9013E42
S31508002310F8D110E038460321FFF7DEFD4FF480368A
S3150800232038460121FFF7DAFD10B9013EF8D102E07F
S315080023303846FFF7CDFD4FEA194A4FF4803600BFFD
S3150800234038460221FFF7CAFD10B9013EF8D112E05E
S315080023505FFA8AF13846FFF7BFFD4FF4803600BFB3
S3150800236038460121FFF7BAFD10B9013EF8D102E05F
S315080023703846FFF7ADFD4FEA192A4FF4803600BFFD
S3150800238038460221FFF7AAFD10B9013EF8D112E03E
S315080023905FFA8AF13846FFF79FFD4FF4803600BF93
S315080023A038460121FFF79AFD10B9013EF8D102E03F
S315080023B03846FFF78DFD4FF4803600BF38460221B8
S315080023C0FFF78CFD10B9013EF8D10EE05FFA89F1EE
S315080023D03846FFF781FD4FF4803600BF38460121A5
S315080023E0FFF77CFD18B9013EF8D124B928E0384634
S315080023F0FFF76EFD24B3002608E000BF3846FFF756
S3150800240067FD0BF806000136A64219D04FF4803551
S3150800241038460221FFF762FD10B9013DF8D10DE0FB
S315080024203846FF21FFF758FD4FF48035384601211D
S31508002430FFF754FD0028E1D1013DF7D1FF20E0E781
S315080024404046402101B0BDE8F04FFFF799B90000BA
S315080024502DE9F04145F20005C4F2010505F54448A9
S3150800246040464021FFF78AF94FF480362846022174
S31508002470FFF734FD10B9013EF8D110E028469F2138
S31508002480FFF72AFD4FF4803628460121FFF726FD7F
S3150800249010B9013EF8D102E02846FFF719FD4FF4BE
S315080024A0803600BF28460221FFF718FD10B9013E05
S315080024B0F8D10CE02846FF21FFF70EFD4FF48036D1
S315080024C028460121FFF70AFD20B9013EF8D14FF44D
S315080024D07F0604E02846FFF7FBFCC0B206044FF46B
S315080024E0803700BF28460221FFF7F8FC10B9013FE4
S315080024F0F8D10CE02846FF21FFF7EEFC4FF48037B1
S3150800250028460121FFF7EAFC20B9013FF8D14FF42C
S315080025107F4704E02846FFF7DBFC000287B24FF44A
S31508002520803400BF28460221FFF7D8FC18B9013CC1
S31508002530F8D1FF2013E02846FF21FFF7CDFC4FF422
S31508002540803400BF28460121FFF7C8FC18B9013CB2
S31508002550F8D1FF2003E02846FFF7BAFCC0B247EAE5
S31508002560060141EA000540464021FFF709F92846D9
S31508002570BDE8F08170B588B040F60540FFF772FCFB
S3150800258040F60540FFF76EFC41F20044C4F202042F
S31508002590204605218022FFF789F8204605214FF4B9
S315080025A08072FFF783F8204605214FF400724FF436
S315080025B00075FFF77BF820460221002280230026BB
S315080025C0FFF7ECF82046022100224FF48073FFF74C
S315080025D0E5F82046022100224FF40073FFF7DEF8E3
S315080025E02046002102228023FFF794F92046002185
S315080025F002224FF40073FFF78DF9204601210022CD
S315080026004023FFF7CBF82046002102224023FFF79C
S3150800261081F920464021FFF7B3F841F21410FFF77D
S3150800262021FC4FF4827001900320A4F54444CDE9BF
S31508002630060601A9204602960396CDE90456FFF739
S3150800264053FC2046FFF73EFC08B070BD70B545F256
S315080026500005C4F2010505F5444420464021FFF76C
S315080026608DF84FF4803600BF28460221FFF736FC66
S3150800267010B9013EF8D110E028460521FFF72CFCD9
S315080026804FF4803628460121FFF728FC10B9013E91
S31508002690F8D102E02846FFF71BFC002608E000BF39
S315080026A02846FFF715FCC0B2C0074FF000061BD03E
S315080026B028460221FFF712FC80B12846FF21FFF7C2
S315080026C00BFC4FF4803600BF28460121FFF706FCB5
S315080026D00028E5D1013EF7D104E000BF0136B6F582
S315080026E0803FE5D1FF20DFE720464021BDE8704066
S315080026F0FFF746B82DE9F04F81B0814645F200064E
S31508002700080B93468A46C4F20106FFF75FFD00F000
S31508002710B1F8FFF79BFF06F5444840464021FFF70E
S315080027202DF84FF4803500BF30460221FFF7D6FB5F
S3150800273010B9013DF8D110E030460221FFF7CCFB75
S315080027404FF4803530460121FFF7C8FB10B9013D2B
S31508002750F8D102E03046FFF7BBFB4FEA1A454FF4C3
S31508002760803700BF30460221FFF7B8FB10B9013F9A
S31508002770F8D110E0E9B23046FFF7AEFB4FF48035EA
S3150800278030460121FFF7AAFB10B9013DF8D102E056
S315080027903046FFF79DFB4FEA1A254FF4803700BFF6
S315080027A030460221FFF79AFB10B9013FF8D110E035
S315080027B0E9B23046FFF790FB4FF4803530460121E9
S315080027C0FFF78CFB10B9013DF8D102E03046FFF760
S315080027D07FFB4FF4803500BF30460221FFF77EFBB2
S315080027E010B9013DF8D10EE05FFA8AF13046FFF7DD
S315080027F073FB4FF4803500BF30460121FFF76EFBAF
S3150800280028B9013DF8D1BBF1000F06D129E03046C1
S31508002810FFF75EFBBBF1000F23D0002506E000BFE3
S315080028203046FFF755FB01355D451AD019F8057096
S315080028304FF4803430460221FFF750FB10B9013CB3
S31508002840F8D1F0E730463946FFF746FB4FF48034B7
S3150800285030460121FFF742FB0028E1D1013CF7D1C0
S31508002860E1E740464021FEF78BFF01B0BDE8F04F97
S31508002870FFF7ECBE70B545F20005C4F2010505F593
S31508002880444420464021FEF779FF4FF4803600BFC6
S3150800289028460221FFF722FB10B9013EF8D110E0C5
S315080028A028460621FFF718FB4FF4803628460121F3
S315080028B0FFF714FB10B9013EF8D102E02846FFF7EE
S315080028C007FB20464021BDE87040FEF759BF0000CF
S315080028D00FB4054B10B503A9044A029800F018F87E
S315080028E010BC5DF814FB00007D16000800000020EF
S315080028F002E008C8121F08C1002AFAD170477047BB
S31508002900002001E001C1121F002AFBD17047000018
S315080029102DE9FF4F8DB00F460546002606E025280F
S315080029200BD0DDE90F1290476D1C761C287800281D
S31508002930F5D111B03046BDE8F08F0024A246A14675
S315080029400122EC4900E0044315F8013F203B02FA56
S3150800295003F00842F7D128782A2810D06FF02F0202
S315080029602878A0F13001092914D80AEB8A0102EB6C
S31508002970410144F0020400EB010A6D1CF0E701CFA7
S315080029805FEA000A03D544F40054CAF1000A44F089
S3150800299002046D1C28782E2817D115F8010F44F06B
S315080029A004042A280ED06FF02F022878A0F13001EF
S315080029B009290AD809EB890102EB410100EB010953
S315080029C06D1CF2E757F8049B6D1C28786C280FD00D
S315080029D006DC4C2817D068280DD06A2814D104E0E4
S315080029E0742810D07A280FD10DE044F400140AE0B8
S315080029F044F4801401E044F440146978814202D119
S31508002A0004F580146D1C6D1C2A786E2A1FD00CDC08
S31508002A10632A31D004DC002A8BD0582A11D1A3E0CE
S31508002A20642A68D0692A0CD165E0732A2ED004DCA2
S31508002A306F2A73D0702A04D19BE0752A6FD0782A42
S31508002A406ED01046DDE90F129047761C50E1C4F3AC
S31508002A500250022806D0032809D0042801CF09D03D
S31508002A60066045E101CFF117C0E9006140E101CFF9
S31508002A7006803DE106703BE117F8040B8DF800006F
S31508002A8000208DF80100EB46012003E057F804BB4F
S31508002A904FF0FF3061074FF0000102D40DE008F156
S31508002AA00101884649450FDA8045F8DB1BF808100E
S31508002AB00029F4D108E008F1010188468142FADBD1
S31508002AC01BF808100029F6D1DDE90F23AAEB080048
S31508002AD08146214600F036F9304400EB080604E04A
S31508002AE0DDE90F121BF8010B9047B8F10108F7D280
S31508002AF021464846F7E00A21C4F302534FF0000B7B
S31508002B000891022B04D001CFC117032B09D00AE084
S31508002B10FF1D27F00707F7E8020108E032E01FE08B
S31508002B2020E000B2C117042B01D140B2C117031E21
S31508002B3071F1000307DA4FF0000CD0EB0C006CEBD8
S31508002B4001012D2302E0230504D52B238DF824301B
S31508002B50012303E0E30701D02023F7E7984658E06E
S31508002B600A2110E010210EE010204FF0000B08900B
S31508002B700CE010214FF0000B44F004044FF0080954
S31508002B80089103E008214FF0000B0891C4F30253A3
S31508002B90022B04D001CF0021032B06D006E0FF1D2F
S31508002BA027F00707F7E8020103E080B2042B00D1FB
S31508002BB0C0B24FF0000823072BD5702A07D0DDF8DE
S31508002BC020C08CF0100C5CEA0B0C05D00EE04023FC
S31508002BD08DF82430012308E050EA010306D030239B
S31508002BE08DF824308DF8252002239846DDF820C07C
S31508002BF08CF0080C5CEA0B0C0BD150EA010301D1EE
S31508002C00630706D530238DF824304FF00108A9F163
S31508002C100109582A04D038A20B9208AA0A920BE096
S31508002C203AA2F9E75B46089AFDF735FB0B9B9B5CD6
S31508002C300A9A521E0A92137050EA0102F2D10A98B1
S31508002C40ADEB000000F1200B600702D524F48034B8
S31508002C5001E04FF00109D94502DDA9EB0B0000E0C0
S31508002C60002000EB0B0141440890AAEB010AE0039F
S31508002C7006D4DDE90F232146504600F063F80644E2
S31508002C804FF0000908E009A911F80900DDE90F125B
S31508002C90904709F10109761CC145F4DBE0030CD520
S31508002CA0DDE90F232146504600F04CF8064404E0BF
S31508002CB0DDE90F1230209047761C0899481E0890C7
S31508002CC00029F5DC08E00A980A990078491C0A9157
S31508002CD0DDE90F129047761CBBF10001ABF1010B41
S31508002CE0F1DC21465046DDE90F2300F019F80644C9
S31508002CF06D1C1BE60928010030313233343536376E
S31508002D003839616263646566000000003031323329
S31508002D1034353637383941424344454600000000C9
S31508002D202DE9F041044600251E461746880404D4BA
S31508002D3005E039462020B0476D1C641EF9D52846A3
S31508002D40BDE8F0812DE9F041044600251E4690466F
S31508002D50C80301D5302700E02027880404D505E0FC
S31508002D6041463846B0476D1C641EF9D52846BDE86D
S31508002D70F081000010B5044601E0FEF77FFC14F868
S31508002D80010B04490028F8D1BDE810400A20FEF7D7
S31508002D9075BC0000000000200000000001020304CA
S31508002DA0342E20E58699E585A5E695B0E68DAEE54F
S31508002DB088B020466C6173682028E59CB0E59D8044
S31508002DC03A20307825303658292E2E2E0D0A003511
S31508002DD02E20E4BB8E20466C61736820E8AFBBE505
S31508002DE08F96E695B0E68DAE2028E59CB0E59D80E9
S31508002DF03A20307825303658292E2E2E0D0A0020F6
S31508002E002020E8AFBBE58F96E79A84E5AD97E7AC57
S31508002E10A6E4B8B23A2025730D0A00202020E8AFB0
S31508002E20BBE58F96E5AD97E7ACA6E4B8B23A2025A0
S31508002E30730D0A00202020E4BB8EE59CB0E59D803A
S31508002E402030782530365820E8AFBBE58F96E5ADBB
S31508002E5097E7ACA6E4B8B23A2025730D0A002020FD
S31508002E6020E58699E585A5E5AD97E7ACA6E4B8B271
S31508002E703A2025730D0A00202020E59CA8E59CB081
S31508002E80E59D802030782530365820E58699E585F9
S31508002E90A5E5AD97E7ACA6E4B8B23A2025730D0AC6
S31508002EA000372E20E6B58BE8AF95E4B88DE5908C13
S31508002EB0E59CB0E59D80E8AFBBE586992E2E2E0DE4
S31508002EC000362E20E9AA8CE8AF81E695B0E68DAEED
S31508002ED02E2E2E0D00332E20E58786E5A487E6B52F
S31508002EE08BE8AF95E695B0E68DAE2E2E2E0D00201A
S31508002EF02020494420E6A0A1E9AA8CE68890E58A24
S31508002F009F202D20E6A380E6B58BE588B0205732B2
S31508002F1035513132380D003D3D3D3D3D3D3D3D3D50
S31508002F203D3D3D3D3D3D3D3D3D3D3D3D3D3D3D3DC3
S31508002F303D3D3D3D3D3D3D3D3D3D3D3D0D0020205A
S31508002F4020494420E6A0A1E9AA8CE5A4B1E8B4A5E5
S31508002F50202D20E69CAAE6A380E6B58BE588B0E698
S31508002F60ADA3E7A1AEE79A8420466C6173680D00AD
S31508002F70202020E695B0E68DAEE58699E585A5E59F
S31508002F80AE8CE688900D00202020E4B88DE5908C64
S31508002F90E59CB0E59D80E8AFBBE58699E6B58BE88C
S31508002FA0AF95E68890E58A9F0D0057323551313244
S31508002FB03820E6B58BE8AF95E7A88BE5BA8FE7BB6F
S31508002FC093E69D9F0D00202020E4B88DE5908CE5C2
S31508002FD09CB0E59D80E8AFBBE58699E6B58BE8AF82
S31508002FE095E5A4B1E8B4A50D00202020E695B0E645
S31508002FF08DAEE9AA8CE8AF81E5A4B1E8B4A5202D89
S3150800300020E8AFBBE58699E58A9FE883BDE5BC82E3
S31508003010E5B8B80D00202020E695B0E68DAEE9AA01
S315080030208CE8AF81E68890E58A9F202D20E8AFBB23
S31508003030E58699E58A9FE883BDE6ADA3E5B8B80DB0
S3150800304000202020E8AFBBE58F96E695B0E68DAE6A
S315080030503A2000202020E58699E585A5E695B0E684
S315080030608DAE3A2000307825303258200000000016
S31508003070903000080000002008000000F028000832
S315080030809830000808000020E8120000002900080F
S30D0800309000000000001C4E0EB2
S705080001AD44
